{
  "_format": "hh-sol-artifact-1",
  "contractName": "Vesta",
  "sourceName": "contracts/Vesta.sol",
  "abi": [
    {
      "inputs": [],
      "stateMutability": "nonpayable",
      "type": "constructor"
    },
    {
      "anonymous": false,
      "inputs": [
        {
          "indexed": true,
          "internalType": "address",
          "name": "owner",
          "type": "address"
        },
        {
          "indexed": true,
          "internalType": "address",
          "name": "approved",
          "type": "address"
        },
        {
          "indexed": true,
          "internalType": "uint256",
          "name": "tokenId",
          "type": "uint256"
        }
      ],
      "name": "Approval",
      "type": "event"
    },
    {
      "anonymous": false,
      "inputs": [
        {
          "indexed": true,
          "internalType": "address",
          "name": "owner",
          "type": "address"
        },
        {
          "indexed": true,
          "internalType": "address",
          "name": "operator",
          "type": "address"
        },
        {
          "indexed": false,
          "internalType": "bool",
          "name": "approved",
          "type": "bool"
        }
      ],
      "name": "ApprovalForAll",
      "type": "event"
    },
    {
      "anonymous": false,
      "inputs": [
        {
          "indexed": true,
          "internalType": "address",
          "name": "from",
          "type": "address"
        },
        {
          "indexed": true,
          "internalType": "address",
          "name": "to",
          "type": "address"
        },
        {
          "indexed": true,
          "internalType": "uint256",
          "name": "tokenId",
          "type": "uint256"
        }
      ],
      "name": "Transfer",
      "type": "event"
    },
    {
      "inputs": [
        {
          "internalType": "address",
          "name": "to",
          "type": "address"
        },
        {
          "internalType": "uint256",
          "name": "tokenId",
          "type": "uint256"
        }
      ],
      "name": "approve",
      "outputs": [],
      "stateMutability": "nonpayable",
      "type": "function"
    },
    {
      "inputs": [
        {
          "internalType": "address",
          "name": "owner",
          "type": "address"
        }
      ],
      "name": "balanceOf",
      "outputs": [
        {
          "internalType": "uint256",
          "name": "",
          "type": "uint256"
        }
      ],
      "stateMutability": "view",
      "type": "function"
    },
    {
      "inputs": [
        {
          "internalType": "bool",
          "name": "_b",
          "type": "bool"
        }
      ],
      "name": "boolToString",
      "outputs": [
        {
          "internalType": "string",
          "name": "",
          "type": "string"
        }
      ],
      "stateMutability": "pure",
      "type": "function"
    },
    {
      "inputs": [
        {
          "internalType": "uint256",
          "name": "tokenId",
          "type": "uint256"
        }
      ],
      "name": "getApproved",
      "outputs": [
        {
          "internalType": "address",
          "name": "",
          "type": "address"
        }
      ],
      "stateMutability": "view",
      "type": "function"
    },
    {
      "inputs": [],
      "name": "get_house_info",
      "outputs": [
        {
          "internalType": "string",
          "name": "",
          "type": "string"
        },
        {
          "internalType": "string",
          "name": "",
          "type": "string"
        },
        {
          "internalType": "uint256",
          "name": "",
          "type": "uint256"
        },
        {
          "internalType": "uint256",
          "name": "",
          "type": "uint256"
        },
        {
          "internalType": "uint256",
          "name": "",
          "type": "uint256"
        },
        {
          "internalType": "uint256",
          "name": "",
          "type": "uint256"
        },
        {
          "internalType": "uint256",
          "name": "",
          "type": "uint256"
        },
        {
          "internalType": "uint256",
          "name": "",
          "type": "uint256"
        },
        {
          "internalType": "bool",
          "name": "",
          "type": "bool"
        },
        {
          "internalType": "bool",
          "name": "",
          "type": "bool"
        },
        {
          "internalType": "string",
          "name": "",
          "type": "string"
        }
      ],
      "stateMutability": "view",
      "type": "function"
    },
    {
      "inputs": [
        {
          "internalType": "address",
          "name": "owner",
          "type": "address"
        },
        {
          "internalType": "address",
          "name": "operator",
          "type": "address"
        }
      ],
      "name": "isApprovedForAll",
      "outputs": [
        {
          "internalType": "bool",
          "name": "",
          "type": "bool"
        }
      ],
      "stateMutability": "view",
      "type": "function"
    },
    {
      "inputs": [],
      "name": "mint",
      "outputs": [
        {
          "internalType": "uint256",
          "name": "",
          "type": "uint256"
        }
      ],
      "stateMutability": "nonpayable",
      "type": "function"
    },
    {
      "inputs": [],
      "name": "name",
      "outputs": [
        {
          "internalType": "string",
          "name": "",
          "type": "string"
        }
      ],
      "stateMutability": "view",
      "type": "function"
    },
    {
      "inputs": [
        {
          "internalType": "uint256",
          "name": "tokenId",
          "type": "uint256"
        }
      ],
      "name": "ownerOf",
      "outputs": [
        {
          "internalType": "address",
          "name": "",
          "type": "address"
        }
      ],
      "stateMutability": "view",
      "type": "function"
    },
    {
      "inputs": [
        {
          "internalType": "address",
          "name": "from",
          "type": "address"
        },
        {
          "internalType": "address",
          "name": "to",
          "type": "address"
        },
        {
          "internalType": "uint256",
          "name": "tokenId",
          "type": "uint256"
        }
      ],
      "name": "safeTransferFrom",
      "outputs": [],
      "stateMutability": "nonpayable",
      "type": "function"
    },
    {
      "inputs": [
        {
          "internalType": "address",
          "name": "from",
          "type": "address"
        },
        {
          "internalType": "address",
          "name": "to",
          "type": "address"
        },
        {
          "internalType": "uint256",
          "name": "tokenId",
          "type": "uint256"
        },
        {
          "internalType": "bytes",
          "name": "data",
          "type": "bytes"
        }
      ],
      "name": "safeTransferFrom",
      "outputs": [],
      "stateMutability": "nonpayable",
      "type": "function"
    },
    {
      "inputs": [
        {
          "internalType": "address",
          "name": "operator",
          "type": "address"
        },
        {
          "internalType": "bool",
          "name": "approved",
          "type": "bool"
        }
      ],
      "name": "setApprovalForAll",
      "outputs": [],
      "stateMutability": "nonpayable",
      "type": "function"
    },
    {
      "inputs": [
        {
          "internalType": "string",
          "name": "image",
          "type": "string"
        },
        {
          "internalType": "string",
          "name": "typology",
          "type": "string"
        },
        {
          "internalType": "uint256",
          "name": "yearBuilt",
          "type": "uint256"
        },
        {
          "internalType": "uint256",
          "name": "sqm",
          "type": "uint256"
        },
        {
          "internalType": "uint256",
          "name": "rooms",
          "type": "uint256"
        },
        {
          "internalType": "uint256",
          "name": "bathrooms",
          "type": "uint256"
        },
        {
          "internalType": "uint256",
          "name": "levels",
          "type": "uint256"
        },
        {
          "internalType": "uint256",
          "name": "parkings",
          "type": "uint256"
        },
        {
          "internalType": "bool",
          "name": "yard",
          "type": "bool"
        },
        {
          "internalType": "bool",
          "name": "pool",
          "type": "bool"
        },
        {
          "internalType": "string",
          "name": "location",
          "type": "string"
        }
      ],
      "name": "set_house_detail",
      "outputs": [],
      "stateMutability": "nonpayable",
      "type": "function"
    },
    {
      "inputs": [
        {
          "internalType": "bytes4",
          "name": "interfaceId",
          "type": "bytes4"
        }
      ],
      "name": "supportsInterface",
      "outputs": [
        {
          "internalType": "bool",
          "name": "",
          "type": "bool"
        }
      ],
      "stateMutability": "view",
      "type": "function"
    },
    {
      "inputs": [],
      "name": "symbol",
      "outputs": [
        {
          "internalType": "string",
          "name": "",
          "type": "string"
        }
      ],
      "stateMutability": "view",
      "type": "function"
    },
    {
      "inputs": [
        {
          "internalType": "uint256",
          "name": "index",
          "type": "uint256"
        }
      ],
      "name": "tokenByIndex",
      "outputs": [
        {
          "internalType": "uint256",
          "name": "",
          "type": "uint256"
        }
      ],
      "stateMutability": "view",
      "type": "function"
    },
    {
      "inputs": [
        {
          "internalType": "address",
          "name": "owner",
          "type": "address"
        },
        {
          "internalType": "uint256",
          "name": "index",
          "type": "uint256"
        }
      ],
      "name": "tokenOfOwnerByIndex",
      "outputs": [
        {
          "internalType": "uint256",
          "name": "",
          "type": "uint256"
        }
      ],
      "stateMutability": "view",
      "type": "function"
    },
    {
      "inputs": [
        {
          "internalType": "uint256",
          "name": "tokenId",
          "type": "uint256"
        }
      ],
      "name": "tokenURI",
      "outputs": [
        {
          "internalType": "string",
          "name": "",
          "type": "string"
        }
      ],
      "stateMutability": "view",
      "type": "function"
    },
    {
      "inputs": [],
      "name": "totalSupply",
      "outputs": [
        {
          "internalType": "uint256",
          "name": "",
          "type": "uint256"
        }
      ],
      "stateMutability": "view",
      "type": "function"
    },
    {
      "inputs": [
        {
          "internalType": "address",
          "name": "from",
          "type": "address"
        },
        {
          "internalType": "address",
          "name": "to",
          "type": "address"
        },
        {
          "internalType": "uint256",
          "name": "tokenId",
          "type": "uint256"
        }
      ],
      "name": "transferFrom",
      "outputs": [],
      "stateMutability": "nonpayable",
      "type": "function"
    }
  ],
  "bytecode": "0x60806040523480156200001157600080fd5b506040518060400160405280600581526020017f56657374610000000000000000000000000000000000000000000000000000008152506040518060400160405280600181526020017f560000000000000000000000000000000000000000000000000000000000000081525081600090816200008f919062000324565b508060019081620000a1919062000324565b5050506200040b565b600081519050919050565b7f4e487b7100000000000000000000000000000000000000000000000000000000600052604160045260246000fd5b7f4e487b7100000000000000000000000000000000000000000000000000000000600052602260045260246000fd5b600060028204905060018216806200012c57607f821691505b602082108103620001425762000141620000e4565b5b50919050565b60008190508160005260206000209050919050565b60006020601f8301049050919050565b600082821b905092915050565b600060088302620001ac7fffffffffffffffffffffffffffffffffffffffffffffffffffffffffffffffff826200016d565b620001b886836200016d565b95508019841693508086168417925050509392505050565b6000819050919050565b6000819050919050565b600062000205620001ff620001f984620001d0565b620001da565b620001d0565b9050919050565b6000819050919050565b6200022183620001e4565b6200023962000230826200020c565b8484546200017a565b825550505050565b600090565b6200025062000241565b6200025d81848462000216565b505050565b5b8181101562000285576200027960008262000246565b60018101905062000263565b5050565b601f821115620002d4576200029e8162000148565b620002a9846200015d565b81016020851015620002b9578190505b620002d1620002c8856200015d565b83018262000262565b50505b505050565b600082821c905092915050565b6000620002f960001984600802620002d9565b1980831691505092915050565b6000620003148383620002e6565b9150826002028217905092915050565b6200032f82620000aa565b67ffffffffffffffff8111156200034b576200034a620000b5565b5b62000357825462000113565b6200036482828562000289565b600060209050601f8311600181146200039c576000841562000387578287015190505b62000393858262000306565b86555062000403565b601f198416620003ac8662000148565b60005b82811015620003d657848901518255600182019150602085019450602081019050620003af565b86831015620003f65784890151620003f2601f891682620002e6565b8355505b6001600288020188555050505b505050505050565b6142a7806200041b6000396000f3fe608060405234801561001057600080fd5b506004361061012c5760003560e01c80634f6ccce7116100ad578063a22cb46511610071578063a22cb46514610361578063b88d4fde1461037d578063c87b56dd14610399578063e6659197146103c9578063e985e9c5146103f95761012c565b80634f6ccce7146102975780636352211e146102c757806370a08231146102f75780637e06fcc71461032757806395d89b41146103435761012c565b806318160ddd116100f457806318160ddd146101e957806323b872dd146102075780632f745c59146102235780633ab32f9c1461025357806342842e0e1461027b5761012c565b806301ffc9a71461013157806306fdde0314610161578063081812fc1461017f578063095ea7b3146101af5780631249c58b146101cb575b600080fd5b61014b600480360381019061014691906123b4565b610429565b60405161015891906123fc565b60405180910390f35b61016961043b565b60405161017691906124a7565b60405180910390f35b610199600480360381019061019491906124ff565b6104cd565b6040516101a6919061256d565b60405180910390f35b6101c960048036038101906101c491906125b4565b610513565b005b6101d361062a565b6040516101e09190612603565b60405180910390f35b6101f1610654565b6040516101fe9190612603565b60405180910390f35b610221600480360381019061021c919061261e565b610661565b005b61023d600480360381019061023891906125b4565b6106c1565b60405161024a9190612603565b60405180910390f35b61025b610766565b6040516102729b9a99989796959493929190612671565b60405180910390f35b6102956004803603810190610290919061261e565b610997565b005b6102b160048036038101906102ac91906124ff565b6109b7565b6040516102be9190612603565b60405180910390f35b6102e160048036038101906102dc91906124ff565b610a28565b6040516102ee919061256d565b60405180910390f35b610311600480360381019061030c9190612731565b610ad9565b60405161031e9190612603565b60405180910390f35b610341600480360381019061033c91906128bf565b610b90565b005b61034b610cb3565b60405161035891906124a7565b60405180910390f35b61037b60048036038101906103769190612a07565b610d45565b005b61039760048036038101906103929190612ae8565b610d5b565b005b6103b360048036038101906103ae91906124ff565b610dbd565b6040516103c091906124a7565b60405180910390f35b6103e360048036038101906103de9190612b6b565b610efd565b6040516103f091906124a7565b60405180910390f35b610413600480360381019061040e9190612b98565b610f7d565b60405161042091906123fc565b60405180910390f35b600061043482611011565b9050919050565b60606000805461044a90612c07565b80601f016020809104026020016040519081016040528092919081815260200182805461047690612c07565b80156104c35780601f10610498576101008083540402835291602001916104c3565b820191906000526020600020905b8154815290600101906020018083116104a657829003601f168201915b5050505050905090565b60006104d88261108b565b6004600083815260200190815260200160002060009054906101000a900473ffffffffffffffffffffffffffffffffffffffff169050919050565b600061051e82610a28565b90508073ffffffffffffffffffffffffffffffffffffffff168373ffffffffffffffffffffffffffffffffffffffff160361058e576040517f08c379a000000000000000000000000000000000000000000000000000000000815260040161058590612caa565b60405180910390fd5b8073ffffffffffffffffffffffffffffffffffffffff166105ad6110d6565b73ffffffffffffffffffffffffffffffffffffffff1614806105dc57506105db816105d66110d6565b610f7d565b5b61061b576040517f08c379a000000000000000000000000000000000000000000000000000000000815260040161061290612d3c565b60405180910390fd5b61062583836110de565b505050565b6000806106376014611197565b905061064360146111a5565b61064d33826111bb565b8091505090565b6000600880549050905090565b61067261066c6110d6565b826111d9565b6106b1576040517f08c379a00000000000000000000000000000000000000000000000000000000081526004016106a890612dce565b60405180910390fd5b6106bc83838361126e565b505050565b60006106cc83610ad9565b821061070d576040517f08c379a000000000000000000000000000000000000000000000000000000000815260040161070490612e60565b60405180910390fd5b600660008473ffffffffffffffffffffffffffffffffffffffff1673ffffffffffffffffffffffffffffffffffffffff168152602001908152602001600020600083815260200190815260200160002054905092915050565b6060806000806000806000806000806060600a600001600a600101600a60020154600a60030154600a60040154600a60050154600a60060154600a60070154600a60080160009054906101000a900460ff16600a60080160019054906101000a900460ff16600a6009018a80546107dc90612c07565b80601f016020809104026020016040519081016040528092919081815260200182805461080890612c07565b80156108555780601f1061082a57610100808354040283529160200191610855565b820191906000526020600020905b81548152906001019060200180831161083857829003601f168201915b50505050509a5089805461086890612c07565b80601f016020809104026020016040519081016040528092919081815260200182805461089490612c07565b80156108e15780601f106108b6576101008083540402835291602001916108e1565b820191906000526020600020905b8154815290600101906020018083116108c457829003601f168201915b505050505099508080546108f490612c07565b80601f016020809104026020016040519081016040528092919081815260200182805461092090612c07565b801561096d5780601f106109425761010080835404028352916020019161096d565b820191906000526020600020905b81548152906001019060200180831161095057829003601f168201915b505050505090509a509a509a509a509a509a509a509a509a509a509a50909192939495969798999a565b6109b283838360405180602001604052806000815250610d5b565b505050565b60006109c1610654565b8210610a02576040517f08c379a00000000000000000000000000000000000000000000000000000000081526004016109f990612ef2565b60405180910390fd5b60088281548110610a1657610a15612f12565b5b90600052602060002001549050919050565b6000806002600084815260200190815260200160002060009054906101000a900473ffffffffffffffffffffffffffffffffffffffff169050600073ffffffffffffffffffffffffffffffffffffffff168173ffffffffffffffffffffffffffffffffffffffff1603610ad0576040517f08c379a0000000000000000000000000000000000000000000000000000000008152600401610ac790612f8d565b60405180910390fd5b80915050919050565b60008073ffffffffffffffffffffffffffffffffffffffff168273ffffffffffffffffffffffffffffffffffffffff1603610b49576040517f08c379a0000000000000000000000000000000000000000000000000000000008152600401610b409061301f565b60405180910390fd5b600360008373ffffffffffffffffffffffffffffffffffffffff1673ffffffffffffffffffffffffffffffffffffffff168152602001908152602001600020549050919050565b6040518061016001604052808c81526020018b81526020018a81526020018981526020018881526020018781526020018681526020018581526020018415158152602001831515815260200182815250600a6000820151816000019081610bf791906131eb565b506020820151816001019081610c0d91906131eb565b5060408201518160020155606082015181600301556080820151816004015560a0820151816005015560c0820151816006015560e082015181600701556101008201518160080160006101000a81548160ff0219169083151502179055506101208201518160080160016101000a81548160ff021916908315150217905550610140820151816009019081610ca291906131eb565b509050505050505050505050505050565b606060018054610cc290612c07565b80601f0160208091040260200160405190810160405280929190818152602001828054610cee90612c07565b8015610d3b5780601f10610d1057610100808354040283529160200191610d3b565b820191906000526020600020905b815481529060010190602001808311610d1e57829003601f168201915b5050505050905090565b610d57610d506110d6565b83836114d4565b5050565b610d6c610d666110d6565b836111d9565b610dab576040517f08c379a0000000000000000000000000000000000000000000000000000000008152600401610da290612dce565b60405180910390fd5b610db784848484611640565b50505050565b6060610dc88261169c565b610e07576040517f08c379a0000000000000000000000000000000000000000000000000000000008152600401610dfe9061332f565b60405180910390fd5b6000610ed3600a600001600a600101610e24600a60020154611708565b610e32600a60030154611708565b610e40600a60040154611708565b610e4e600a60050154611708565b610e5c600a60060154611708565b610e6a600a60070154611708565b610e85600a60080160009054906101000a900460ff16610efd565b610ea0600a60080160019054906101000a900460ff16610efd565b600a600901604051602001610ebf9b9a99989796959493929190613abc565b604051602081830303815290604052611868565b905080604051602001610ee69190613c51565b604051602081830303815290604052915050919050565b606081610f3f576040518060400160405280600281526020017f4e6f000000000000000000000000000000000000000000000000000000000000815250610f76565b6040518060400160405280600381526020017f59657300000000000000000000000000000000000000000000000000000000008152505b9050919050565b6000600560008473ffffffffffffffffffffffffffffffffffffffff1673ffffffffffffffffffffffffffffffffffffffff16815260200190815260200160002060008373ffffffffffffffffffffffffffffffffffffffff1673ffffffffffffffffffffffffffffffffffffffff16815260200190815260200160002060009054906101000a900460ff16905092915050565b60007f780e9d63000000000000000000000000000000000000000000000000000000007bffffffffffffffffffffffffffffffffffffffffffffffffffffffff1916827bffffffffffffffffffffffffffffffffffffffffffffffffffffffff191614806110845750611083826119ec565b5b9050919050565b6110948161169c565b6110d3576040517f08c379a00000000000000000000000000000000000000000000000000000000081526004016110ca90612f8d565b60405180910390fd5b50565b600033905090565b816004600083815260200190815260200160002060006101000a81548173ffffffffffffffffffffffffffffffffffffffff021916908373ffffffffffffffffffffffffffffffffffffffff160217905550808273ffffffffffffffffffffffffffffffffffffffff1661115183610a28565b73ffffffffffffffffffffffffffffffffffffffff167f8c5be1e5ebec7d5bd14f71427d1e84f3dd0314c0f7b2291e5b200ac8c7c3b92560405160405180910390a45050565b600081600001549050919050565b6001816000016000828254019250508190555050565b6111d5828260405180602001604052806000815250611ace565b5050565b6000806111e583610a28565b90508073ffffffffffffffffffffffffffffffffffffffff168473ffffffffffffffffffffffffffffffffffffffff16148061122757506112268185610f7d565b5b8061126557508373ffffffffffffffffffffffffffffffffffffffff1661124d846104cd565b73ffffffffffffffffffffffffffffffffffffffff16145b91505092915050565b8273ffffffffffffffffffffffffffffffffffffffff1661128e82610a28565b73ffffffffffffffffffffffffffffffffffffffff16146112e4576040517f08c379a00000000000000000000000000000000000000000000000000000000081526004016112db90613ce5565b60405180910390fd5b600073ffffffffffffffffffffffffffffffffffffffff168273ffffffffffffffffffffffffffffffffffffffff1603611353576040517f08c379a000000000000000000000000000000000000000000000000000000000815260040161134a90613d77565b60405180910390fd5b61135e838383611b29565b6113696000826110de565b6001600360008573ffffffffffffffffffffffffffffffffffffffff1673ffffffffffffffffffffffffffffffffffffffff16815260200190815260200160002060008282546113b99190613dc6565b925050819055506001600360008473ffffffffffffffffffffffffffffffffffffffff1673ffffffffffffffffffffffffffffffffffffffff16815260200190815260200160002060008282546114109190613dfa565b92505081905550816002600083815260200190815260200160002060006101000a81548173ffffffffffffffffffffffffffffffffffffffff021916908373ffffffffffffffffffffffffffffffffffffffff160217905550808273ffffffffffffffffffffffffffffffffffffffff168473ffffffffffffffffffffffffffffffffffffffff167fddf252ad1be2c89b69c2b068fc378daa952ba7f163c4a11628f55a4df523b3ef60405160405180910390a46114cf838383611b39565b505050565b8173ffffffffffffffffffffffffffffffffffffffff168373ffffffffffffffffffffffffffffffffffffffff1603611542576040517f08c379a000000000000000000000000000000000000000000000000000000000815260040161153990613e7a565b60405180910390fd5b80600560008573ffffffffffffffffffffffffffffffffffffffff1673ffffffffffffffffffffffffffffffffffffffff16815260200190815260200160002060008473ffffffffffffffffffffffffffffffffffffffff1673ffffffffffffffffffffffffffffffffffffffff16815260200190815260200160002060006101000a81548160ff0219169083151502179055508173ffffffffffffffffffffffffffffffffffffffff168373ffffffffffffffffffffffffffffffffffffffff167f17307eab39ab6107e8899845ad3d59bd9653f200f220920489ca2b5937696c318360405161163391906123fc565b60405180910390a3505050565b61164b84848461126e565b61165784848484611b3e565b611696576040517f08c379a000000000000000000000000000000000000000000000000000000000815260040161168d90613f0c565b60405180910390fd5b50505050565b60008073ffffffffffffffffffffffffffffffffffffffff166002600084815260200190815260200160002060009054906101000a900473ffffffffffffffffffffffffffffffffffffffff1673ffffffffffffffffffffffffffffffffffffffff1614159050919050565b60606000820361174f576040518060400160405280600181526020017f30000000000000000000000000000000000000000000000000000000000000008152509050611863565b600082905060005b6000821461178157808061176a90613f2c565b915050600a8261177a9190613fa3565b9150611757565b60008167ffffffffffffffff81111561179d5761179c612768565b5b6040519080825280601f01601f1916602001820160405280156117cf5781602001600182028036833780820191505090505b5090505b6000851461185c576001826117e89190613dc6565b9150600a856117f79190613fd4565b60306118039190613dfa565b60f81b81838151811061181957611818612f12565b5b60200101907effffffffffffffffffffffffffffffffffffffffffffffffffffffffffffff1916908160001a905350600a856118559190613fa3565b94506117d3565b8093505050505b919050565b6060600082510361188a576040518060200160405280600081525090506119e7565b600060405180606001604052806040815260200161423260409139905060006003600285516118b99190613dfa565b6118c39190613fa3565b60046118cf9190614005565b905060006020826118e09190613dfa565b67ffffffffffffffff8111156118f9576118f8612768565b5b6040519080825280601f01601f19166020018201604052801561192b5781602001600182028036833780820191505090505b509050818152600183018586518101602084015b818310156119a6576003830192508251603f8160121c1685015160f81b8252600182019150603f81600c1c1685015160f81b8252600182019150603f8160061c1685015160f81b8252600182019150603f811685015160f81b82526001820191505061193f565b6003895106600181146119c057600281146119d0576119db565b613d3d60f01b60028303526119db565b603d60f81b60018303525b50505050508093505050505b919050565b60007f80ac58cd000000000000000000000000000000000000000000000000000000007bffffffffffffffffffffffffffffffffffffffffffffffffffffffff1916827bffffffffffffffffffffffffffffffffffffffffffffffffffffffff19161480611ab757507f5b5e139f000000000000000000000000000000000000000000000000000000007bffffffffffffffffffffffffffffffffffffffffffffffffffffffff1916827bffffffffffffffffffffffffffffffffffffffffffffffffffffffff1916145b80611ac75750611ac682611cc5565b5b9050919050565b611ad88383611d2f565b611ae56000848484611b3e565b611b24576040517f08c379a0000000000000000000000000000000000000000000000000000000008152600401611b1b90613f0c565b60405180910390fd5b505050565b611b34838383611f08565b505050565b505050565b6000611b5f8473ffffffffffffffffffffffffffffffffffffffff1661201a565b15611cb8578373ffffffffffffffffffffffffffffffffffffffff1663150b7a02611b886110d6565b8786866040518563ffffffff1660e01b8152600401611baa949392919061409c565b6020604051808303816000875af1925050508015611be657506040513d601f19601f82011682018060405250810190611be391906140fd565b60015b611c68573d8060008114611c16576040519150601f19603f3d011682016040523d82523d6000602084013e611c1b565b606091505b506000815103611c60576040517f08c379a0000000000000000000000000000000000000000000000000000000008152600401611c5790613f0c565b60405180910390fd5b805181602001fd5b63150b7a0260e01b7bffffffffffffffffffffffffffffffffffffffffffffffffffffffff1916817bffffffffffffffffffffffffffffffffffffffffffffffffffffffff191614915050611cbd565b600190505b949350505050565b60007f01ffc9a7000000000000000000000000000000000000000000000000000000007bffffffffffffffffffffffffffffffffffffffffffffffffffffffff1916827bffffffffffffffffffffffffffffffffffffffffffffffffffffffff1916149050919050565b600073ffffffffffffffffffffffffffffffffffffffff168273ffffffffffffffffffffffffffffffffffffffff1603611d9e576040517f08c379a0000000000000000000000000000000000000000000000000000000008152600401611d9590614176565b60405180910390fd5b611da78161169c565b15611de7576040517f08c379a0000000000000000000000000000000000000000000000000000000008152600401611dde906141e2565b60405180910390fd5b611df360008383611b29565b6001600360008473ffffffffffffffffffffffffffffffffffffffff1673ffffffffffffffffffffffffffffffffffffffff1681526020019081526020016000206000828254611e439190613dfa565b92505081905550816002600083815260200190815260200160002060006101000a81548173ffffffffffffffffffffffffffffffffffffffff021916908373ffffffffffffffffffffffffffffffffffffffff160217905550808273ffffffffffffffffffffffffffffffffffffffff16600073ffffffffffffffffffffffffffffffffffffffff167fddf252ad1be2c89b69c2b068fc378daa952ba7f163c4a11628f55a4df523b3ef60405160405180910390a4611f0460008383611b39565b5050565b611f1383838361203d565b600073ffffffffffffffffffffffffffffffffffffffff168373ffffffffffffffffffffffffffffffffffffffff1603611f5557611f5081612042565b611f94565b8173ffffffffffffffffffffffffffffffffffffffff168373ffffffffffffffffffffffffffffffffffffffff1614611f9357611f92838261208b565b5b5b600073ffffffffffffffffffffffffffffffffffffffff168273ffffffffffffffffffffffffffffffffffffffff1603611fd657611fd1816121f8565b612015565b8273ffffffffffffffffffffffffffffffffffffffff168273ffffffffffffffffffffffffffffffffffffffff16146120145761201382826122c9565b5b5b505050565b6000808273ffffffffffffffffffffffffffffffffffffffff163b119050919050565b505050565b6008805490506009600083815260200190815260200160002081905550600881908060018154018082558091505060019003906000526020600020016000909190919091505550565b6000600161209884610ad9565b6120a29190613dc6565b9050600060076000848152602001908152602001600020549050818114612187576000600660008673ffffffffffffffffffffffffffffffffffffffff1673ffffffffffffffffffffffffffffffffffffffff168152602001908152602001600020600084815260200190815260200160002054905080600660008773ffffffffffffffffffffffffffffffffffffffff1673ffffffffffffffffffffffffffffffffffffffff168152602001908152602001600020600084815260200190815260200160002081905550816007600083815260200190815260200160002081905550505b6007600084815260200190815260200160002060009055600660008573ffffffffffffffffffffffffffffffffffffffff1673ffffffffffffffffffffffffffffffffffffffff16815260200190815260200160002060008381526020019081526020016000206000905550505050565b6000600160088054905061220c9190613dc6565b905060006009600084815260200190815260200160002054905060006008838154811061223c5761223b612f12565b5b90600052602060002001549050806008838154811061225e5761225d612f12565b5b9060005260206000200181905550816009600083815260200190815260200160002081905550600960008581526020019081526020016000206000905560088054806122ad576122ac614202565b5b6001900381819060005260206000200160009055905550505050565b60006122d483610ad9565b905081600660008573ffffffffffffffffffffffffffffffffffffffff1673ffffffffffffffffffffffffffffffffffffffff168152602001908152602001600020600083815260200190815260200160002081905550806007600084815260200190815260200160002081905550505050565b6000604051905090565b600080fd5b600080fd5b60007fffffffff0000000000000000000000000000000000000000000000000000000082169050919050565b6123918161235c565b811461239c57600080fd5b50565b6000813590506123ae81612388565b92915050565b6000602082840312156123ca576123c9612352565b5b60006123d88482850161239f565b91505092915050565b60008115159050919050565b6123f6816123e1565b82525050565b600060208201905061241160008301846123ed565b92915050565b600081519050919050565b600082825260208201905092915050565b60005b83811015612451578082015181840152602081019050612436565b60008484015250505050565b6000601f19601f8301169050919050565b600061247982612417565b6124838185612422565b9350612493818560208601612433565b61249c8161245d565b840191505092915050565b600060208201905081810360008301526124c1818461246e565b905092915050565b6000819050919050565b6124dc816124c9565b81146124e757600080fd5b50565b6000813590506124f9816124d3565b92915050565b60006020828403121561251557612514612352565b5b6000612523848285016124ea565b91505092915050565b600073ffffffffffffffffffffffffffffffffffffffff82169050919050565b60006125578261252c565b9050919050565b6125678161254c565b82525050565b6000602082019050612582600083018461255e565b92915050565b6125918161254c565b811461259c57600080fd5b50565b6000813590506125ae81612588565b92915050565b600080604083850312156125cb576125ca612352565b5b60006125d98582860161259f565b92505060206125ea858286016124ea565b9150509250929050565b6125fd816124c9565b82525050565b600060208201905061261860008301846125f4565b92915050565b60008060006060848603121561263757612636612352565b5b60006126458682870161259f565b93505060206126568682870161259f565b9250506040612667868287016124ea565b9150509250925092565b600061016082019050818103600083015261268c818e61246e565b905081810360208301526126a0818d61246e565b90506126af604083018c6125f4565b6126bc606083018b6125f4565b6126c9608083018a6125f4565b6126d660a08301896125f4565b6126e360c08301886125f4565b6126f060e08301876125f4565b6126fe6101008301866123ed565b61270c6101208301856123ed565b81810361014083015261271f818461246e565b90509c9b505050505050505050505050565b60006020828403121561274757612746612352565b5b60006127558482850161259f565b91505092915050565b600080fd5b600080fd5b7f4e487b7100000000000000000000000000000000000000000000000000000000600052604160045260246000fd5b6127a08261245d565b810181811067ffffffffffffffff821117156127bf576127be612768565b5b80604052505050565b60006127d2612348565b90506127de8282612797565b919050565b600067ffffffffffffffff8211156127fe576127fd612768565b5b6128078261245d565b9050602081019050919050565b82818337600083830152505050565b6000612836612831846127e3565b6127c8565b90508281526020810184848401111561285257612851612763565b5b61285d848285612814565b509392505050565b600082601f83011261287a5761287961275e565b5b813561288a848260208601612823565b91505092915050565b61289c816123e1565b81146128a757600080fd5b50565b6000813590506128b981612893565b92915050565b60008060008060008060008060008060006101608c8e0312156128e5576128e4612352565b5b60008c013567ffffffffffffffff81111561290357612902612357565b5b61290f8e828f01612865565b9b505060208c013567ffffffffffffffff8111156129305761292f612357565b5b61293c8e828f01612865565b9a5050604061294d8e828f016124ea565b995050606061295e8e828f016124ea565b985050608061296f8e828f016124ea565b97505060a06129808e828f016124ea565b96505060c06129918e828f016124ea565b95505060e06129a28e828f016124ea565b9450506101006129b48e828f016128aa565b9350506101206129c68e828f016128aa565b9250506101408c013567ffffffffffffffff8111156129e8576129e7612357565b5b6129f48e828f01612865565b9150509295989b509295989b9093969950565b60008060408385031215612a1e57612a1d612352565b5b6000612a2c8582860161259f565b9250506020612a3d858286016128aa565b9150509250929050565b600067ffffffffffffffff821115612a6257612a61612768565b5b612a6b8261245d565b9050602081019050919050565b6000612a8b612a8684612a47565b6127c8565b905082815260208101848484011115612aa757612aa6612763565b5b612ab2848285612814565b509392505050565b600082601f830112612acf57612ace61275e565b5b8135612adf848260208601612a78565b91505092915050565b60008060008060808587031215612b0257612b01612352565b5b6000612b108782880161259f565b9450506020612b218782880161259f565b9350506040612b32878288016124ea565b925050606085013567ffffffffffffffff811115612b5357612b52612357565b5b612b5f87828801612aba565b91505092959194509250565b600060208284031215612b8157612b80612352565b5b6000612b8f848285016128aa565b91505092915050565b60008060408385031215612baf57612bae612352565b5b6000612bbd8582860161259f565b9250506020612bce8582860161259f565b9150509250929050565b7f4e487b7100000000000000000000000000000000000000000000000000000000600052602260045260246000fd5b60006002820490506001821680612c1f57607f821691505b602082108103612c3257612c31612bd8565b5b50919050565b7f4552433732313a20617070726f76616c20746f2063757272656e74206f776e6560008201527f7200000000000000000000000000000000000000000000000000000000000000602082015250565b6000612c94602183612422565b9150612c9f82612c38565b604082019050919050565b60006020820190508181036000830152612cc381612c87565b9050919050565b7f4552433732313a20617070726f76652063616c6c6572206973206e6f7420746f60008201527f6b656e206f776e6572206e6f7220617070726f76656420666f7220616c6c0000602082015250565b6000612d26603e83612422565b9150612d3182612cca565b604082019050919050565b60006020820190508181036000830152612d5581612d19565b9050919050565b7f4552433732313a2063616c6c6572206973206e6f7420746f6b656e206f776e6560008201527f72206e6f7220617070726f766564000000000000000000000000000000000000602082015250565b6000612db8602e83612422565b9150612dc382612d5c565b604082019050919050565b60006020820190508181036000830152612de781612dab565b9050919050565b7f455243373231456e756d657261626c653a206f776e657220696e646578206f7560008201527f74206f6620626f756e6473000000000000000000000000000000000000000000602082015250565b6000612e4a602b83612422565b9150612e5582612dee565b604082019050919050565b60006020820190508181036000830152612e7981612e3d565b9050919050565b7f455243373231456e756d657261626c653a20676c6f62616c20696e646578206f60008201527f7574206f6620626f756e64730000000000000000000000000000000000000000602082015250565b6000612edc602c83612422565b9150612ee782612e80565b604082019050919050565b60006020820190508181036000830152612f0b81612ecf565b9050919050565b7f4e487b7100000000000000000000000000000000000000000000000000000000600052603260045260246000fd5b7f4552433732313a20696e76616c696420746f6b656e2049440000000000000000600082015250565b6000612f77601883612422565b9150612f8282612f41565b602082019050919050565b60006020820190508181036000830152612fa681612f6a565b9050919050565b7f4552433732313a2061646472657373207a65726f206973206e6f74206120766160008201527f6c6964206f776e65720000000000000000000000000000000000000000000000602082015250565b6000613009602983612422565b915061301482612fad565b604082019050919050565b6000602082019050818103600083015261303881612ffc565b9050919050565b60008190508160005260206000209050919050565b60006020601f8301049050919050565b600082821b905092915050565b6000600883026130a17fffffffffffffffffffffffffffffffffffffffffffffffffffffffffffffffff82613064565b6130ab8683613064565b95508019841693508086168417925050509392505050565b6000819050919050565b60006130e86130e36130de846124c9565b6130c3565b6124c9565b9050919050565b6000819050919050565b613102836130cd565b61311661310e826130ef565b848454613071565b825550505050565b600090565b61312b61311e565b6131368184846130f9565b505050565b5b8181101561315a5761314f600082613123565b60018101905061313c565b5050565b601f82111561319f576131708161303f565b61317984613054565b81016020851015613188578190505b61319c61319485613054565b83018261313b565b50505b505050565b600082821c905092915050565b60006131c2600019846008026131a4565b1980831691505092915050565b60006131db83836131b1565b9150826002028217905092915050565b6131f482612417565b67ffffffffffffffff81111561320d5761320c612768565b5b6132178254612c07565b61322282828561315e565b600060209050601f8311600181146132555760008415613243578287015190505b61324d85826131cf565b8655506132b5565b601f1984166132638661303f565b60005b8281101561328b57848901518255600182019150602085019450602081019050613266565b868310156132a857848901516132a4601f8916826131b1565b8355505b6001600288020188555050505b505050505050565b7f455243373231204d657461646174613a2055524920717565727920666f72206e60008201527f6f6e6578697374656e7420746f6b656e00000000000000000000000000000000602082015250565b6000613319603083612422565b9150613324826132bd565b604082019050919050565b600060208201905081810360008301526133488161330c565b9050919050565b600081905092915050565b7f7b226e616d65223a220000000000000000000000000000000000000000000000600082015250565b600061339060098361334f565b915061339b8261335a565b600982019050919050565b7f5665737461000000000000000000000000000000000000000000000000000000600082015250565b60006133dc60058361334f565b91506133e7826133a6565b600582019050919050565b7f222c226465736372697074696f6e223a22000000000000000000000000000000600082015250565b600061342860118361334f565b9150613433826133f2565b601182019050919050565b7f566573746120697320612070726f706572747920746f6b656e697a6174696f6e60008201527f20706c6174666f726d2c20726570726573656e746564206173204e465473207460208201527f686174206c697665206f6e2074686520626c6f636b636861696e20666f72206560408201527f617379207472616e73666572206f66206f776e6572736869702e000000000000606082015250565b60006134e6607a8361334f565b91506134f18261343e565b607a82019050919050565b7f222c22696d616765223a22000000000000000000000000000000000000000000600082015250565b6000613532600b8361334f565b915061353d826134fc565b600b82019050919050565b6000815461355581612c07565b61355f818661334f565b9450600182166000811461357a576001811461358f576135c2565b60ff19831686528115158202860193506135c2565b6135988561303f565b60005b838110156135ba5781548189015260018201915060208101905061359b565b838801955050505b50505092915050565b7f222c2261747472696275746573223a5b7b2274726169745f74797065223a225460008201527f79706f6c6f6779222c2276616c7565223a220000000000000000000000000000602082015250565b600061362760328361334f565b9150613632826135cb565b603282019050919050565b7f227d2c7b2274726169745f74797065223a202259656172206275696c74222c2260008201527f76616c7565223a22000000000000000000000000000000000000000000000000602082015250565b600061369960288361334f565b91506136a48261363d565b602882019050919050565b60006136ba82612417565b6136c4818561334f565b93506136d4818560208601612433565b80840191505092915050565b7f227d2c7b2274726169745f74797065223a2022537175617265206d657465727360008201527f222c2276616c7565223a22000000000000000000000000000000000000000000602082015250565b600061373c602b8361334f565b9150613747826136e0565b602b82019050919050565b7f227d2c7b2274726169745f74797065223a2022526f6f6d73222c2276616c756560008201527f223a220000000000000000000000000000000000000000000000000000000000602082015250565b60006137ae60238361334f565b91506137b982613752565b602382019050919050565b7f227d2c7b2274726169745f74797065223a202242617468726f6f6d73222c227660008201527f616c7565223a2200000000000000000000000000000000000000000000000000602082015250565b600061382060278361334f565b915061382b826137c4565b602782019050919050565b7f227d2c7b2274726169745f74797065223a20224c6576656c73222c2276616c7560008201527f65223a2200000000000000000000000000000000000000000000000000000000602082015250565b600061389260248361334f565b915061389d82613836565b602482019050919050565b7f227d2c7b2274726169745f74797065223a20225061726b696e6773222c22766160008201527f6c7565223a220000000000000000000000000000000000000000000000000000602082015250565b600061390460268361334f565b915061390f826138a8565b602682019050919050565b7f227d2c7b2274726169745f74797065223a202259617264222c2276616c75652260008201527f3a22000000000000000000000000000000000000000000000000000000000000602082015250565b600061397660228361334f565b91506139818261391a565b602282019050919050565b7f227d2c7b2274726169745f74797065223a2022506f6f6c222c2276616c75652260008201527f3a22000000000000000000000000000000000000000000000000000000000000602082015250565b60006139e860228361334f565b91506139f38261398c565b602282019050919050565b7f227d2c7b2274726169745f74797065223a20224c6f636174696f6e222c22766160008201527f6c7565223a220000000000000000000000000000000000000000000000000000602082015250565b6000613a5a60268361334f565b9150613a65826139fe565b602682019050919050565b7f227d5d7d00000000000000000000000000000000000000000000000000000000600082015250565b6000613aa660048361334f565b9150613ab182613a70565b600482019050919050565b6000613ac782613383565b9150613ad2826133cf565b9150613add8261341b565b9150613ae8826134d9565b9150613af382613525565b9150613aff828e613548565b9150613b0a8261361a565b9150613b16828d613548565b9150613b218261368c565b9150613b2d828c6136af565b9150613b388261372f565b9150613b44828b6136af565b9150613b4f826137a1565b9150613b5b828a6136af565b9150613b6682613813565b9150613b7282896136af565b9150613b7d82613885565b9150613b8982886136af565b9150613b94826138f7565b9150613ba082876136af565b9150613bab82613969565b9150613bb782866136af565b9150613bc2826139db565b9150613bce82856136af565b9150613bd982613a4d565b9150613be58284613548565b9150613bf082613a99565b91508190509c9b505050505050505050505050565b7f646174613a6170706c69636174696f6e2f6a736f6e3b6261736536342c000000600082015250565b6000613c3b601d8361334f565b9150613c4682613c05565b601d82019050919050565b6000613c5c82613c2e565b9150613c6882846136af565b915081905092915050565b7f4552433732313a207472616e736665722066726f6d20696e636f72726563742060008201527f6f776e6572000000000000000000000000000000000000000000000000000000602082015250565b6000613ccf602583612422565b9150613cda82613c73565b604082019050919050565b60006020820190508181036000830152613cfe81613cc2565b9050919050565b7f4552433732313a207472616e7366657220746f20746865207a65726f2061646460008201527f7265737300000000000000000000000000000000000000000000000000000000602082015250565b6000613d61602483612422565b9150613d6c82613d05565b604082019050919050565b60006020820190508181036000830152613d9081613d54565b9050919050565b7f4e487b7100000000000000000000000000000000000000000000000000000000600052601160045260246000fd5b6000613dd1826124c9565b9150613ddc836124c9565b9250828203905081811115613df457613df3613d97565b5b92915050565b6000613e05826124c9565b9150613e10836124c9565b9250828201905080821115613e2857613e27613d97565b5b92915050565b7f4552433732313a20617070726f766520746f2063616c6c657200000000000000600082015250565b6000613e64601983612422565b9150613e6f82613e2e565b602082019050919050565b60006020820190508181036000830152613e9381613e57565b9050919050565b7f4552433732313a207472616e7366657220746f206e6f6e20455243373231526560008201527f63656976657220696d706c656d656e7465720000000000000000000000000000602082015250565b6000613ef6603283612422565b9150613f0182613e9a565b604082019050919050565b60006020820190508181036000830152613f2581613ee9565b9050919050565b6000613f37826124c9565b91507fffffffffffffffffffffffffffffffffffffffffffffffffffffffffffffffff8203613f6957613f68613d97565b5b600182019050919050565b7f4e487b7100000000000000000000000000000000000000000000000000000000600052601260045260246000fd5b6000613fae826124c9565b9150613fb9836124c9565b925082613fc957613fc8613f74565b5b828204905092915050565b6000613fdf826124c9565b9150613fea836124c9565b925082613ffa57613ff9613f74565b5b828206905092915050565b6000614010826124c9565b915061401b836124c9565b9250828202614029816124c9565b915082820484148315176140405761403f613d97565b5b5092915050565b600081519050919050565b600082825260208201905092915050565b600061406e82614047565b6140788185614052565b9350614088818560208601612433565b6140918161245d565b840191505092915050565b60006080820190506140b1600083018761255e565b6140be602083018661255e565b6140cb60408301856125f4565b81810360608301526140dd8184614063565b905095945050505050565b6000815190506140f781612388565b92915050565b60006020828403121561411357614112612352565b5b6000614121848285016140e8565b91505092915050565b7f4552433732313a206d696e7420746f20746865207a65726f2061646472657373600082015250565b6000614160602083612422565b915061416b8261412a565b602082019050919050565b6000602082019050818103600083015261418f81614153565b9050919050565b7f4552433732313a20746f6b656e20616c7265616479206d696e74656400000000600082015250565b60006141cc601c83612422565b91506141d782614196565b602082019050919050565b600060208201905081810360008301526141fb816141bf565b9050919050565b7f4e487b7100000000000000000000000000000000000000000000000000000000600052603160045260246000fdfe4142434445464748494a4b4c4d4e4f505152535455565758595a6162636465666768696a6b6c6d6e6f707172737475767778797a303132333435363738392b2fa2646970667358221220402687efff9ffdd20084e5818ea94ecab2da55874bf222404321cac45cbfd2a564736f6c63430008110033",
  "linkReferences": {},
  "deployedLinkReferences": {}
}