{
  "_format": "hh-sol-artifact-1",
  "contractName": "Vesta",
  "sourceName": "contracts/Vesta.sol",
  "abi": [
    {
      "inputs": [],
      "stateMutability": "nonpayable",
      "type": "constructor"
    },
    {
      "anonymous": false,
      "inputs": [
        {
          "indexed": true,
          "internalType": "address",
          "name": "owner",
          "type": "address"
        },
        {
          "indexed": true,
          "internalType": "address",
          "name": "approved",
          "type": "address"
        },
        {
          "indexed": true,
          "internalType": "uint256",
          "name": "tokenId",
          "type": "uint256"
        }
      ],
      "name": "Approval",
      "type": "event"
    },
    {
      "anonymous": false,
      "inputs": [
        {
          "indexed": true,
          "internalType": "address",
          "name": "owner",
          "type": "address"
        },
        {
          "indexed": true,
          "internalType": "address",
          "name": "operator",
          "type": "address"
        },
        {
          "indexed": false,
          "internalType": "bool",
          "name": "approved",
          "type": "bool"
        }
      ],
      "name": "ApprovalForAll",
      "type": "event"
    },
    {
      "anonymous": false,
      "inputs": [
        {
          "indexed": true,
          "internalType": "address",
          "name": "from",
          "type": "address"
        },
        {
          "indexed": true,
          "internalType": "address",
          "name": "to",
          "type": "address"
        },
        {
          "indexed": true,
          "internalType": "uint256",
          "name": "tokenId",
          "type": "uint256"
        }
      ],
      "name": "Transfer",
      "type": "event"
    },
    {
      "inputs": [
        {
          "internalType": "address",
          "name": "to",
          "type": "address"
        },
        {
          "internalType": "uint256",
          "name": "tokenId",
          "type": "uint256"
        }
      ],
      "name": "approve",
      "outputs": [],
      "stateMutability": "nonpayable",
      "type": "function"
    },
    {
      "inputs": [
        {
          "internalType": "address",
          "name": "owner",
          "type": "address"
        }
      ],
      "name": "balanceOf",
      "outputs": [
        {
          "internalType": "uint256",
          "name": "",
          "type": "uint256"
        }
      ],
      "stateMutability": "view",
      "type": "function"
    },
    {
      "inputs": [
        {
          "internalType": "bool",
          "name": "_b",
          "type": "bool"
        }
      ],
      "name": "boolToString",
      "outputs": [
        {
          "internalType": "string",
          "name": "",
          "type": "string"
        }
      ],
      "stateMutability": "pure",
      "type": "function"
    },
    {
      "inputs": [
        {
          "internalType": "uint256",
          "name": "tokenId",
          "type": "uint256"
        }
      ],
      "name": "getApproved",
      "outputs": [
        {
          "internalType": "address",
          "name": "",
          "type": "address"
        }
      ],
      "stateMutability": "view",
      "type": "function"
    },
    {
      "inputs": [
        {
          "internalType": "uint256",
          "name": "i",
          "type": "uint256"
        }
      ],
      "name": "get_house",
      "outputs": [
        {
          "internalType": "string",
          "name": "",
          "type": "string"
        },
        {
          "internalType": "string",
          "name": "",
          "type": "string"
        },
        {
          "internalType": "uint256",
          "name": "",
          "type": "uint256"
        },
        {
          "internalType": "uint256",
          "name": "",
          "type": "uint256"
        },
        {
          "internalType": "uint256",
          "name": "",
          "type": "uint256"
        },
        {
          "internalType": "uint256",
          "name": "",
          "type": "uint256"
        },
        {
          "internalType": "uint256",
          "name": "",
          "type": "uint256"
        },
        {
          "internalType": "uint256",
          "name": "",
          "type": "uint256"
        },
        {
          "internalType": "bool",
          "name": "",
          "type": "bool"
        },
        {
          "internalType": "bool",
          "name": "",
          "type": "bool"
        },
        {
          "internalType": "string",
          "name": "",
          "type": "string"
        }
      ],
      "stateMutability": "view",
      "type": "function"
    },
    {
      "inputs": [
        {
          "internalType": "address",
          "name": "owner",
          "type": "address"
        },
        {
          "internalType": "address",
          "name": "operator",
          "type": "address"
        }
      ],
      "name": "isApprovedForAll",
      "outputs": [
        {
          "internalType": "bool",
          "name": "",
          "type": "bool"
        }
      ],
      "stateMutability": "view",
      "type": "function"
    },
    {
      "inputs": [],
      "name": "mint",
      "outputs": [
        {
          "internalType": "uint256",
          "name": "",
          "type": "uint256"
        }
      ],
      "stateMutability": "nonpayable",
      "type": "function"
    },
    {
      "inputs": [],
      "name": "name",
      "outputs": [
        {
          "internalType": "string",
          "name": "",
          "type": "string"
        }
      ],
      "stateMutability": "view",
      "type": "function"
    },
    {
      "inputs": [
        {
          "internalType": "uint256",
          "name": "tokenId",
          "type": "uint256"
        }
      ],
      "name": "ownerOf",
      "outputs": [
        {
          "internalType": "address",
          "name": "",
          "type": "address"
        }
      ],
      "stateMutability": "view",
      "type": "function"
    },
    {
      "inputs": [
        {
          "internalType": "uint256",
          "name": "",
          "type": "uint256"
        }
      ],
      "name": "registered_house",
      "outputs": [
        {
          "internalType": "string",
          "name": "image",
          "type": "string"
        },
        {
          "internalType": "string",
          "name": "typology",
          "type": "string"
        },
        {
          "internalType": "uint256",
          "name": "yearBuilt",
          "type": "uint256"
        },
        {
          "internalType": "uint256",
          "name": "sqm",
          "type": "uint256"
        },
        {
          "internalType": "uint256",
          "name": "rooms",
          "type": "uint256"
        },
        {
          "internalType": "uint256",
          "name": "bathrooms",
          "type": "uint256"
        },
        {
          "internalType": "uint256",
          "name": "levels",
          "type": "uint256"
        },
        {
          "internalType": "uint256",
          "name": "parkings",
          "type": "uint256"
        },
        {
          "internalType": "bool",
          "name": "yard",
          "type": "bool"
        },
        {
          "internalType": "bool",
          "name": "pool",
          "type": "bool"
        },
        {
          "internalType": "string",
          "name": "location",
          "type": "string"
        }
      ],
      "stateMutability": "view",
      "type": "function"
    },
    {
      "inputs": [
        {
          "internalType": "address",
          "name": "from",
          "type": "address"
        },
        {
          "internalType": "address",
          "name": "to",
          "type": "address"
        },
        {
          "internalType": "uint256",
          "name": "tokenId",
          "type": "uint256"
        }
      ],
      "name": "safeTransferFrom",
      "outputs": [],
      "stateMutability": "nonpayable",
      "type": "function"
    },
    {
      "inputs": [
        {
          "internalType": "address",
          "name": "from",
          "type": "address"
        },
        {
          "internalType": "address",
          "name": "to",
          "type": "address"
        },
        {
          "internalType": "uint256",
          "name": "tokenId",
          "type": "uint256"
        },
        {
          "internalType": "bytes",
          "name": "data",
          "type": "bytes"
        }
      ],
      "name": "safeTransferFrom",
      "outputs": [],
      "stateMutability": "nonpayable",
      "type": "function"
    },
    {
      "inputs": [
        {
          "internalType": "address",
          "name": "operator",
          "type": "address"
        },
        {
          "internalType": "bool",
          "name": "approved",
          "type": "bool"
        }
      ],
      "name": "setApprovalForAll",
      "outputs": [],
      "stateMutability": "nonpayable",
      "type": "function"
    },
    {
      "inputs": [
        {
          "internalType": "string",
          "name": "image",
          "type": "string"
        },
        {
          "internalType": "string",
          "name": "typology",
          "type": "string"
        },
        {
          "internalType": "uint256",
          "name": "yearBuilt",
          "type": "uint256"
        },
        {
          "internalType": "uint256",
          "name": "sqm",
          "type": "uint256"
        },
        {
          "internalType": "uint256",
          "name": "rooms",
          "type": "uint256"
        },
        {
          "internalType": "uint256",
          "name": "bathrooms",
          "type": "uint256"
        },
        {
          "internalType": "uint256",
          "name": "levels",
          "type": "uint256"
        },
        {
          "internalType": "uint256",
          "name": "parkings",
          "type": "uint256"
        },
        {
          "internalType": "bool",
          "name": "yard",
          "type": "bool"
        },
        {
          "internalType": "bool",
          "name": "pool",
          "type": "bool"
        },
        {
          "internalType": "string",
          "name": "location",
          "type": "string"
        }
      ],
      "name": "set_house_detail",
      "outputs": [],
      "stateMutability": "nonpayable",
      "type": "function"
    },
    {
      "inputs": [
        {
          "internalType": "bytes4",
          "name": "interfaceId",
          "type": "bytes4"
        }
      ],
      "name": "supportsInterface",
      "outputs": [
        {
          "internalType": "bool",
          "name": "",
          "type": "bool"
        }
      ],
      "stateMutability": "view",
      "type": "function"
    },
    {
      "inputs": [],
      "name": "symbol",
      "outputs": [
        {
          "internalType": "string",
          "name": "",
          "type": "string"
        }
      ],
      "stateMutability": "view",
      "type": "function"
    },
    {
      "inputs": [
        {
          "internalType": "uint256",
          "name": "index",
          "type": "uint256"
        }
      ],
      "name": "tokenByIndex",
      "outputs": [
        {
          "internalType": "uint256",
          "name": "",
          "type": "uint256"
        }
      ],
      "stateMutability": "view",
      "type": "function"
    },
    {
      "inputs": [
        {
          "internalType": "address",
          "name": "owner",
          "type": "address"
        },
        {
          "internalType": "uint256",
          "name": "index",
          "type": "uint256"
        }
      ],
      "name": "tokenOfOwnerByIndex",
      "outputs": [
        {
          "internalType": "uint256",
          "name": "",
          "type": "uint256"
        }
      ],
      "stateMutability": "view",
      "type": "function"
    },
    {
      "inputs": [
        {
          "internalType": "uint256",
          "name": "tokenId",
          "type": "uint256"
        }
      ],
      "name": "tokenURI",
      "outputs": [
        {
          "internalType": "string",
          "name": "",
          "type": "string"
        }
      ],
      "stateMutability": "view",
      "type": "function"
    },
    {
      "inputs": [],
      "name": "totalSupply",
      "outputs": [
        {
          "internalType": "uint256",
          "name": "",
          "type": "uint256"
        }
      ],
      "stateMutability": "view",
      "type": "function"
    },
    {
      "inputs": [
        {
          "internalType": "address",
          "name": "from",
          "type": "address"
        },
        {
          "internalType": "address",
          "name": "to",
          "type": "address"
        },
        {
          "internalType": "uint256",
          "name": "tokenId",
          "type": "uint256"
        }
      ],
      "name": "transferFrom",
      "outputs": [],
      "stateMutability": "nonpayable",
      "type": "function"
    }
  ],
  "bytecode": "0x60806040523480156200001157600080fd5b506040518060400160405280600581526020017f56657374610000000000000000000000000000000000000000000000000000008152506040518060400160405280600181526020017f560000000000000000000000000000000000000000000000000000000000000081525081600090816200008f919062000324565b508060019081620000a1919062000324565b5050506200040b565b600081519050919050565b7f4e487b7100000000000000000000000000000000000000000000000000000000600052604160045260246000fd5b7f4e487b7100000000000000000000000000000000000000000000000000000000600052602260045260246000fd5b600060028204905060018216806200012c57607f821691505b602082108103620001425762000141620000e4565b5b50919050565b60008190508160005260206000209050919050565b60006020601f8301049050919050565b600082821b905092915050565b600060088302620001ac7fffffffffffffffffffffffffffffffffffffffffffffffffffffffffffffffff826200016d565b620001b886836200016d565b95508019841693508086168417925050509392505050565b6000819050919050565b6000819050919050565b600062000205620001ff620001f984620001d0565b620001da565b620001d0565b9050919050565b6000819050919050565b6200022183620001e4565b6200023962000230826200020c565b8484546200017a565b825550505050565b600090565b6200025062000241565b6200025d81848462000216565b505050565b5b8181101562000285576200027960008262000246565b60018101905062000263565b5050565b601f821115620002d4576200029e8162000148565b620002a9846200015d565b81016020851015620002b9578190505b620002d1620002c8856200015d565b83018262000262565b50505b505050565b600082821c905092915050565b6000620002f960001984600802620002d9565b1980831691505092915050565b6000620003148383620002e6565b9150826002028217905092915050565b6200032f82620000aa565b67ffffffffffffffff8111156200034b576200034a620000b5565b5b62000357825462000113565b6200036482828562000289565b600060209050601f8311600181146200039c576000841562000387578287015190505b62000393858262000306565b86555062000403565b601f198416620003ac8662000148565b60005b82811015620003d657848901518255600182019150602085019450602081019050620003af565b86831015620003f65784890151620003f2601f891682620002e6565b8355505b6001600288020188555050505b505050505050565b6144e1806200041b6000396000f3fe608060405234801561001057600080fd5b50600436106101375760003560e01c80634f6ccce7116100b857806395d89b411161007c57806395d89b411461039a578063a22cb465146103b8578063b88d4fde146103d4578063c87b56dd146103f0578063e665919714610420578063e985e9c51461045057610137565b80634f6ccce7146102b45780636352211e146102e457806370a08231146103145780637e06fcc7146103445780638962e6f21461036057610137565b806318160ddd116100ff57806318160ddd146101f457806323b872dd146102125780632f745c591461022e5780633b8593e11461025e57806342842e0e1461029857610137565b806301ffc9a71461013c57806306fdde031461016c578063081812fc1461018a578063095ea7b3146101ba5780631249c58b146101d6575b600080fd5b61015660048036038101906101519190612664565b610480565b60405161016391906126ac565b60405180910390f35b610174610492565b6040516101819190612757565b60405180910390f35b6101a4600480360381019061019f91906127af565b610524565b6040516101b1919061281d565b60405180910390f35b6101d460048036038101906101cf9190612864565b61056a565b005b6101de610681565b6040516101eb91906128b3565b60405180910390f35b6101fc6106ab565b60405161020991906128b3565b60405180910390f35b61022c600480360381019061022791906128ce565b6106b8565b005b61024860048036038101906102439190612864565b610718565b60405161025591906128b3565b60405180910390f35b610278600480360381019061027391906127af565b6107bd565b60405161028f9b9a99989796959493929190612921565b60405180910390f35b6102b260048036038101906102ad91906128ce565b610a0c565b005b6102ce60048036038101906102c991906127af565b610a2c565b6040516102db91906128b3565b60405180910390f35b6102fe60048036038101906102f991906127af565b610a9d565b60405161030b919061281d565b60405180910390f35b61032e600480360381019061032991906129e1565b610b4e565b60405161033b91906128b3565b60405180910390f35b61035e60048036038101906103599190612b6f565b610c05565b005b61037a600480360381019061037591906127af565b610d50565b6040516103919b9a99989796959493929190612921565b60405180910390f35b6103a2610f6c565b6040516103af9190612757565b60405180910390f35b6103d260048036038101906103cd9190612cb7565b610ffe565b005b6103ee60048036038101906103e99190612d98565b611014565b005b61040a600480360381019061040591906127af565b611076565b6040516104179190612757565b60405180910390f35b61043a60048036038101906104359190612e1b565b6111ad565b6040516104479190612757565b60405180910390f35b61046a60048036038101906104659190612e48565b61122d565b60405161047791906126ac565b60405180910390f35b600061048b826112c1565b9050919050565b6060600080546104a190612eb7565b80601f01602080910402602001604051908101604052809291908181526020018280546104cd90612eb7565b801561051a5780601f106104ef5761010080835404028352916020019161051a565b820191906000526020600020905b8154815290600101906020018083116104fd57829003601f168201915b5050505050905090565b600061052f8261133b565b6004600083815260200190815260200160002060009054906101000a900473ffffffffffffffffffffffffffffffffffffffff169050919050565b600061057582610a9d565b90508073ffffffffffffffffffffffffffffffffffffffff168373ffffffffffffffffffffffffffffffffffffffff16036105e5576040517f08c379a00000000000000000000000000000000000000000000000000000000081526004016105dc90612f5a565b60405180910390fd5b8073ffffffffffffffffffffffffffffffffffffffff16610604611386565b73ffffffffffffffffffffffffffffffffffffffff16148061063357506106328161062d611386565b61122d565b5b610672576040517f08c379a000000000000000000000000000000000000000000000000000000000815260040161066990612fec565b60405180910390fd5b61067c838361138e565b505050565b60008061068e600b611447565b905061069a600b611455565b6106a4338261146b565b8091505090565b6000600880549050905090565b6106c96106c3611386565b82611489565b610708576040517f08c379a00000000000000000000000000000000000000000000000000000000081526004016106ff9061307e565b60405180910390fd5b61071383838361151e565b505050565b600061072383610b4e565b8210610764576040517f08c379a000000000000000000000000000000000000000000000000000000000815260040161075b90613110565b60405180910390fd5b600660008473ffffffffffffffffffffffffffffffffffffffff1673ffffffffffffffffffffffffffffffffffffffff168152602001908152602001600020600083815260200190815260200160002054905092915050565b60608060008060008060008060008060606000600a8d815481106107e4576107e3613130565b5b90600052602060002090600a0201905080600001816001018260020154836003015484600401548560050154866006015487600701548860080160009054906101000a900460ff168960080160019054906101000a900460ff168a6009018a805461084e90612eb7565b80601f016020809104026020016040519081016040528092919081815260200182805461087a90612eb7565b80156108c75780601f1061089c576101008083540402835291602001916108c7565b820191906000526020600020905b8154815290600101906020018083116108aa57829003601f168201915b50505050509a508980546108da90612eb7565b80601f016020809104026020016040519081016040528092919081815260200182805461090690612eb7565b80156109535780601f1061092857610100808354040283529160200191610953565b820191906000526020600020905b81548152906001019060200180831161093657829003601f168201915b5050505050995080805461096690612eb7565b80601f016020809104026020016040519081016040528092919081815260200182805461099290612eb7565b80156109df5780601f106109b4576101008083540402835291602001916109df565b820191906000526020600020905b8154815290600101906020018083116109c257829003601f168201915b505050505090509b509b509b509b509b509b509b509b509b509b509b505091939597999b90929496989a50565b610a2783838360405180602001604052806000815250611014565b505050565b6000610a366106ab565b8210610a77576040517f08c379a0000000000000000000000000000000000000000000000000000000008152600401610a6e906131d1565b60405180910390fd5b60088281548110610a8b57610a8a613130565b5b90600052602060002001549050919050565b6000806002600084815260200190815260200160002060009054906101000a900473ffffffffffffffffffffffffffffffffffffffff169050600073ffffffffffffffffffffffffffffffffffffffff168173ffffffffffffffffffffffffffffffffffffffff1603610b45576040517f08c379a0000000000000000000000000000000000000000000000000000000008152600401610b3c9061323d565b60405180910390fd5b80915050919050565b60008073ffffffffffffffffffffffffffffffffffffffff168273ffffffffffffffffffffffffffffffffffffffff1603610bbe576040517f08c379a0000000000000000000000000000000000000000000000000000000008152600401610bb5906132cf565b60405180910390fd5b600360008373ffffffffffffffffffffffffffffffffffffffff1673ffffffffffffffffffffffffffffffffffffffff168152602001908152602001600020549050919050565b600a6040518061016001604052808d81526020018c81526020018b81526020018a8152602001898152602001888152602001878152602001868152602001851515815260200184151581526020018381525090806001815401808255809150506001900390600052602060002090600a02016000909190919091506000820151816000019081610c95919061349b565b506020820151816001019081610cab919061349b565b5060408201518160020155606082015181600301556080820151816004015560a0820151816005015560c0820151816006015560e082015181600701556101008201518160080160006101000a81548160ff0219169083151502179055506101208201518160080160016101000a81548160ff021916908315150217905550610140820151816009019081610d40919061349b565b5050505050505050505050505050565b600a8181548110610d6057600080fd5b90600052602060002090600a0201600091509050806000018054610d8390612eb7565b80601f0160208091040260200160405190810160405280929190818152602001828054610daf90612eb7565b8015610dfc5780601f10610dd157610100808354040283529160200191610dfc565b820191906000526020600020905b815481529060010190602001808311610ddf57829003601f168201915b505050505090806001018054610e1190612eb7565b80601f0160208091040260200160405190810160405280929190818152602001828054610e3d90612eb7565b8015610e8a5780601f10610e5f57610100808354040283529160200191610e8a565b820191906000526020600020905b815481529060010190602001808311610e6d57829003601f168201915b5050505050908060020154908060030154908060040154908060050154908060060154908060070154908060080160009054906101000a900460ff16908060080160019054906101000a900460ff1690806009018054610ee990612eb7565b80601f0160208091040260200160405190810160405280929190818152602001828054610f1590612eb7565b8015610f625780601f10610f3757610100808354040283529160200191610f62565b820191906000526020600020905b815481529060010190602001808311610f4557829003601f168201915b505050505090508b565b606060018054610f7b90612eb7565b80601f0160208091040260200160405190810160405280929190818152602001828054610fa790612eb7565b8015610ff45780601f10610fc957610100808354040283529160200191610ff4565b820191906000526020600020905b815481529060010190602001808311610fd757829003601f168201915b5050505050905090565b611010611009611386565b8383611784565b5050565b61102561101f611386565b83611489565b611064576040517f08c379a000000000000000000000000000000000000000000000000000000000815260040161105b9061307e565b60405180910390fd5b611070848484846118f0565b50505050565b60606110818261194c565b6110c0576040517f08c379a00000000000000000000000000000000000000000000000000000000081526004016110b7906135df565b60405180910390fd5b60008060008060008060008060008060006110da8d6107bd565b9a509a509a509a509a509a509a509a509a509a509a5060006111786110fe8f6119b8565b8d8d6111098e6119b8565b6111128e6119b8565b61111b8e6119b8565b6111248e6119b8565b61112d8e6119b8565b6111368e6119b8565b61113f8e6111ad565b6111488e6111ad565b8d6040516020016111649c9b9a99989796959493929190613ce9565b604051602081830303815290604052611b18565b90508060405160200161118b9190613e8b565b6040516020818303038152906040529c50505050505050505050505050919050565b6060816111ef576040518060400160405280600281526020017f4e6f000000000000000000000000000000000000000000000000000000000000815250611226565b6040518060400160405280600381526020017f59657300000000000000000000000000000000000000000000000000000000008152505b9050919050565b6000600560008473ffffffffffffffffffffffffffffffffffffffff1673ffffffffffffffffffffffffffffffffffffffff16815260200190815260200160002060008373ffffffffffffffffffffffffffffffffffffffff1673ffffffffffffffffffffffffffffffffffffffff16815260200190815260200160002060009054906101000a900460ff16905092915050565b60007f780e9d63000000000000000000000000000000000000000000000000000000007bffffffffffffffffffffffffffffffffffffffffffffffffffffffff1916827bffffffffffffffffffffffffffffffffffffffffffffffffffffffff19161480611334575061133382611c9c565b5b9050919050565b6113448161194c565b611383576040517f08c379a000000000000000000000000000000000000000000000000000000000815260040161137a9061323d565b60405180910390fd5b50565b600033905090565b816004600083815260200190815260200160002060006101000a81548173ffffffffffffffffffffffffffffffffffffffff021916908373ffffffffffffffffffffffffffffffffffffffff160217905550808273ffffffffffffffffffffffffffffffffffffffff1661140183610a9d565b73ffffffffffffffffffffffffffffffffffffffff167f8c5be1e5ebec7d5bd14f71427d1e84f3dd0314c0f7b2291e5b200ac8c7c3b92560405160405180910390a45050565b600081600001549050919050565b6001816000016000828254019250508190555050565b611485828260405180602001604052806000815250611d7e565b5050565b60008061149583610a9d565b90508073ffffffffffffffffffffffffffffffffffffffff168473ffffffffffffffffffffffffffffffffffffffff1614806114d757506114d6818561122d565b5b8061151557508373ffffffffffffffffffffffffffffffffffffffff166114fd84610524565b73ffffffffffffffffffffffffffffffffffffffff16145b91505092915050565b8273ffffffffffffffffffffffffffffffffffffffff1661153e82610a9d565b73ffffffffffffffffffffffffffffffffffffffff1614611594576040517f08c379a000000000000000000000000000000000000000000000000000000000815260040161158b90613f1f565b60405180910390fd5b600073ffffffffffffffffffffffffffffffffffffffff168273ffffffffffffffffffffffffffffffffffffffff1603611603576040517f08c379a00000000000000000000000000000000000000000000000000000000081526004016115fa90613fb1565b60405180910390fd5b61160e838383611dd9565b61161960008261138e565b6001600360008573ffffffffffffffffffffffffffffffffffffffff1673ffffffffffffffffffffffffffffffffffffffff16815260200190815260200160002060008282546116699190614000565b925050819055506001600360008473ffffffffffffffffffffffffffffffffffffffff1673ffffffffffffffffffffffffffffffffffffffff16815260200190815260200160002060008282546116c09190614034565b92505081905550816002600083815260200190815260200160002060006101000a81548173ffffffffffffffffffffffffffffffffffffffff021916908373ffffffffffffffffffffffffffffffffffffffff160217905550808273ffffffffffffffffffffffffffffffffffffffff168473ffffffffffffffffffffffffffffffffffffffff167fddf252ad1be2c89b69c2b068fc378daa952ba7f163c4a11628f55a4df523b3ef60405160405180910390a461177f838383611de9565b505050565b8173ffffffffffffffffffffffffffffffffffffffff168373ffffffffffffffffffffffffffffffffffffffff16036117f2576040517f08c379a00000000000000000000000000000000000000000000000000000000081526004016117e9906140b4565b60405180910390fd5b80600560008573ffffffffffffffffffffffffffffffffffffffff1673ffffffffffffffffffffffffffffffffffffffff16815260200190815260200160002060008473ffffffffffffffffffffffffffffffffffffffff1673ffffffffffffffffffffffffffffffffffffffff16815260200190815260200160002060006101000a81548160ff0219169083151502179055508173ffffffffffffffffffffffffffffffffffffffff168373ffffffffffffffffffffffffffffffffffffffff167f17307eab39ab6107e8899845ad3d59bd9653f200f220920489ca2b5937696c31836040516118e391906126ac565b60405180910390a3505050565b6118fb84848461151e565b61190784848484611dee565b611946576040517f08c379a000000000000000000000000000000000000000000000000000000000815260040161193d90614146565b60405180910390fd5b50505050565b60008073ffffffffffffffffffffffffffffffffffffffff166002600084815260200190815260200160002060009054906101000a900473ffffffffffffffffffffffffffffffffffffffff1673ffffffffffffffffffffffffffffffffffffffff1614159050919050565b6060600082036119ff576040518060400160405280600181526020017f30000000000000000000000000000000000000000000000000000000000000008152509050611b13565b600082905060005b60008214611a31578080611a1a90614166565b915050600a82611a2a91906141dd565b9150611a07565b60008167ffffffffffffffff811115611a4d57611a4c612a18565b5b6040519080825280601f01601f191660200182016040528015611a7f5781602001600182028036833780820191505090505b5090505b60008514611b0c57600182611a989190614000565b9150600a85611aa7919061420e565b6030611ab39190614034565b60f81b818381518110611ac957611ac8613130565b5b60200101907effffffffffffffffffffffffffffffffffffffffffffffffffffffffffffff1916908160001a905350600a85611b0591906141dd565b9450611a83565b8093505050505b919050565b60606000825103611b3a57604051806020016040528060008152509050611c97565b600060405180606001604052806040815260200161446c6040913990506000600360028551611b699190614034565b611b7391906141dd565b6004611b7f919061423f565b90506000602082611b909190614034565b67ffffffffffffffff811115611ba957611ba8612a18565b5b6040519080825280601f01601f191660200182016040528015611bdb5781602001600182028036833780820191505090505b509050818152600183018586518101602084015b81831015611c56576003830192508251603f8160121c1685015160f81b8252600182019150603f81600c1c1685015160f81b8252600182019150603f8160061c1685015160f81b8252600182019150603f811685015160f81b825260018201915050611bef565b600389510660018114611c705760028114611c8057611c8b565b613d3d60f01b6002830352611c8b565b603d60f81b60018303525b50505050508093505050505b919050565b60007f80ac58cd000000000000000000000000000000000000000000000000000000007bffffffffffffffffffffffffffffffffffffffffffffffffffffffff1916827bffffffffffffffffffffffffffffffffffffffffffffffffffffffff19161480611d6757507f5b5e139f000000000000000000000000000000000000000000000000000000007bffffffffffffffffffffffffffffffffffffffffffffffffffffffff1916827bffffffffffffffffffffffffffffffffffffffffffffffffffffffff1916145b80611d775750611d7682611f75565b5b9050919050565b611d888383611fdf565b611d956000848484611dee565b611dd4576040517f08c379a0000000000000000000000000000000000000000000000000000000008152600401611dcb90614146565b60405180910390fd5b505050565b611de48383836121b8565b505050565b505050565b6000611e0f8473ffffffffffffffffffffffffffffffffffffffff166122ca565b15611f68578373ffffffffffffffffffffffffffffffffffffffff1663150b7a02611e38611386565b8786866040518563ffffffff1660e01b8152600401611e5a94939291906142d6565b6020604051808303816000875af1925050508015611e9657506040513d601f19601f82011682018060405250810190611e939190614337565b60015b611f18573d8060008114611ec6576040519150601f19603f3d011682016040523d82523d6000602084013e611ecb565b606091505b506000815103611f10576040517f08c379a0000000000000000000000000000000000000000000000000000000008152600401611f0790614146565b60405180910390fd5b805181602001fd5b63150b7a0260e01b7bffffffffffffffffffffffffffffffffffffffffffffffffffffffff1916817bffffffffffffffffffffffffffffffffffffffffffffffffffffffff191614915050611f6d565b600190505b949350505050565b60007f01ffc9a7000000000000000000000000000000000000000000000000000000007bffffffffffffffffffffffffffffffffffffffffffffffffffffffff1916827bffffffffffffffffffffffffffffffffffffffffffffffffffffffff1916149050919050565b600073ffffffffffffffffffffffffffffffffffffffff168273ffffffffffffffffffffffffffffffffffffffff160361204e576040517f08c379a0000000000000000000000000000000000000000000000000000000008152600401612045906143b0565b60405180910390fd5b6120578161194c565b15612097576040517f08c379a000000000000000000000000000000000000000000000000000000000815260040161208e9061441c565b60405180910390fd5b6120a360008383611dd9565b6001600360008473ffffffffffffffffffffffffffffffffffffffff1673ffffffffffffffffffffffffffffffffffffffff16815260200190815260200160002060008282546120f39190614034565b92505081905550816002600083815260200190815260200160002060006101000a81548173ffffffffffffffffffffffffffffffffffffffff021916908373ffffffffffffffffffffffffffffffffffffffff160217905550808273ffffffffffffffffffffffffffffffffffffffff16600073ffffffffffffffffffffffffffffffffffffffff167fddf252ad1be2c89b69c2b068fc378daa952ba7f163c4a11628f55a4df523b3ef60405160405180910390a46121b460008383611de9565b5050565b6121c38383836122ed565b600073ffffffffffffffffffffffffffffffffffffffff168373ffffffffffffffffffffffffffffffffffffffff160361220557612200816122f2565b612244565b8173ffffffffffffffffffffffffffffffffffffffff168373ffffffffffffffffffffffffffffffffffffffff161461224357612242838261233b565b5b5b600073ffffffffffffffffffffffffffffffffffffffff168273ffffffffffffffffffffffffffffffffffffffff160361228657612281816124a8565b6122c5565b8273ffffffffffffffffffffffffffffffffffffffff168273ffffffffffffffffffffffffffffffffffffffff16146122c4576122c38282612579565b5b5b505050565b6000808273ffffffffffffffffffffffffffffffffffffffff163b119050919050565b505050565b6008805490506009600083815260200190815260200160002081905550600881908060018154018082558091505060019003906000526020600020016000909190919091505550565b6000600161234884610b4e565b6123529190614000565b9050600060076000848152602001908152602001600020549050818114612437576000600660008673ffffffffffffffffffffffffffffffffffffffff1673ffffffffffffffffffffffffffffffffffffffff168152602001908152602001600020600084815260200190815260200160002054905080600660008773ffffffffffffffffffffffffffffffffffffffff1673ffffffffffffffffffffffffffffffffffffffff168152602001908152602001600020600084815260200190815260200160002081905550816007600083815260200190815260200160002081905550505b6007600084815260200190815260200160002060009055600660008573ffffffffffffffffffffffffffffffffffffffff1673ffffffffffffffffffffffffffffffffffffffff16815260200190815260200160002060008381526020019081526020016000206000905550505050565b600060016008805490506124bc9190614000565b90506000600960008481526020019081526020016000205490506000600883815481106124ec576124eb613130565b5b90600052602060002001549050806008838154811061250e5761250d613130565b5b90600052602060002001819055508160096000838152602001908152602001600020819055506009600085815260200190815260200160002060009055600880548061255d5761255c61443c565b5b6001900381819060005260206000200160009055905550505050565b600061258483610b4e565b905081600660008573ffffffffffffffffffffffffffffffffffffffff1673ffffffffffffffffffffffffffffffffffffffff168152602001908152602001600020600083815260200190815260200160002081905550806007600084815260200190815260200160002081905550505050565b6000604051905090565b600080fd5b600080fd5b60007fffffffff0000000000000000000000000000000000000000000000000000000082169050919050565b6126418161260c565b811461264c57600080fd5b50565b60008135905061265e81612638565b92915050565b60006020828403121561267a57612679612602565b5b60006126888482850161264f565b91505092915050565b60008115159050919050565b6126a681612691565b82525050565b60006020820190506126c1600083018461269d565b92915050565b600081519050919050565b600082825260208201905092915050565b60005b838110156127015780820151818401526020810190506126e6565b60008484015250505050565b6000601f19601f8301169050919050565b6000612729826126c7565b61273381856126d2565b93506127438185602086016126e3565b61274c8161270d565b840191505092915050565b60006020820190508181036000830152612771818461271e565b905092915050565b6000819050919050565b61278c81612779565b811461279757600080fd5b50565b6000813590506127a981612783565b92915050565b6000602082840312156127c5576127c4612602565b5b60006127d38482850161279a565b91505092915050565b600073ffffffffffffffffffffffffffffffffffffffff82169050919050565b6000612807826127dc565b9050919050565b612817816127fc565b82525050565b6000602082019050612832600083018461280e565b92915050565b612841816127fc565b811461284c57600080fd5b50565b60008135905061285e81612838565b92915050565b6000806040838503121561287b5761287a612602565b5b60006128898582860161284f565b925050602061289a8582860161279a565b9150509250929050565b6128ad81612779565b82525050565b60006020820190506128c860008301846128a4565b92915050565b6000806000606084860312156128e7576128e6612602565b5b60006128f58682870161284f565b93505060206129068682870161284f565b92505060406129178682870161279a565b9150509250925092565b600061016082019050818103600083015261293c818e61271e565b90508181036020830152612950818d61271e565b905061295f604083018c6128a4565b61296c606083018b6128a4565b612979608083018a6128a4565b61298660a08301896128a4565b61299360c08301886128a4565b6129a060e08301876128a4565b6129ae61010083018661269d565b6129bc61012083018561269d565b8181036101408301526129cf818461271e565b90509c9b505050505050505050505050565b6000602082840312156129f7576129f6612602565b5b6000612a058482850161284f565b91505092915050565b600080fd5b600080fd5b7f4e487b7100000000000000000000000000000000000000000000000000000000600052604160045260246000fd5b612a508261270d565b810181811067ffffffffffffffff82111715612a6f57612a6e612a18565b5b80604052505050565b6000612a826125f8565b9050612a8e8282612a47565b919050565b600067ffffffffffffffff821115612aae57612aad612a18565b5b612ab78261270d565b9050602081019050919050565b82818337600083830152505050565b6000612ae6612ae184612a93565b612a78565b905082815260208101848484011115612b0257612b01612a13565b5b612b0d848285612ac4565b509392505050565b600082601f830112612b2a57612b29612a0e565b5b8135612b3a848260208601612ad3565b91505092915050565b612b4c81612691565b8114612b5757600080fd5b50565b600081359050612b6981612b43565b92915050565b60008060008060008060008060008060006101608c8e031215612b9557612b94612602565b5b60008c013567ffffffffffffffff811115612bb357612bb2612607565b5b612bbf8e828f01612b15565b9b505060208c013567ffffffffffffffff811115612be057612bdf612607565b5b612bec8e828f01612b15565b9a50506040612bfd8e828f0161279a565b9950506060612c0e8e828f0161279a565b9850506080612c1f8e828f0161279a565b97505060a0612c308e828f0161279a565b96505060c0612c418e828f0161279a565b95505060e0612c528e828f0161279a565b945050610100612c648e828f01612b5a565b935050610120612c768e828f01612b5a565b9250506101408c013567ffffffffffffffff811115612c9857612c97612607565b5b612ca48e828f01612b15565b9150509295989b509295989b9093969950565b60008060408385031215612cce57612ccd612602565b5b6000612cdc8582860161284f565b9250506020612ced85828601612b5a565b9150509250929050565b600067ffffffffffffffff821115612d1257612d11612a18565b5b612d1b8261270d565b9050602081019050919050565b6000612d3b612d3684612cf7565b612a78565b905082815260208101848484011115612d5757612d56612a13565b5b612d62848285612ac4565b509392505050565b600082601f830112612d7f57612d7e612a0e565b5b8135612d8f848260208601612d28565b91505092915050565b60008060008060808587031215612db257612db1612602565b5b6000612dc08782880161284f565b9450506020612dd18782880161284f565b9350506040612de28782880161279a565b925050606085013567ffffffffffffffff811115612e0357612e02612607565b5b612e0f87828801612d6a565b91505092959194509250565b600060208284031215612e3157612e30612602565b5b6000612e3f84828501612b5a565b91505092915050565b60008060408385031215612e5f57612e5e612602565b5b6000612e6d8582860161284f565b9250506020612e7e8582860161284f565b9150509250929050565b7f4e487b7100000000000000000000000000000000000000000000000000000000600052602260045260246000fd5b60006002820490506001821680612ecf57607f821691505b602082108103612ee257612ee1612e88565b5b50919050565b7f4552433732313a20617070726f76616c20746f2063757272656e74206f776e6560008201527f7200000000000000000000000000000000000000000000000000000000000000602082015250565b6000612f446021836126d2565b9150612f4f82612ee8565b604082019050919050565b60006020820190508181036000830152612f7381612f37565b9050919050565b7f4552433732313a20617070726f76652063616c6c6572206973206e6f7420746f60008201527f6b656e206f776e6572206e6f7220617070726f76656420666f7220616c6c0000602082015250565b6000612fd6603e836126d2565b9150612fe182612f7a565b604082019050919050565b6000602082019050818103600083015261300581612fc9565b9050919050565b7f4552433732313a2063616c6c6572206973206e6f7420746f6b656e206f776e6560008201527f72206e6f7220617070726f766564000000000000000000000000000000000000602082015250565b6000613068602e836126d2565b91506130738261300c565b604082019050919050565b600060208201905081810360008301526130978161305b565b9050919050565b7f455243373231456e756d657261626c653a206f776e657220696e646578206f7560008201527f74206f6620626f756e6473000000000000000000000000000000000000000000602082015250565b60006130fa602b836126d2565b91506131058261309e565b604082019050919050565b60006020820190508181036000830152613129816130ed565b9050919050565b7f4e487b7100000000000000000000000000000000000000000000000000000000600052603260045260246000fd5b7f455243373231456e756d657261626c653a20676c6f62616c20696e646578206f60008201527f7574206f6620626f756e64730000000000000000000000000000000000000000602082015250565b60006131bb602c836126d2565b91506131c68261315f565b604082019050919050565b600060208201905081810360008301526131ea816131ae565b9050919050565b7f4552433732313a20696e76616c696420746f6b656e2049440000000000000000600082015250565b60006132276018836126d2565b9150613232826131f1565b602082019050919050565b600060208201905081810360008301526132568161321a565b9050919050565b7f4552433732313a2061646472657373207a65726f206973206e6f74206120766160008201527f6c6964206f776e65720000000000000000000000000000000000000000000000602082015250565b60006132b96029836126d2565b91506132c48261325d565b604082019050919050565b600060208201905081810360008301526132e8816132ac565b9050919050565b60008190508160005260206000209050919050565b60006020601f8301049050919050565b600082821b905092915050565b6000600883026133517fffffffffffffffffffffffffffffffffffffffffffffffffffffffffffffffff82613314565b61335b8683613314565b95508019841693508086168417925050509392505050565b6000819050919050565b600061339861339361338e84612779565b613373565b612779565b9050919050565b6000819050919050565b6133b28361337d565b6133c66133be8261339f565b848454613321565b825550505050565b600090565b6133db6133ce565b6133e68184846133a9565b505050565b5b8181101561340a576133ff6000826133d3565b6001810190506133ec565b5050565b601f82111561344f57613420816132ef565b61342984613304565b81016020851015613438578190505b61344c61344485613304565b8301826133eb565b50505b505050565b600082821c905092915050565b600061347260001984600802613454565b1980831691505092915050565b600061348b8383613461565b9150826002028217905092915050565b6134a4826126c7565b67ffffffffffffffff8111156134bd576134bc612a18565b5b6134c78254612eb7565b6134d282828561340e565b600060209050601f83116001811461350557600084156134f3578287015190505b6134fd858261347f565b865550613565565b601f198416613513866132ef565b60005b8281101561353b57848901518255600182019150602085019450602081019050613516565b868310156135585784890151613554601f891682613461565b8355505b6001600288020188555050505b505050505050565b7f455243373231204d657461646174613a2055524920717565727920666f72206e60008201527f6f6e6578697374656e7420746f6b656e00000000000000000000000000000000602082015250565b60006135c96030836126d2565b91506135d48261356d565b604082019050919050565b600060208201905081810360008301526135f8816135bc565b9050919050565b600081905092915050565b7f7b226e616d65223a220000000000000000000000000000000000000000000000600082015250565b60006136406009836135ff565b915061364b8261360a565b600982019050919050565b7f5665737461202300000000000000000000000000000000000000000000000000600082015250565b600061368c6007836135ff565b915061369782613656565b600782019050919050565b60006136ad826126c7565b6136b781856135ff565b93506136c78185602086016126e3565b80840191505092915050565b7f222c226465736372697074696f6e223a22000000000000000000000000000000600082015250565b60006137096011836135ff565b9150613714826136d3565b601182019050919050565b7f566573746120697320612070726f706572747920746f6b656e697a6174696f6e60008201527f20706c6174666f726d2c20726570726573656e746564206173204e465473207460208201527f686174206c697665206f6e2074686520626c6f636b636861696e20666f72206560408201527f617379207472616e73666572206f66206f776e6572736869702e000000000000606082015250565b60006137c7607a836135ff565b91506137d28261371f565b607a82019050919050565b7f222c22696d616765223a22000000000000000000000000000000000000000000600082015250565b6000613813600b836135ff565b915061381e826137dd565b600b82019050919050565b7f222c2261747472696275746573223a5b7b2274726169745f74797065223a225460008201527f79706f6c6f6779222c2276616c7565223a220000000000000000000000000000602082015250565b60006138856032836135ff565b915061389082613829565b603282019050919050565b7f227d2c7b2274726169745f74797065223a202259656172206275696c74222c2260008201527f76616c7565223a22000000000000000000000000000000000000000000000000602082015250565b60006138f76028836135ff565b91506139028261389b565b602882019050919050565b7f227d2c7b2274726169745f74797065223a2022537175617265206d657465727360008201527f222c2276616c7565223a22000000000000000000000000000000000000000000602082015250565b6000613969602b836135ff565b91506139748261390d565b602b82019050919050565b7f227d2c7b2274726169745f74797065223a2022526f6f6d73222c2276616c756560008201527f223a220000000000000000000000000000000000000000000000000000000000602082015250565b60006139db6023836135ff565b91506139e68261397f565b602382019050919050565b7f227d2c7b2274726169745f74797065223a202242617468726f6f6d73222c227660008201527f616c7565223a2200000000000000000000000000000000000000000000000000602082015250565b6000613a4d6027836135ff565b9150613a58826139f1565b602782019050919050565b7f227d2c7b2274726169745f74797065223a20224c6576656c73222c2276616c7560008201527f65223a2200000000000000000000000000000000000000000000000000000000602082015250565b6000613abf6024836135ff565b9150613aca82613a63565b602482019050919050565b7f227d2c7b2274726169745f74797065223a20225061726b696e6773222c22766160008201527f6c7565223a220000000000000000000000000000000000000000000000000000602082015250565b6000613b316026836135ff565b9150613b3c82613ad5565b602682019050919050565b7f227d2c7b2274726169745f74797065223a202259617264222c2276616c75652260008201527f3a22000000000000000000000000000000000000000000000000000000000000602082015250565b6000613ba36022836135ff565b9150613bae82613b47565b602282019050919050565b7f227d2c7b2274726169745f74797065223a2022506f6f6c222c2276616c75652260008201527f3a22000000000000000000000000000000000000000000000000000000000000602082015250565b6000613c156022836135ff565b9150613c2082613bb9565b602282019050919050565b7f227d2c7b2274726169745f74797065223a20224c6f636174696f6e222c22766160008201527f6c7565223a220000000000000000000000000000000000000000000000000000602082015250565b6000613c876026836135ff565b9150613c9282613c2b565b602682019050919050565b7f227d5d7d00000000000000000000000000000000000000000000000000000000600082015250565b6000613cd36004836135ff565b9150613cde82613c9d565b600482019050919050565b6000613cf482613633565b9150613cff8261367f565b9150613d0b828f6136a2565b9150613d16826136fc565b9150613d21826137ba565b9150613d2c82613806565b9150613d38828e6136a2565b9150613d4382613878565b9150613d4f828d6136a2565b9150613d5a826138ea565b9150613d66828c6136a2565b9150613d718261395c565b9150613d7d828b6136a2565b9150613d88826139ce565b9150613d94828a6136a2565b9150613d9f82613a40565b9150613dab82896136a2565b9150613db682613ab2565b9150613dc282886136a2565b9150613dcd82613b24565b9150613dd982876136a2565b9150613de482613b96565b9150613df082866136a2565b9150613dfb82613c08565b9150613e0782856136a2565b9150613e1282613c7a565b9150613e1e82846136a2565b9150613e2982613cc6565b91508190509d9c50505050505050505050505050565b7f646174613a6170706c69636174696f6e2f6a736f6e3b6261736536342c000000600082015250565b6000613e75601d836135ff565b9150613e8082613e3f565b601d82019050919050565b6000613e9682613e68565b9150613ea282846136a2565b915081905092915050565b7f4552433732313a207472616e736665722066726f6d20696e636f72726563742060008201527f6f776e6572000000000000000000000000000000000000000000000000000000602082015250565b6000613f096025836126d2565b9150613f1482613ead565b604082019050919050565b60006020820190508181036000830152613f3881613efc565b9050919050565b7f4552433732313a207472616e7366657220746f20746865207a65726f2061646460008201527f7265737300000000000000000000000000000000000000000000000000000000602082015250565b6000613f9b6024836126d2565b9150613fa682613f3f565b604082019050919050565b60006020820190508181036000830152613fca81613f8e565b9050919050565b7f4e487b7100000000000000000000000000000000000000000000000000000000600052601160045260246000fd5b600061400b82612779565b915061401683612779565b925082820390508181111561402e5761402d613fd1565b5b92915050565b600061403f82612779565b915061404a83612779565b925082820190508082111561406257614061613fd1565b5b92915050565b7f4552433732313a20617070726f766520746f2063616c6c657200000000000000600082015250565b600061409e6019836126d2565b91506140a982614068565b602082019050919050565b600060208201905081810360008301526140cd81614091565b9050919050565b7f4552433732313a207472616e7366657220746f206e6f6e20455243373231526560008201527f63656976657220696d706c656d656e7465720000000000000000000000000000602082015250565b60006141306032836126d2565b915061413b826140d4565b604082019050919050565b6000602082019050818103600083015261415f81614123565b9050919050565b600061417182612779565b91507fffffffffffffffffffffffffffffffffffffffffffffffffffffffffffffffff82036141a3576141a2613fd1565b5b600182019050919050565b7f4e487b7100000000000000000000000000000000000000000000000000000000600052601260045260246000fd5b60006141e882612779565b91506141f383612779565b925082614203576142026141ae565b5b828204905092915050565b600061421982612779565b915061422483612779565b925082614234576142336141ae565b5b828206905092915050565b600061424a82612779565b915061425583612779565b925082820261426381612779565b9150828204841483151761427a57614279613fd1565b5b5092915050565b600081519050919050565b600082825260208201905092915050565b60006142a882614281565b6142b2818561428c565b93506142c28185602086016126e3565b6142cb8161270d565b840191505092915050565b60006080820190506142eb600083018761280e565b6142f8602083018661280e565b61430560408301856128a4565b8181036060830152614317818461429d565b905095945050505050565b60008151905061433181612638565b92915050565b60006020828403121561434d5761434c612602565b5b600061435b84828501614322565b91505092915050565b7f4552433732313a206d696e7420746f20746865207a65726f2061646472657373600082015250565b600061439a6020836126d2565b91506143a582614364565b602082019050919050565b600060208201905081810360008301526143c98161438d565b9050919050565b7f4552433732313a20746f6b656e20616c7265616479206d696e74656400000000600082015250565b6000614406601c836126d2565b9150614411826143d0565b602082019050919050565b60006020820190508181036000830152614435816143f9565b9050919050565b7f4e487b7100000000000000000000000000000000000000000000000000000000600052603160045260246000fdfe4142434445464748494a4b4c4d4e4f505152535455565758595a6162636465666768696a6b6c6d6e6f707172737475767778797a303132333435363738392b2fa26469706673582212200f4ed5aaedd3b7903aebd526a07291dc0ac1b52b88112ce849da0f8c6cae5fcf64736f6c63430008110033",
  "linkReferences": {},
  "deployedLinkReferences": {}
}