{
  "_format": "hh-sol-artifact-1",
  "contractName": "Vesta",
  "sourceName": "contracts/Vesta.sol",
  "abi": [
    {
      "inputs": [],
      "stateMutability": "nonpayable",
      "type": "constructor"
    },
    {
      "anonymous": false,
      "inputs": [
        {
          "indexed": true,
          "internalType": "address",
          "name": "owner",
          "type": "address"
        },
        {
          "indexed": true,
          "internalType": "address",
          "name": "approved",
          "type": "address"
        },
        {
          "indexed": true,
          "internalType": "uint256",
          "name": "tokenId",
          "type": "uint256"
        }
      ],
      "name": "Approval",
      "type": "event"
    },
    {
      "anonymous": false,
      "inputs": [
        {
          "indexed": true,
          "internalType": "address",
          "name": "owner",
          "type": "address"
        },
        {
          "indexed": true,
          "internalType": "address",
          "name": "operator",
          "type": "address"
        },
        {
          "indexed": false,
          "internalType": "bool",
          "name": "approved",
          "type": "bool"
        }
      ],
      "name": "ApprovalForAll",
      "type": "event"
    },
    {
      "anonymous": false,
      "inputs": [
        {
          "indexed": true,
          "internalType": "address",
          "name": "from",
          "type": "address"
        },
        {
          "indexed": true,
          "internalType": "address",
          "name": "to",
          "type": "address"
        },
        {
          "indexed": true,
          "internalType": "uint256",
          "name": "tokenId",
          "type": "uint256"
        }
      ],
      "name": "Transfer",
      "type": "event"
    },
    {
      "inputs": [
        {
          "internalType": "address",
          "name": "to",
          "type": "address"
        },
        {
          "internalType": "uint256",
          "name": "tokenId",
          "type": "uint256"
        }
      ],
      "name": "approve",
      "outputs": [],
      "stateMutability": "nonpayable",
      "type": "function"
    },
    {
      "inputs": [
        {
          "internalType": "address",
          "name": "owner",
          "type": "address"
        }
      ],
      "name": "balanceOf",
      "outputs": [
        {
          "internalType": "uint256",
          "name": "",
          "type": "uint256"
        }
      ],
      "stateMutability": "view",
      "type": "function"
    },
    {
      "inputs": [
        {
          "internalType": "bool",
          "name": "_b",
          "type": "bool"
        }
      ],
      "name": "boolToString",
      "outputs": [
        {
          "internalType": "string",
          "name": "",
          "type": "string"
        }
      ],
      "stateMutability": "pure",
      "type": "function"
    },
    {
      "inputs": [
        {
          "internalType": "uint256",
          "name": "tokenId",
          "type": "uint256"
        }
      ],
      "name": "getApproved",
      "outputs": [
        {
          "internalType": "address",
          "name": "",
          "type": "address"
        }
      ],
      "stateMutability": "view",
      "type": "function"
    },
    {
      "inputs": [],
      "name": "get_house_info",
      "outputs": [
        {
          "internalType": "string",
          "name": "",
          "type": "string"
        },
        {
          "internalType": "string",
          "name": "",
          "type": "string"
        },
        {
          "internalType": "uint256",
          "name": "",
          "type": "uint256"
        },
        {
          "internalType": "uint256",
          "name": "",
          "type": "uint256"
        },
        {
          "internalType": "uint256",
          "name": "",
          "type": "uint256"
        },
        {
          "internalType": "uint256",
          "name": "",
          "type": "uint256"
        },
        {
          "internalType": "uint256",
          "name": "",
          "type": "uint256"
        },
        {
          "internalType": "uint256",
          "name": "",
          "type": "uint256"
        },
        {
          "internalType": "bool",
          "name": "",
          "type": "bool"
        },
        {
          "internalType": "bool",
          "name": "",
          "type": "bool"
        },
        {
          "internalType": "string",
          "name": "",
          "type": "string"
        }
      ],
      "stateMutability": "view",
      "type": "function"
    },
    {
      "inputs": [
        {
          "internalType": "address",
          "name": "owner",
          "type": "address"
        },
        {
          "internalType": "address",
          "name": "operator",
          "type": "address"
        }
      ],
      "name": "isApprovedForAll",
      "outputs": [
        {
          "internalType": "bool",
          "name": "",
          "type": "bool"
        }
      ],
      "stateMutability": "view",
      "type": "function"
    },
    {
      "inputs": [],
      "name": "mint",
      "outputs": [],
      "stateMutability": "nonpayable",
      "type": "function"
    },
    {
      "inputs": [],
      "name": "name",
      "outputs": [
        {
          "internalType": "string",
          "name": "",
          "type": "string"
        }
      ],
      "stateMutability": "view",
      "type": "function"
    },
    {
      "inputs": [
        {
          "internalType": "uint256",
          "name": "tokenId",
          "type": "uint256"
        }
      ],
      "name": "ownerOf",
      "outputs": [
        {
          "internalType": "address",
          "name": "",
          "type": "address"
        }
      ],
      "stateMutability": "view",
      "type": "function"
    },
    {
      "inputs": [
        {
          "internalType": "address",
          "name": "from",
          "type": "address"
        },
        {
          "internalType": "address",
          "name": "to",
          "type": "address"
        },
        {
          "internalType": "uint256",
          "name": "tokenId",
          "type": "uint256"
        }
      ],
      "name": "safeTransferFrom",
      "outputs": [],
      "stateMutability": "nonpayable",
      "type": "function"
    },
    {
      "inputs": [
        {
          "internalType": "address",
          "name": "from",
          "type": "address"
        },
        {
          "internalType": "address",
          "name": "to",
          "type": "address"
        },
        {
          "internalType": "uint256",
          "name": "tokenId",
          "type": "uint256"
        },
        {
          "internalType": "bytes",
          "name": "data",
          "type": "bytes"
        }
      ],
      "name": "safeTransferFrom",
      "outputs": [],
      "stateMutability": "nonpayable",
      "type": "function"
    },
    {
      "inputs": [
        {
          "internalType": "address",
          "name": "operator",
          "type": "address"
        },
        {
          "internalType": "bool",
          "name": "approved",
          "type": "bool"
        }
      ],
      "name": "setApprovalForAll",
      "outputs": [],
      "stateMutability": "nonpayable",
      "type": "function"
    },
    {
      "inputs": [
        {
          "internalType": "string",
          "name": "image",
          "type": "string"
        },
        {
          "internalType": "string",
          "name": "typology",
          "type": "string"
        },
        {
          "internalType": "uint256",
          "name": "yearBuilt",
          "type": "uint256"
        },
        {
          "internalType": "uint256",
          "name": "sqm",
          "type": "uint256"
        },
        {
          "internalType": "uint256",
          "name": "rooms",
          "type": "uint256"
        },
        {
          "internalType": "uint256",
          "name": "bathrooms",
          "type": "uint256"
        },
        {
          "internalType": "uint256",
          "name": "levels",
          "type": "uint256"
        },
        {
          "internalType": "uint256",
          "name": "parkings",
          "type": "uint256"
        },
        {
          "internalType": "bool",
          "name": "yard",
          "type": "bool"
        },
        {
          "internalType": "bool",
          "name": "pool",
          "type": "bool"
        },
        {
          "internalType": "string",
          "name": "location",
          "type": "string"
        }
      ],
      "name": "set_house_detail",
      "outputs": [],
      "stateMutability": "nonpayable",
      "type": "function"
    },
    {
      "inputs": [
        {
          "internalType": "bytes4",
          "name": "interfaceId",
          "type": "bytes4"
        }
      ],
      "name": "supportsInterface",
      "outputs": [
        {
          "internalType": "bool",
          "name": "",
          "type": "bool"
        }
      ],
      "stateMutability": "view",
      "type": "function"
    },
    {
      "inputs": [],
      "name": "symbol",
      "outputs": [
        {
          "internalType": "string",
          "name": "",
          "type": "string"
        }
      ],
      "stateMutability": "view",
      "type": "function"
    },
    {
      "inputs": [
        {
          "internalType": "uint256",
          "name": "index",
          "type": "uint256"
        }
      ],
      "name": "tokenByIndex",
      "outputs": [
        {
          "internalType": "uint256",
          "name": "",
          "type": "uint256"
        }
      ],
      "stateMutability": "view",
      "type": "function"
    },
    {
      "inputs": [
        {
          "internalType": "address",
          "name": "owner",
          "type": "address"
        },
        {
          "internalType": "uint256",
          "name": "index",
          "type": "uint256"
        }
      ],
      "name": "tokenOfOwnerByIndex",
      "outputs": [
        {
          "internalType": "uint256",
          "name": "",
          "type": "uint256"
        }
      ],
      "stateMutability": "view",
      "type": "function"
    },
    {
      "inputs": [
        {
          "internalType": "uint256",
          "name": "tokenId",
          "type": "uint256"
        }
      ],
      "name": "tokenURI",
      "outputs": [
        {
          "internalType": "string",
          "name": "",
          "type": "string"
        }
      ],
      "stateMutability": "view",
      "type": "function"
    },
    {
      "inputs": [],
      "name": "totalSupply",
      "outputs": [
        {
          "internalType": "uint256",
          "name": "",
          "type": "uint256"
        }
      ],
      "stateMutability": "view",
      "type": "function"
    },
    {
      "inputs": [
        {
          "internalType": "address",
          "name": "from",
          "type": "address"
        },
        {
          "internalType": "address",
          "name": "to",
          "type": "address"
        },
        {
          "internalType": "uint256",
          "name": "tokenId",
          "type": "uint256"
        }
      ],
      "name": "transferFrom",
      "outputs": [],
      "stateMutability": "nonpayable",
      "type": "function"
    }
  ],
  "bytecode": "0x60806040523480156200001157600080fd5b506040518060400160405280600581526020017f56657374610000000000000000000000000000000000000000000000000000008152506040518060400160405280600181526020017f560000000000000000000000000000000000000000000000000000000000000081525081600090816200008f919062000324565b508060019081620000a1919062000324565b5050506200040b565b600081519050919050565b7f4e487b7100000000000000000000000000000000000000000000000000000000600052604160045260246000fd5b7f4e487b7100000000000000000000000000000000000000000000000000000000600052602260045260246000fd5b600060028204905060018216806200012c57607f821691505b602082108103620001425762000141620000e4565b5b50919050565b60008190508160005260206000209050919050565b60006020601f8301049050919050565b600082821b905092915050565b600060088302620001ac7fffffffffffffffffffffffffffffffffffffffffffffffffffffffffffffffff826200016d565b620001b886836200016d565b95508019841693508086168417925050509392505050565b6000819050919050565b6000819050919050565b600062000205620001ff620001f984620001d0565b620001da565b620001d0565b9050919050565b6000819050919050565b6200022183620001e4565b6200023962000230826200020c565b8484546200017a565b825550505050565b600090565b6200025062000241565b6200025d81848462000216565b505050565b5b8181101562000285576200027960008262000246565b60018101905062000263565b5050565b601f821115620002d4576200029e8162000148565b620002a9846200015d565b81016020851015620002b9578190505b620002d1620002c8856200015d565b83018262000262565b50505b505050565b600082821c905092915050565b6000620002f960001984600802620002d9565b1980831691505092915050565b6000620003148383620002e6565b9150826002028217905092915050565b6200032f82620000aa565b67ffffffffffffffff8111156200034b576200034a620000b5565b5b62000357825462000113565b6200036482828562000289565b600060209050601f8311600181146200039c576000841562000387578287015190505b62000393858262000306565b86555062000403565b601f198416620003ac8662000148565b60005b82811015620003d657848901518255600182019150602085019450602081019050620003af565b86831015620003f65784890151620003f2601f891682620002e6565b8355505b6001600288020188555050505b505050505050565b61428e806200041b6000396000f3fe608060405234801561001057600080fd5b506004361061012c5760003560e01c80634f6ccce7116100ad578063a22cb46511610071578063a22cb4651461034d578063b88d4fde14610369578063c87b56dd14610385578063e6659197146103b5578063e985e9c5146103e55761012c565b80634f6ccce7146102835780636352211e146102b357806370a08231146102e35780637e06fcc71461031357806395d89b411461032f5761012c565b806318160ddd116100f457806318160ddd146101d557806323b872dd146101f35780632f745c591461020f5780633ab32f9c1461023f57806342842e0e146102675761012c565b806301ffc9a71461013157806306fdde0314610161578063081812fc1461017f578063095ea7b3146101af5780631249c58b146101cb575b600080fd5b61014b6004803603810190610146919061239b565b610415565b60405161015891906123e3565b60405180910390f35b610169610427565b604051610176919061248e565b60405180910390f35b610199600480360381019061019491906124e6565b6104b9565b6040516101a69190612554565b60405180910390f35b6101c960048036038101906101c4919061259b565b6104ff565b005b6101d3610616565b005b6101dd61063b565b6040516101ea91906125ea565b60405180910390f35b61020d60048036038101906102089190612605565b610648565b005b6102296004803603810190610224919061259b565b6106a8565b60405161023691906125ea565b60405180910390f35b61024761074d565b60405161025e9b9a99989796959493929190612658565b60405180910390f35b610281600480360381019061027c9190612605565b61097e565b005b61029d600480360381019061029891906124e6565b61099e565b6040516102aa91906125ea565b60405180910390f35b6102cd60048036038101906102c891906124e6565b610a0f565b6040516102da9190612554565b60405180910390f35b6102fd60048036038101906102f89190612718565b610ac0565b60405161030a91906125ea565b60405180910390f35b61032d600480360381019061032891906128a6565b610b77565b005b610337610c9a565b604051610344919061248e565b60405180910390f35b610367600480360381019061036291906129ee565b610d2c565b005b610383600480360381019061037e9190612acf565b610d42565b005b61039f600480360381019061039a91906124e6565b610da4565b6040516103ac919061248e565b60405180910390f35b6103cf60048036038101906103ca9190612b52565b610ee4565b6040516103dc919061248e565b60405180910390f35b6103ff60048036038101906103fa9190612b7f565b610f64565b60405161040c91906123e3565b60405180910390f35b600061042082610ff8565b9050919050565b60606000805461043690612bee565b80601f016020809104026020016040519081016040528092919081815260200182805461046290612bee565b80156104af5780601f10610484576101008083540402835291602001916104af565b820191906000526020600020905b81548152906001019060200180831161049257829003601f168201915b5050505050905090565b60006104c482611072565b6004600083815260200190815260200160002060009054906101000a900473ffffffffffffffffffffffffffffffffffffffff169050919050565b600061050a82610a0f565b90508073ffffffffffffffffffffffffffffffffffffffff168373ffffffffffffffffffffffffffffffffffffffff160361057a576040517f08c379a000000000000000000000000000000000000000000000000000000000815260040161057190612c91565b60405180910390fd5b8073ffffffffffffffffffffffffffffffffffffffff166105996110bd565b73ffffffffffffffffffffffffffffffffffffffff1614806105c857506105c7816105c26110bd565b610f64565b5b610607576040517f08c379a00000000000000000000000000000000000000000000000000000000081526004016105fe90612d23565b60405180910390fd5b61061183836110c5565b505050565b6000610622601461117e565b905061062e601461118c565b61063833826111a2565b50565b6000600880549050905090565b6106596106536110bd565b826111c0565b610698576040517f08c379a000000000000000000000000000000000000000000000000000000000815260040161068f90612db5565b60405180910390fd5b6106a3838383611255565b505050565b60006106b383610ac0565b82106106f4576040517f08c379a00000000000000000000000000000000000000000000000000000000081526004016106eb90612e47565b60405180910390fd5b600660008473ffffffffffffffffffffffffffffffffffffffff1673ffffffffffffffffffffffffffffffffffffffff168152602001908152602001600020600083815260200190815260200160002054905092915050565b6060806000806000806000806000806060600a600001600a600101600a60020154600a60030154600a60040154600a60050154600a60060154600a60070154600a60080160009054906101000a900460ff16600a60080160019054906101000a900460ff16600a6009018a80546107c390612bee565b80601f01602080910402602001604051908101604052809291908181526020018280546107ef90612bee565b801561083c5780601f106108115761010080835404028352916020019161083c565b820191906000526020600020905b81548152906001019060200180831161081f57829003601f168201915b50505050509a5089805461084f90612bee565b80601f016020809104026020016040519081016040528092919081815260200182805461087b90612bee565b80156108c85780601f1061089d576101008083540402835291602001916108c8565b820191906000526020600020905b8154815290600101906020018083116108ab57829003601f168201915b505050505099508080546108db90612bee565b80601f016020809104026020016040519081016040528092919081815260200182805461090790612bee565b80156109545780601f1061092957610100808354040283529160200191610954565b820191906000526020600020905b81548152906001019060200180831161093757829003601f168201915b505050505090509a509a509a509a509a509a509a509a509a509a509a50909192939495969798999a565b61099983838360405180602001604052806000815250610d42565b505050565b60006109a861063b565b82106109e9576040517f08c379a00000000000000000000000000000000000000000000000000000000081526004016109e090612ed9565b60405180910390fd5b600882815481106109fd576109fc612ef9565b5b90600052602060002001549050919050565b6000806002600084815260200190815260200160002060009054906101000a900473ffffffffffffffffffffffffffffffffffffffff169050600073ffffffffffffffffffffffffffffffffffffffff168173ffffffffffffffffffffffffffffffffffffffff1603610ab7576040517f08c379a0000000000000000000000000000000000000000000000000000000008152600401610aae90612f74565b60405180910390fd5b80915050919050565b60008073ffffffffffffffffffffffffffffffffffffffff168273ffffffffffffffffffffffffffffffffffffffff1603610b30576040517f08c379a0000000000000000000000000000000000000000000000000000000008152600401610b2790613006565b60405180910390fd5b600360008373ffffffffffffffffffffffffffffffffffffffff1673ffffffffffffffffffffffffffffffffffffffff168152602001908152602001600020549050919050565b6040518061016001604052808c81526020018b81526020018a81526020018981526020018881526020018781526020018681526020018581526020018415158152602001831515815260200182815250600a6000820151816000019081610bde91906131d2565b506020820151816001019081610bf491906131d2565b5060408201518160020155606082015181600301556080820151816004015560a0820151816005015560c0820151816006015560e082015181600701556101008201518160080160006101000a81548160ff0219169083151502179055506101208201518160080160016101000a81548160ff021916908315150217905550610140820151816009019081610c8991906131d2565b509050505050505050505050505050565b606060018054610ca990612bee565b80601f0160208091040260200160405190810160405280929190818152602001828054610cd590612bee565b8015610d225780601f10610cf757610100808354040283529160200191610d22565b820191906000526020600020905b815481529060010190602001808311610d0557829003601f168201915b5050505050905090565b610d3e610d376110bd565b83836114bb565b5050565b610d53610d4d6110bd565b836111c0565b610d92576040517f08c379a0000000000000000000000000000000000000000000000000000000008152600401610d8990612db5565b60405180910390fd5b610d9e84848484611627565b50505050565b6060610daf82611683565b610dee576040517f08c379a0000000000000000000000000000000000000000000000000000000008152600401610de590613316565b60405180910390fd5b6000610eba600a600001600a600101610e0b600a600201546116ef565b610e19600a600301546116ef565b610e27600a600401546116ef565b610e35600a600501546116ef565b610e43600a600601546116ef565b610e51600a600701546116ef565b610e6c600a60080160009054906101000a900460ff16610ee4565b610e87600a60080160019054906101000a900460ff16610ee4565b600a600901604051602001610ea69b9a99989796959493929190613aa3565b60405160208183030381529060405261184f565b905080604051602001610ecd9190613c38565b604051602081830303815290604052915050919050565b606081610f26576040518060400160405280600281526020017f4e6f000000000000000000000000000000000000000000000000000000000000815250610f5d565b6040518060400160405280600381526020017f59657300000000000000000000000000000000000000000000000000000000008152505b9050919050565b6000600560008473ffffffffffffffffffffffffffffffffffffffff1673ffffffffffffffffffffffffffffffffffffffff16815260200190815260200160002060008373ffffffffffffffffffffffffffffffffffffffff1673ffffffffffffffffffffffffffffffffffffffff16815260200190815260200160002060009054906101000a900460ff16905092915050565b60007f780e9d63000000000000000000000000000000000000000000000000000000007bffffffffffffffffffffffffffffffffffffffffffffffffffffffff1916827bffffffffffffffffffffffffffffffffffffffffffffffffffffffff1916148061106b575061106a826119d3565b5b9050919050565b61107b81611683565b6110ba576040517f08c379a00000000000000000000000000000000000000000000000000000000081526004016110b190612f74565b60405180910390fd5b50565b600033905090565b816004600083815260200190815260200160002060006101000a81548173ffffffffffffffffffffffffffffffffffffffff021916908373ffffffffffffffffffffffffffffffffffffffff160217905550808273ffffffffffffffffffffffffffffffffffffffff1661113883610a0f565b73ffffffffffffffffffffffffffffffffffffffff167f8c5be1e5ebec7d5bd14f71427d1e84f3dd0314c0f7b2291e5b200ac8c7c3b92560405160405180910390a45050565b600081600001549050919050565b6001816000016000828254019250508190555050565b6111bc828260405180602001604052806000815250611ab5565b5050565b6000806111cc83610a0f565b90508073ffffffffffffffffffffffffffffffffffffffff168473ffffffffffffffffffffffffffffffffffffffff16148061120e575061120d8185610f64565b5b8061124c57508373ffffffffffffffffffffffffffffffffffffffff16611234846104b9565b73ffffffffffffffffffffffffffffffffffffffff16145b91505092915050565b8273ffffffffffffffffffffffffffffffffffffffff1661127582610a0f565b73ffffffffffffffffffffffffffffffffffffffff16146112cb576040517f08c379a00000000000000000000000000000000000000000000000000000000081526004016112c290613ccc565b60405180910390fd5b600073ffffffffffffffffffffffffffffffffffffffff168273ffffffffffffffffffffffffffffffffffffffff160361133a576040517f08c379a000000000000000000000000000000000000000000000000000000000815260040161133190613d5e565b60405180910390fd5b611345838383611b10565b6113506000826110c5565b6001600360008573ffffffffffffffffffffffffffffffffffffffff1673ffffffffffffffffffffffffffffffffffffffff16815260200190815260200160002060008282546113a09190613dad565b925050819055506001600360008473ffffffffffffffffffffffffffffffffffffffff1673ffffffffffffffffffffffffffffffffffffffff16815260200190815260200160002060008282546113f79190613de1565b92505081905550816002600083815260200190815260200160002060006101000a81548173ffffffffffffffffffffffffffffffffffffffff021916908373ffffffffffffffffffffffffffffffffffffffff160217905550808273ffffffffffffffffffffffffffffffffffffffff168473ffffffffffffffffffffffffffffffffffffffff167fddf252ad1be2c89b69c2b068fc378daa952ba7f163c4a11628f55a4df523b3ef60405160405180910390a46114b6838383611b20565b505050565b8173ffffffffffffffffffffffffffffffffffffffff168373ffffffffffffffffffffffffffffffffffffffff1603611529576040517f08c379a000000000000000000000000000000000000000000000000000000000815260040161152090613e61565b60405180910390fd5b80600560008573ffffffffffffffffffffffffffffffffffffffff1673ffffffffffffffffffffffffffffffffffffffff16815260200190815260200160002060008473ffffffffffffffffffffffffffffffffffffffff1673ffffffffffffffffffffffffffffffffffffffff16815260200190815260200160002060006101000a81548160ff0219169083151502179055508173ffffffffffffffffffffffffffffffffffffffff168373ffffffffffffffffffffffffffffffffffffffff167f17307eab39ab6107e8899845ad3d59bd9653f200f220920489ca2b5937696c318360405161161a91906123e3565b60405180910390a3505050565b611632848484611255565b61163e84848484611b25565b61167d576040517f08c379a000000000000000000000000000000000000000000000000000000000815260040161167490613ef3565b60405180910390fd5b50505050565b60008073ffffffffffffffffffffffffffffffffffffffff166002600084815260200190815260200160002060009054906101000a900473ffffffffffffffffffffffffffffffffffffffff1673ffffffffffffffffffffffffffffffffffffffff1614159050919050565b606060008203611736576040518060400160405280600181526020017f3000000000000000000000000000000000000000000000000000000000000000815250905061184a565b600082905060005b6000821461176857808061175190613f13565b915050600a826117619190613f8a565b915061173e565b60008167ffffffffffffffff8111156117845761178361274f565b5b6040519080825280601f01601f1916602001820160405280156117b65781602001600182028036833780820191505090505b5090505b60008514611843576001826117cf9190613dad565b9150600a856117de9190613fbb565b60306117ea9190613de1565b60f81b818381518110611800576117ff612ef9565b5b60200101907effffffffffffffffffffffffffffffffffffffffffffffffffffffffffffff1916908160001a905350600a8561183c9190613f8a565b94506117ba565b8093505050505b919050565b60606000825103611871576040518060200160405280600081525090506119ce565b600060405180606001604052806040815260200161421960409139905060006003600285516118a09190613de1565b6118aa9190613f8a565b60046118b69190613fec565b905060006020826118c79190613de1565b67ffffffffffffffff8111156118e0576118df61274f565b5b6040519080825280601f01601f1916602001820160405280156119125781602001600182028036833780820191505090505b509050818152600183018586518101602084015b8183101561198d576003830192508251603f8160121c1685015160f81b8252600182019150603f81600c1c1685015160f81b8252600182019150603f8160061c1685015160f81b8252600182019150603f811685015160f81b825260018201915050611926565b6003895106600181146119a757600281146119b7576119c2565b613d3d60f01b60028303526119c2565b603d60f81b60018303525b50505050508093505050505b919050565b60007f80ac58cd000000000000000000000000000000000000000000000000000000007bffffffffffffffffffffffffffffffffffffffffffffffffffffffff1916827bffffffffffffffffffffffffffffffffffffffffffffffffffffffff19161480611a9e57507f5b5e139f000000000000000000000000000000000000000000000000000000007bffffffffffffffffffffffffffffffffffffffffffffffffffffffff1916827bffffffffffffffffffffffffffffffffffffffffffffffffffffffff1916145b80611aae5750611aad82611cac565b5b9050919050565b611abf8383611d16565b611acc6000848484611b25565b611b0b576040517f08c379a0000000000000000000000000000000000000000000000000000000008152600401611b0290613ef3565b60405180910390fd5b505050565b611b1b838383611eef565b505050565b505050565b6000611b468473ffffffffffffffffffffffffffffffffffffffff16612001565b15611c9f578373ffffffffffffffffffffffffffffffffffffffff1663150b7a02611b6f6110bd565b8786866040518563ffffffff1660e01b8152600401611b919493929190614083565b6020604051808303816000875af1925050508015611bcd57506040513d601f19601f82011682018060405250810190611bca91906140e4565b60015b611c4f573d8060008114611bfd576040519150601f19603f3d011682016040523d82523d6000602084013e611c02565b606091505b506000815103611c47576040517f08c379a0000000000000000000000000000000000000000000000000000000008152600401611c3e90613ef3565b60405180910390fd5b805181602001fd5b63150b7a0260e01b7bffffffffffffffffffffffffffffffffffffffffffffffffffffffff1916817bffffffffffffffffffffffffffffffffffffffffffffffffffffffff191614915050611ca4565b600190505b949350505050565b60007f01ffc9a7000000000000000000000000000000000000000000000000000000007bffffffffffffffffffffffffffffffffffffffffffffffffffffffff1916827bffffffffffffffffffffffffffffffffffffffffffffffffffffffff1916149050919050565b600073ffffffffffffffffffffffffffffffffffffffff168273ffffffffffffffffffffffffffffffffffffffff1603611d85576040517f08c379a0000000000000000000000000000000000000000000000000000000008152600401611d7c9061415d565b60405180910390fd5b611d8e81611683565b15611dce576040517f08c379a0000000000000000000000000000000000000000000000000000000008152600401611dc5906141c9565b60405180910390fd5b611dda60008383611b10565b6001600360008473ffffffffffffffffffffffffffffffffffffffff1673ffffffffffffffffffffffffffffffffffffffff1681526020019081526020016000206000828254611e2a9190613de1565b92505081905550816002600083815260200190815260200160002060006101000a81548173ffffffffffffffffffffffffffffffffffffffff021916908373ffffffffffffffffffffffffffffffffffffffff160217905550808273ffffffffffffffffffffffffffffffffffffffff16600073ffffffffffffffffffffffffffffffffffffffff167fddf252ad1be2c89b69c2b068fc378daa952ba7f163c4a11628f55a4df523b3ef60405160405180910390a4611eeb60008383611b20565b5050565b611efa838383612024565b600073ffffffffffffffffffffffffffffffffffffffff168373ffffffffffffffffffffffffffffffffffffffff1603611f3c57611f3781612029565b611f7b565b8173ffffffffffffffffffffffffffffffffffffffff168373ffffffffffffffffffffffffffffffffffffffff1614611f7a57611f798382612072565b5b5b600073ffffffffffffffffffffffffffffffffffffffff168273ffffffffffffffffffffffffffffffffffffffff1603611fbd57611fb8816121df565b611ffc565b8273ffffffffffffffffffffffffffffffffffffffff168273ffffffffffffffffffffffffffffffffffffffff1614611ffb57611ffa82826122b0565b5b5b505050565b6000808273ffffffffffffffffffffffffffffffffffffffff163b119050919050565b505050565b6008805490506009600083815260200190815260200160002081905550600881908060018154018082558091505060019003906000526020600020016000909190919091505550565b6000600161207f84610ac0565b6120899190613dad565b905060006007600084815260200190815260200160002054905081811461216e576000600660008673ffffffffffffffffffffffffffffffffffffffff1673ffffffffffffffffffffffffffffffffffffffff168152602001908152602001600020600084815260200190815260200160002054905080600660008773ffffffffffffffffffffffffffffffffffffffff1673ffffffffffffffffffffffffffffffffffffffff168152602001908152602001600020600084815260200190815260200160002081905550816007600083815260200190815260200160002081905550505b6007600084815260200190815260200160002060009055600660008573ffffffffffffffffffffffffffffffffffffffff1673ffffffffffffffffffffffffffffffffffffffff16815260200190815260200160002060008381526020019081526020016000206000905550505050565b600060016008805490506121f39190613dad565b905060006009600084815260200190815260200160002054905060006008838154811061222357612222612ef9565b5b90600052602060002001549050806008838154811061224557612244612ef9565b5b906000526020600020018190555081600960008381526020019081526020016000208190555060096000858152602001908152602001600020600090556008805480612294576122936141e9565b5b6001900381819060005260206000200160009055905550505050565b60006122bb83610ac0565b905081600660008573ffffffffffffffffffffffffffffffffffffffff1673ffffffffffffffffffffffffffffffffffffffff168152602001908152602001600020600083815260200190815260200160002081905550806007600084815260200190815260200160002081905550505050565b6000604051905090565b600080fd5b600080fd5b60007fffffffff0000000000000000000000000000000000000000000000000000000082169050919050565b61237881612343565b811461238357600080fd5b50565b6000813590506123958161236f565b92915050565b6000602082840312156123b1576123b0612339565b5b60006123bf84828501612386565b91505092915050565b60008115159050919050565b6123dd816123c8565b82525050565b60006020820190506123f860008301846123d4565b92915050565b600081519050919050565b600082825260208201905092915050565b60005b8381101561243857808201518184015260208101905061241d565b60008484015250505050565b6000601f19601f8301169050919050565b6000612460826123fe565b61246a8185612409565b935061247a81856020860161241a565b61248381612444565b840191505092915050565b600060208201905081810360008301526124a88184612455565b905092915050565b6000819050919050565b6124c3816124b0565b81146124ce57600080fd5b50565b6000813590506124e0816124ba565b92915050565b6000602082840312156124fc576124fb612339565b5b600061250a848285016124d1565b91505092915050565b600073ffffffffffffffffffffffffffffffffffffffff82169050919050565b600061253e82612513565b9050919050565b61254e81612533565b82525050565b60006020820190506125696000830184612545565b92915050565b61257881612533565b811461258357600080fd5b50565b6000813590506125958161256f565b92915050565b600080604083850312156125b2576125b1612339565b5b60006125c085828601612586565b92505060206125d1858286016124d1565b9150509250929050565b6125e4816124b0565b82525050565b60006020820190506125ff60008301846125db565b92915050565b60008060006060848603121561261e5761261d612339565b5b600061262c86828701612586565b935050602061263d86828701612586565b925050604061264e868287016124d1565b9150509250925092565b6000610160820190508181036000830152612673818e612455565b90508181036020830152612687818d612455565b9050612696604083018c6125db565b6126a3606083018b6125db565b6126b0608083018a6125db565b6126bd60a08301896125db565b6126ca60c08301886125db565b6126d760e08301876125db565b6126e56101008301866123d4565b6126f36101208301856123d4565b8181036101408301526127068184612455565b90509c9b505050505050505050505050565b60006020828403121561272e5761272d612339565b5b600061273c84828501612586565b91505092915050565b600080fd5b600080fd5b7f4e487b7100000000000000000000000000000000000000000000000000000000600052604160045260246000fd5b61278782612444565b810181811067ffffffffffffffff821117156127a6576127a561274f565b5b80604052505050565b60006127b961232f565b90506127c5828261277e565b919050565b600067ffffffffffffffff8211156127e5576127e461274f565b5b6127ee82612444565b9050602081019050919050565b82818337600083830152505050565b600061281d612818846127ca565b6127af565b9050828152602081018484840111156128395761283861274a565b5b6128448482856127fb565b509392505050565b600082601f83011261286157612860612745565b5b813561287184826020860161280a565b91505092915050565b612883816123c8565b811461288e57600080fd5b50565b6000813590506128a08161287a565b92915050565b60008060008060008060008060008060006101608c8e0312156128cc576128cb612339565b5b60008c013567ffffffffffffffff8111156128ea576128e961233e565b5b6128f68e828f0161284c565b9b505060208c013567ffffffffffffffff8111156129175761291661233e565b5b6129238e828f0161284c565b9a505060406129348e828f016124d1565b99505060606129458e828f016124d1565b98505060806129568e828f016124d1565b97505060a06129678e828f016124d1565b96505060c06129788e828f016124d1565b95505060e06129898e828f016124d1565b94505061010061299b8e828f01612891565b9350506101206129ad8e828f01612891565b9250506101408c013567ffffffffffffffff8111156129cf576129ce61233e565b5b6129db8e828f0161284c565b9150509295989b509295989b9093969950565b60008060408385031215612a0557612a04612339565b5b6000612a1385828601612586565b9250506020612a2485828601612891565b9150509250929050565b600067ffffffffffffffff821115612a4957612a4861274f565b5b612a5282612444565b9050602081019050919050565b6000612a72612a6d84612a2e565b6127af565b905082815260208101848484011115612a8e57612a8d61274a565b5b612a998482856127fb565b509392505050565b600082601f830112612ab657612ab5612745565b5b8135612ac6848260208601612a5f565b91505092915050565b60008060008060808587031215612ae957612ae8612339565b5b6000612af787828801612586565b9450506020612b0887828801612586565b9350506040612b19878288016124d1565b925050606085013567ffffffffffffffff811115612b3a57612b3961233e565b5b612b4687828801612aa1565b91505092959194509250565b600060208284031215612b6857612b67612339565b5b6000612b7684828501612891565b91505092915050565b60008060408385031215612b9657612b95612339565b5b6000612ba485828601612586565b9250506020612bb585828601612586565b9150509250929050565b7f4e487b7100000000000000000000000000000000000000000000000000000000600052602260045260246000fd5b60006002820490506001821680612c0657607f821691505b602082108103612c1957612c18612bbf565b5b50919050565b7f4552433732313a20617070726f76616c20746f2063757272656e74206f776e6560008201527f7200000000000000000000000000000000000000000000000000000000000000602082015250565b6000612c7b602183612409565b9150612c8682612c1f565b604082019050919050565b60006020820190508181036000830152612caa81612c6e565b9050919050565b7f4552433732313a20617070726f76652063616c6c6572206973206e6f7420746f60008201527f6b656e206f776e6572206e6f7220617070726f76656420666f7220616c6c0000602082015250565b6000612d0d603e83612409565b9150612d1882612cb1565b604082019050919050565b60006020820190508181036000830152612d3c81612d00565b9050919050565b7f4552433732313a2063616c6c6572206973206e6f7420746f6b656e206f776e6560008201527f72206e6f7220617070726f766564000000000000000000000000000000000000602082015250565b6000612d9f602e83612409565b9150612daa82612d43565b604082019050919050565b60006020820190508181036000830152612dce81612d92565b9050919050565b7f455243373231456e756d657261626c653a206f776e657220696e646578206f7560008201527f74206f6620626f756e6473000000000000000000000000000000000000000000602082015250565b6000612e31602b83612409565b9150612e3c82612dd5565b604082019050919050565b60006020820190508181036000830152612e6081612e24565b9050919050565b7f455243373231456e756d657261626c653a20676c6f62616c20696e646578206f60008201527f7574206f6620626f756e64730000000000000000000000000000000000000000602082015250565b6000612ec3602c83612409565b9150612ece82612e67565b604082019050919050565b60006020820190508181036000830152612ef281612eb6565b9050919050565b7f4e487b7100000000000000000000000000000000000000000000000000000000600052603260045260246000fd5b7f4552433732313a20696e76616c696420746f6b656e2049440000000000000000600082015250565b6000612f5e601883612409565b9150612f6982612f28565b602082019050919050565b60006020820190508181036000830152612f8d81612f51565b9050919050565b7f4552433732313a2061646472657373207a65726f206973206e6f74206120766160008201527f6c6964206f776e65720000000000000000000000000000000000000000000000602082015250565b6000612ff0602983612409565b9150612ffb82612f94565b604082019050919050565b6000602082019050818103600083015261301f81612fe3565b9050919050565b60008190508160005260206000209050919050565b60006020601f8301049050919050565b600082821b905092915050565b6000600883026130887fffffffffffffffffffffffffffffffffffffffffffffffffffffffffffffffff8261304b565b613092868361304b565b95508019841693508086168417925050509392505050565b6000819050919050565b60006130cf6130ca6130c5846124b0565b6130aa565b6124b0565b9050919050565b6000819050919050565b6130e9836130b4565b6130fd6130f5826130d6565b848454613058565b825550505050565b600090565b613112613105565b61311d8184846130e0565b505050565b5b818110156131415761313660008261310a565b600181019050613123565b5050565b601f8211156131865761315781613026565b6131608461303b565b8101602085101561316f578190505b61318361317b8561303b565b830182613122565b50505b505050565b600082821c905092915050565b60006131a96000198460080261318b565b1980831691505092915050565b60006131c28383613198565b9150826002028217905092915050565b6131db826123fe565b67ffffffffffffffff8111156131f4576131f361274f565b5b6131fe8254612bee565b613209828285613145565b600060209050601f83116001811461323c576000841561322a578287015190505b61323485826131b6565b86555061329c565b601f19841661324a86613026565b60005b828110156132725784890151825560018201915060208501945060208101905061324d565b8683101561328f578489015161328b601f891682613198565b8355505b6001600288020188555050505b505050505050565b7f455243373231204d657461646174613a2055524920717565727920666f72206e60008201527f6f6e6578697374656e7420746f6b656e00000000000000000000000000000000602082015250565b6000613300603083612409565b915061330b826132a4565b604082019050919050565b6000602082019050818103600083015261332f816132f3565b9050919050565b600081905092915050565b7f7b226e616d65223a220000000000000000000000000000000000000000000000600082015250565b6000613377600983613336565b915061338282613341565b600982019050919050565b7f5665737461000000000000000000000000000000000000000000000000000000600082015250565b60006133c3600583613336565b91506133ce8261338d565b600582019050919050565b7f222c226465736372697074696f6e223a22000000000000000000000000000000600082015250565b600061340f601183613336565b915061341a826133d9565b601182019050919050565b7f566573746120697320612070726f706572747920746f6b656e697a6174696f6e60008201527f20706c6174666f726d2c20726570726573656e746564206173204e465473207460208201527f686174206c697665206f6e2074686520626c6f636b636861696e20666f72206560408201527f617379207472616e73666572206f66206f776e6572736869702e000000000000606082015250565b60006134cd607a83613336565b91506134d882613425565b607a82019050919050565b7f222c22696d616765223a22000000000000000000000000000000000000000000600082015250565b6000613519600b83613336565b9150613524826134e3565b600b82019050919050565b6000815461353c81612bee565b6135468186613336565b945060018216600081146135615760018114613576576135a9565b60ff19831686528115158202860193506135a9565b61357f85613026565b60005b838110156135a157815481890152600182019150602081019050613582565b838801955050505b50505092915050565b7f222c2261747472696275746573223a5b7b2274726169745f74797065223a225460008201527f79706f6c6f6779222c2276616c7565223a220000000000000000000000000000602082015250565b600061360e603283613336565b9150613619826135b2565b603282019050919050565b7f227d2c7b2274726169745f74797065223a202259656172206275696c74222c2260008201527f76616c7565223a22000000000000000000000000000000000000000000000000602082015250565b6000613680602883613336565b915061368b82613624565b602882019050919050565b60006136a1826123fe565b6136ab8185613336565b93506136bb81856020860161241a565b80840191505092915050565b7f227d2c7b2274726169745f74797065223a2022537175617265206d657465727360008201527f222c2276616c7565223a22000000000000000000000000000000000000000000602082015250565b6000613723602b83613336565b915061372e826136c7565b602b82019050919050565b7f227d2c7b2274726169745f74797065223a2022526f6f6d73222c2276616c756560008201527f223a220000000000000000000000000000000000000000000000000000000000602082015250565b6000613795602383613336565b91506137a082613739565b602382019050919050565b7f227d2c7b2274726169745f74797065223a202242617468726f6f6d73222c227660008201527f616c7565223a2200000000000000000000000000000000000000000000000000602082015250565b6000613807602783613336565b9150613812826137ab565b602782019050919050565b7f227d2c7b2274726169745f74797065223a20224c6576656c73222c2276616c7560008201527f65223a2200000000000000000000000000000000000000000000000000000000602082015250565b6000613879602483613336565b91506138848261381d565b602482019050919050565b7f227d2c7b2274726169745f74797065223a20225061726b696e6773222c22766160008201527f6c7565223a220000000000000000000000000000000000000000000000000000602082015250565b60006138eb602683613336565b91506138f68261388f565b602682019050919050565b7f227d2c7b2274726169745f74797065223a202259617264222c2276616c75652260008201527f3a22000000000000000000000000000000000000000000000000000000000000602082015250565b600061395d602283613336565b915061396882613901565b602282019050919050565b7f227d2c7b2274726169745f74797065223a2022506f6f6c222c2276616c75652260008201527f3a22000000000000000000000000000000000000000000000000000000000000602082015250565b60006139cf602283613336565b91506139da82613973565b602282019050919050565b7f227d2c7b2274726169745f74797065223a20224c6f636174696f6e222c22766160008201527f6c7565223a220000000000000000000000000000000000000000000000000000602082015250565b6000613a41602683613336565b9150613a4c826139e5565b602682019050919050565b7f227d5d7d00000000000000000000000000000000000000000000000000000000600082015250565b6000613a8d600483613336565b9150613a9882613a57565b600482019050919050565b6000613aae8261336a565b9150613ab9826133b6565b9150613ac482613402565b9150613acf826134c0565b9150613ada8261350c565b9150613ae6828e61352f565b9150613af182613601565b9150613afd828d61352f565b9150613b0882613673565b9150613b14828c613696565b9150613b1f82613716565b9150613b2b828b613696565b9150613b3682613788565b9150613b42828a613696565b9150613b4d826137fa565b9150613b598289613696565b9150613b648261386c565b9150613b708288613696565b9150613b7b826138de565b9150613b878287613696565b9150613b9282613950565b9150613b9e8286613696565b9150613ba9826139c2565b9150613bb58285613696565b9150613bc082613a34565b9150613bcc828461352f565b9150613bd782613a80565b91508190509c9b505050505050505050505050565b7f646174613a6170706c69636174696f6e2f6a736f6e3b6261736536342c000000600082015250565b6000613c22601d83613336565b9150613c2d82613bec565b601d82019050919050565b6000613c4382613c15565b9150613c4f8284613696565b915081905092915050565b7f4552433732313a207472616e736665722066726f6d20696e636f72726563742060008201527f6f776e6572000000000000000000000000000000000000000000000000000000602082015250565b6000613cb6602583612409565b9150613cc182613c5a565b604082019050919050565b60006020820190508181036000830152613ce581613ca9565b9050919050565b7f4552433732313a207472616e7366657220746f20746865207a65726f2061646460008201527f7265737300000000000000000000000000000000000000000000000000000000602082015250565b6000613d48602483612409565b9150613d5382613cec565b604082019050919050565b60006020820190508181036000830152613d7781613d3b565b9050919050565b7f4e487b7100000000000000000000000000000000000000000000000000000000600052601160045260246000fd5b6000613db8826124b0565b9150613dc3836124b0565b9250828203905081811115613ddb57613dda613d7e565b5b92915050565b6000613dec826124b0565b9150613df7836124b0565b9250828201905080821115613e0f57613e0e613d7e565b5b92915050565b7f4552433732313a20617070726f766520746f2063616c6c657200000000000000600082015250565b6000613e4b601983612409565b9150613e5682613e15565b602082019050919050565b60006020820190508181036000830152613e7a81613e3e565b9050919050565b7f4552433732313a207472616e7366657220746f206e6f6e20455243373231526560008201527f63656976657220696d706c656d656e7465720000000000000000000000000000602082015250565b6000613edd603283612409565b9150613ee882613e81565b604082019050919050565b60006020820190508181036000830152613f0c81613ed0565b9050919050565b6000613f1e826124b0565b91507fffffffffffffffffffffffffffffffffffffffffffffffffffffffffffffffff8203613f5057613f4f613d7e565b5b600182019050919050565b7f4e487b7100000000000000000000000000000000000000000000000000000000600052601260045260246000fd5b6000613f95826124b0565b9150613fa0836124b0565b925082613fb057613faf613f5b565b5b828204905092915050565b6000613fc6826124b0565b9150613fd1836124b0565b925082613fe157613fe0613f5b565b5b828206905092915050565b6000613ff7826124b0565b9150614002836124b0565b9250828202614010816124b0565b9150828204841483151761402757614026613d7e565b5b5092915050565b600081519050919050565b600082825260208201905092915050565b60006140558261402e565b61405f8185614039565b935061406f81856020860161241a565b61407881612444565b840191505092915050565b60006080820190506140986000830187612545565b6140a56020830186612545565b6140b260408301856125db565b81810360608301526140c4818461404a565b905095945050505050565b6000815190506140de8161236f565b92915050565b6000602082840312156140fa576140f9612339565b5b6000614108848285016140cf565b91505092915050565b7f4552433732313a206d696e7420746f20746865207a65726f2061646472657373600082015250565b6000614147602083612409565b915061415282614111565b602082019050919050565b600060208201905081810360008301526141768161413a565b9050919050565b7f4552433732313a20746f6b656e20616c7265616479206d696e74656400000000600082015250565b60006141b3601c83612409565b91506141be8261417d565b602082019050919050565b600060208201905081810360008301526141e2816141a6565b9050919050565b7f4e487b7100000000000000000000000000000000000000000000000000000000600052603160045260246000fdfe4142434445464748494a4b4c4d4e4f505152535455565758595a6162636465666768696a6b6c6d6e6f707172737475767778797a303132333435363738392b2fa26469706673582212203c908d1ebe3652c6cdb68a995b7527e727d733da63de170ff8db7c40e90da33e64736f6c63430008110033",
  "linkReferences": {},
  "deployedLinkReferences": {}
}