{"contracts/Vesta.sol":{"Vesta":{"abi":[{"inputs":[],"stateMutability":"nonpayable","type":"constructor"},{"anonymous":false,"inputs":[{"indexed":true,"internalType":"address","name":"owner","type":"address"},{"indexed":true,"internalType":"address","name":"approved","type":"address"},{"indexed":true,"internalType":"uint256","name":"tokenId","type":"uint256"}],"name":"Approval","type":"event"},{"anonymous":false,"inputs":[{"indexed":true,"internalType":"address","name":"owner","type":"address"},{"indexed":true,"internalType":"address","name":"operator","type":"address"},{"indexed":false,"internalType":"bool","name":"approved","type":"bool"}],"name":"ApprovalForAll","type":"event"},{"anonymous":false,"inputs":[{"indexed":true,"internalType":"address","name":"from","type":"address"},{"indexed":true,"internalType":"address","name":"to","type":"address"},{"indexed":true,"internalType":"uint256","name":"tokenId","type":"uint256"}],"name":"Transfer","type":"event"},{"inputs":[{"internalType":"address","name":"to","type":"address"},{"internalType":"uint256","name":"tokenId","type":"uint256"}],"name":"approve","outputs":[],"stateMutability":"nonpayable","type":"function"},{"inputs":[{"internalType":"address","name":"owner","type":"address"}],"name":"balanceOf","outputs":[{"internalType":"uint256","name":"","type":"uint256"}],"stateMutability":"view","type":"function"},{"inputs":[{"internalType":"uint256","name":"tokenId","type":"uint256"}],"name":"getApproved","outputs":[{"internalType":"address","name":"","type":"address"}],"stateMutability":"view","type":"function"},{"inputs":[],"name":"get_house_info","outputs":[{"internalType":"string","name":"","type":"string"},{"internalType":"string","name":"","type":"string"},{"internalType":"uint256","name":"","type":"uint256"},{"internalType":"uint256","name":"","type":"uint256"},{"internalType":"uint256","name":"","type":"uint256"},{"internalType":"uint256","name":"","type":"uint256"},{"internalType":"uint256","name":"","type":"uint256"},{"internalType":"uint256","name":"","type":"uint256"},{"internalType":"bool","name":"","type":"bool"},{"internalType":"bool","name":"","type":"bool"},{"internalType":"string","name":"","type":"string"}],"stateMutability":"view","type":"function"},{"inputs":[{"internalType":"address","name":"owner","type":"address"},{"internalType":"address","name":"operator","type":"address"}],"name":"isApprovedForAll","outputs":[{"internalType":"bool","name":"","type":"bool"}],"stateMutability":"view","type":"function"},{"inputs":[],"name":"mint","outputs":[],"stateMutability":"nonpayable","type":"function"},{"inputs":[],"name":"name","outputs":[{"internalType":"string","name":"","type":"string"}],"stateMutability":"view","type":"function"},{"inputs":[{"internalType":"uint256","name":"tokenId","type":"uint256"}],"name":"ownerOf","outputs":[{"internalType":"address","name":"","type":"address"}],"stateMutability":"view","type":"function"},{"inputs":[{"internalType":"address","name":"from","type":"address"},{"internalType":"address","name":"to","type":"address"},{"internalType":"uint256","name":"tokenId","type":"uint256"}],"name":"safeTransferFrom","outputs":[],"stateMutability":"nonpayable","type":"function"},{"inputs":[{"internalType":"address","name":"from","type":"address"},{"internalType":"address","name":"to","type":"address"},{"internalType":"uint256","name":"tokenId","type":"uint256"},{"internalType":"bytes","name":"data","type":"bytes"}],"name":"safeTransferFrom","outputs":[],"stateMutability":"nonpayable","type":"function"},{"inputs":[{"internalType":"address","name":"operator","type":"address"},{"internalType":"bool","name":"approved","type":"bool"}],"name":"setApprovalForAll","outputs":[],"stateMutability":"nonpayable","type":"function"},{"inputs":[{"internalType":"string","name":"image","type":"string"},{"internalType":"string","name":"typology","type":"string"},{"internalType":"uint256","name":"yearBuilt","type":"uint256"},{"internalType":"uint256","name":"sqm","type":"uint256"},{"internalType":"uint256","name":"rooms","type":"uint256"},{"internalType":"uint256","name":"bathrooms","type":"uint256"},{"internalType":"uint256","name":"levels","type":"uint256"},{"internalType":"uint256","name":"parkings","type":"uint256"},{"internalType":"bool","name":"yard","type":"bool"},{"internalType":"bool","name":"pool","type":"bool"},{"internalType":"string","name":"location","type":"string"}],"name":"set_house_detail","outputs":[],"stateMutability":"nonpayable","type":"function"},{"inputs":[{"internalType":"bytes4","name":"interfaceId","type":"bytes4"}],"name":"supportsInterface","outputs":[{"internalType":"bool","name":"","type":"bool"}],"stateMutability":"view","type":"function"},{"inputs":[],"name":"symbol","outputs":[{"internalType":"string","name":"","type":"string"}],"stateMutability":"view","type":"function"},{"inputs":[{"internalType":"uint256","name":"index","type":"uint256"}],"name":"tokenByIndex","outputs":[{"internalType":"uint256","name":"","type":"uint256"}],"stateMutability":"view","type":"function"},{"inputs":[{"internalType":"address","name":"owner","type":"address"},{"internalType":"uint256","name":"index","type":"uint256"}],"name":"tokenOfOwnerByIndex","outputs":[{"internalType":"uint256","name":"","type":"uint256"}],"stateMutability":"view","type":"function"},{"inputs":[{"internalType":"uint256","name":"tokenId","type":"uint256"}],"name":"tokenURI","outputs":[{"internalType":"string","name":"","type":"string"}],"stateMutability":"view","type":"function"},{"inputs":[],"name":"totalSupply","outputs":[{"internalType":"uint256","name":"","type":"uint256"}],"stateMutability":"view","type":"function"},{"inputs":[{"internalType":"address","name":"from","type":"address"},{"internalType":"address","name":"to","type":"address"},{"internalType":"uint256","name":"tokenId","type":"uint256"}],"name":"transferFrom","outputs":[],"stateMutability":"nonpayable","type":"function"}],"evm":{"bytecode":{"linkReferences":{},"object":"60806040523480156200001157600080fd5b506040518060400160405280600581526020017f56657374610000000000000000000000000000000000000000000000000000008152506040518060400160405280600181526020017f560000000000000000000000000000000000000000000000000000000000000081525081600090816200008f919062000324565b508060019081620000a1919062000324565b5050506200040b565b600081519050919050565b7f4e487b7100000000000000000000000000000000000000000000000000000000600052604160045260246000fd5b7f4e487b7100000000000000000000000000000000000000000000000000000000600052602260045260246000fd5b600060028204905060018216806200012c57607f821691505b602082108103620001425762000141620000e4565b5b50919050565b60008190508160005260206000209050919050565b60006020601f8301049050919050565b600082821b905092915050565b600060088302620001ac7fffffffffffffffffffffffffffffffffffffffffffffffffffffffffffffffff826200016d565b620001b886836200016d565b95508019841693508086168417925050509392505050565b6000819050919050565b6000819050919050565b600062000205620001ff620001f984620001d0565b620001da565b620001d0565b9050919050565b6000819050919050565b6200022183620001e4565b6200023962000230826200020c565b8484546200017a565b825550505050565b600090565b6200025062000241565b6200025d81848462000216565b505050565b5b8181101562000285576200027960008262000246565b60018101905062000263565b5050565b601f821115620002d4576200029e8162000148565b620002a9846200015d565b81016020851015620002b9578190505b620002d1620002c8856200015d565b83018262000262565b50505b505050565b600082821c905092915050565b6000620002f960001984600802620002d9565b1980831691505092915050565b6000620003148383620002e6565b9150826002028217905092915050565b6200032f82620000aa565b67ffffffffffffffff8111156200034b576200034a620000b5565b5b62000357825462000113565b6200036482828562000289565b600060209050601f8311600181146200039c576000841562000387578287015190505b62000393858262000306565b86555062000403565b601f198416620003ac8662000148565b60005b82811015620003d657848901518255600182019150602085019450602081019050620003af565b86831015620003f65784890151620003f2601f891682620002e6565b8355505b6001600288020188555050505b505050505050565b614204806200041b6000396000f3fe608060405234801561001057600080fd5b50600436106101215760003560e01c806342842e0e116100ad57806395d89b411161007157806395d89b4114610324578063a22cb46514610342578063b88d4fde1461035e578063c87b56dd1461037a578063e985e9c5146103aa57610121565b806342842e0e1461025c5780634f6ccce7146102785780636352211e146102a857806370a08231146102d85780637e06fcc71461030857610121565b80631249c58b116100f45780631249c58b146101c057806318160ddd146101ca57806323b872dd146101e85780632f745c59146102045780633ab32f9c1461023457610121565b806301ffc9a71461012657806306fdde0314610156578063081812fc14610174578063095ea7b3146101a4575b600080fd5b610140600480360381019061013b91906122ca565b6103da565b60405161014d9190612312565b60405180910390f35b61015e6103ec565b60405161016b91906123bd565b60405180910390f35b61018e60048036038101906101899190612415565b61047e565b60405161019b9190612483565b60405180910390f35b6101be60048036038101906101b991906124ca565b6104c4565b005b6101c86105db565b005b6101d2610600565b6040516101df9190612519565b60405180910390f35b61020260048036038101906101fd9190612534565b61060d565b005b61021e600480360381019061021991906124ca565b61066d565b60405161022b9190612519565b60405180910390f35b61023c610712565b6040516102539b9a99989796959493929190612587565b60405180910390f35b61027660048036038101906102719190612534565b610943565b005b610292600480360381019061028d9190612415565b610963565b60405161029f9190612519565b60405180910390f35b6102c260048036038101906102bd9190612415565b6109d4565b6040516102cf9190612483565b60405180910390f35b6102f260048036038101906102ed9190612647565b610a85565b6040516102ff9190612519565b60405180910390f35b610322600480360381019061031d91906127d5565b610b3c565b005b61032c610c5f565b60405161033991906123bd565b60405180910390f35b61035c6004803603810190610357919061291d565b610cf1565b005b610378600480360381019061037391906129fe565b610d07565b005b610394600480360381019061038f9190612415565b610d69565b6040516103a191906123bd565b60405180910390f35b6103c460048036038101906103bf9190612a81565b610e93565b6040516103d19190612312565b60405180910390f35b60006103e582610f27565b9050919050565b6060600080546103fb90612af0565b80601f016020809104026020016040519081016040528092919081815260200182805461042790612af0565b80156104745780601f1061044957610100808354040283529160200191610474565b820191906000526020600020905b81548152906001019060200180831161045757829003601f168201915b5050505050905090565b600061048982610fa1565b6004600083815260200190815260200160002060009054906101000a900473ffffffffffffffffffffffffffffffffffffffff169050919050565b60006104cf826109d4565b90508073ffffffffffffffffffffffffffffffffffffffff168373ffffffffffffffffffffffffffffffffffffffff160361053f576040517f08c379a000000000000000000000000000000000000000000000000000000000815260040161053690612b93565b60405180910390fd5b8073ffffffffffffffffffffffffffffffffffffffff1661055e610fec565b73ffffffffffffffffffffffffffffffffffffffff16148061058d575061058c81610587610fec565b610e93565b5b6105cc576040517f08c379a00000000000000000000000000000000000000000000000000000000081526004016105c390612c25565b60405180910390fd5b6105d68383610ff4565b505050565b60006105e760146110ad565b90506105f360146110bb565b6105fd33826110d1565b50565b6000600880549050905090565b61061e610618610fec565b826110ef565b61065d576040517f08c379a000000000000000000000000000000000000000000000000000000000815260040161065490612cb7565b60405180910390fd5b610668838383611184565b505050565b600061067883610a85565b82106106b9576040517f08c379a00000000000000000000000000000000000000000000000000000000081526004016106b090612d49565b60405180910390fd5b600660008473ffffffffffffffffffffffffffffffffffffffff1673ffffffffffffffffffffffffffffffffffffffff168152602001908152602001600020600083815260200190815260200160002054905092915050565b6060806000806000806000806000806060600a600001600a600101600a60020154600a60030154600a60040154600a60050154600a60060154600a60070154600a60080160009054906101000a900460ff16600a60080160019054906101000a900460ff16600a6009018a805461078890612af0565b80601f01602080910402602001604051908101604052809291908181526020018280546107b490612af0565b80156108015780601f106107d657610100808354040283529160200191610801565b820191906000526020600020905b8154815290600101906020018083116107e457829003601f168201915b50505050509a5089805461081490612af0565b80601f016020809104026020016040519081016040528092919081815260200182805461084090612af0565b801561088d5780601f106108625761010080835404028352916020019161088d565b820191906000526020600020905b81548152906001019060200180831161087057829003601f168201915b505050505099508080546108a090612af0565b80601f01602080910402602001604051908101604052809291908181526020018280546108cc90612af0565b80156109195780601f106108ee57610100808354040283529160200191610919565b820191906000526020600020905b8154815290600101906020018083116108fc57829003601f168201915b505050505090509a509a509a509a509a509a509a509a509a509a509a50909192939495969798999a565b61095e83838360405180602001604052806000815250610d07565b505050565b600061096d610600565b82106109ae576040517f08c379a00000000000000000000000000000000000000000000000000000000081526004016109a590612ddb565b60405180910390fd5b600882815481106109c2576109c1612dfb565b5b90600052602060002001549050919050565b6000806002600084815260200190815260200160002060009054906101000a900473ffffffffffffffffffffffffffffffffffffffff169050600073ffffffffffffffffffffffffffffffffffffffff168173ffffffffffffffffffffffffffffffffffffffff1603610a7c576040517f08c379a0000000000000000000000000000000000000000000000000000000008152600401610a7390612e76565b60405180910390fd5b80915050919050565b60008073ffffffffffffffffffffffffffffffffffffffff168273ffffffffffffffffffffffffffffffffffffffff1603610af5576040517f08c379a0000000000000000000000000000000000000000000000000000000008152600401610aec90612f08565b60405180910390fd5b600360008373ffffffffffffffffffffffffffffffffffffffff1673ffffffffffffffffffffffffffffffffffffffff168152602001908152602001600020549050919050565b6040518061016001604052808c81526020018b81526020018a81526020018981526020018881526020018781526020018681526020018581526020018415158152602001831515815260200182815250600a6000820151816000019081610ba391906130d4565b506020820151816001019081610bb991906130d4565b5060408201518160020155606082015181600301556080820151816004015560a0820151816005015560c0820151816006015560e082015181600701556101008201518160080160006101000a81548160ff0219169083151502179055506101208201518160080160016101000a81548160ff021916908315150217905550610140820151816009019081610c4e91906130d4565b509050505050505050505050505050565b606060018054610c6e90612af0565b80601f0160208091040260200160405190810160405280929190818152602001828054610c9a90612af0565b8015610ce75780601f10610cbc57610100808354040283529160200191610ce7565b820191906000526020600020905b815481529060010190602001808311610cca57829003601f168201915b5050505050905090565b610d03610cfc610fec565b83836113ea565b5050565b610d18610d12610fec565b836110ef565b610d57576040517f08c379a0000000000000000000000000000000000000000000000000000000008152600401610d4e90612cb7565b60405180910390fd5b610d6384848484611556565b50505050565b6060610d74826115b2565b610db3576040517f08c379a0000000000000000000000000000000000000000000000000000000008152600401610daa90613218565b60405180910390fd5b6000610e69600a600101610dcb600a6002015461161e565b610dd9600a6003015461161e565b610de7600a6004015461161e565b610df5600a6005015461161e565b610e03600a6006015461161e565b610e11600a6007015461161e565b600a60080160009054906101000a900460ff16600a60080160019054906101000a900460ff16600a600901604051602001610e559a99989796959493929190613a13565b60405160208183030381529060405261177e565b905080604051602001610e7c9190613bae565b604051602081830303815290604052915050919050565b6000600560008473ffffffffffffffffffffffffffffffffffffffff1673ffffffffffffffffffffffffffffffffffffffff16815260200190815260200160002060008373ffffffffffffffffffffffffffffffffffffffff1673ffffffffffffffffffffffffffffffffffffffff16815260200190815260200160002060009054906101000a900460ff16905092915050565b60007f780e9d63000000000000000000000000000000000000000000000000000000007bffffffffffffffffffffffffffffffffffffffffffffffffffffffff1916827bffffffffffffffffffffffffffffffffffffffffffffffffffffffff19161480610f9a5750610f9982611902565b5b9050919050565b610faa816115b2565b610fe9576040517f08c379a0000000000000000000000000000000000000000000000000000000008152600401610fe090612e76565b60405180910390fd5b50565b600033905090565b816004600083815260200190815260200160002060006101000a81548173ffffffffffffffffffffffffffffffffffffffff021916908373ffffffffffffffffffffffffffffffffffffffff160217905550808273ffffffffffffffffffffffffffffffffffffffff16611067836109d4565b73ffffffffffffffffffffffffffffffffffffffff167f8c5be1e5ebec7d5bd14f71427d1e84f3dd0314c0f7b2291e5b200ac8c7c3b92560405160405180910390a45050565b600081600001549050919050565b6001816000016000828254019250508190555050565b6110eb8282604051806020016040528060008152506119e4565b5050565b6000806110fb836109d4565b90508073ffffffffffffffffffffffffffffffffffffffff168473ffffffffffffffffffffffffffffffffffffffff16148061113d575061113c8185610e93565b5b8061117b57508373ffffffffffffffffffffffffffffffffffffffff166111638461047e565b73ffffffffffffffffffffffffffffffffffffffff16145b91505092915050565b8273ffffffffffffffffffffffffffffffffffffffff166111a4826109d4565b73ffffffffffffffffffffffffffffffffffffffff16146111fa576040517f08c379a00000000000000000000000000000000000000000000000000000000081526004016111f190613c42565b60405180910390fd5b600073ffffffffffffffffffffffffffffffffffffffff168273ffffffffffffffffffffffffffffffffffffffff1603611269576040517f08c379a000000000000000000000000000000000000000000000000000000000815260040161126090613cd4565b60405180910390fd5b611274838383611a3f565b61127f600082610ff4565b6001600360008573ffffffffffffffffffffffffffffffffffffffff1673ffffffffffffffffffffffffffffffffffffffff16815260200190815260200160002060008282546112cf9190613d23565b925050819055506001600360008473ffffffffffffffffffffffffffffffffffffffff1673ffffffffffffffffffffffffffffffffffffffff16815260200190815260200160002060008282546113269190613d57565b92505081905550816002600083815260200190815260200160002060006101000a81548173ffffffffffffffffffffffffffffffffffffffff021916908373ffffffffffffffffffffffffffffffffffffffff160217905550808273ffffffffffffffffffffffffffffffffffffffff168473ffffffffffffffffffffffffffffffffffffffff167fddf252ad1be2c89b69c2b068fc378daa952ba7f163c4a11628f55a4df523b3ef60405160405180910390a46113e5838383611a4f565b505050565b8173ffffffffffffffffffffffffffffffffffffffff168373ffffffffffffffffffffffffffffffffffffffff1603611458576040517f08c379a000000000000000000000000000000000000000000000000000000000815260040161144f90613dd7565b60405180910390fd5b80600560008573ffffffffffffffffffffffffffffffffffffffff1673ffffffffffffffffffffffffffffffffffffffff16815260200190815260200160002060008473ffffffffffffffffffffffffffffffffffffffff1673ffffffffffffffffffffffffffffffffffffffff16815260200190815260200160002060006101000a81548160ff0219169083151502179055508173ffffffffffffffffffffffffffffffffffffffff168373ffffffffffffffffffffffffffffffffffffffff167f17307eab39ab6107e8899845ad3d59bd9653f200f220920489ca2b5937696c31836040516115499190612312565b60405180910390a3505050565b611561848484611184565b61156d84848484611a54565b6115ac576040517f08c379a00000000000000000000000000000000000000000000000000000000081526004016115a390613e69565b60405180910390fd5b50505050565b60008073ffffffffffffffffffffffffffffffffffffffff166002600084815260200190815260200160002060009054906101000a900473ffffffffffffffffffffffffffffffffffffffff1673ffffffffffffffffffffffffffffffffffffffff1614159050919050565b606060008203611665576040518060400160405280600181526020017f30000000000000000000000000000000000000000000000000000000000000008152509050611779565b600082905060005b6000821461169757808061168090613e89565b915050600a826116909190613f00565b915061166d565b60008167ffffffffffffffff8111156116b3576116b261267e565b5b6040519080825280601f01601f1916602001820160405280156116e55781602001600182028036833780820191505090505b5090505b60008514611772576001826116fe9190613d23565b9150600a8561170d9190613f31565b60306117199190613d57565b60f81b81838151811061172f5761172e612dfb565b5b60200101907effffffffffffffffffffffffffffffffffffffffffffffffffffffffffffff1916908160001a905350600a8561176b9190613f00565b94506116e9565b8093505050505b919050565b606060008251036117a0576040518060200160405280600081525090506118fd565b600060405180606001604052806040815260200161418f60409139905060006003600285516117cf9190613d57565b6117d99190613f00565b60046117e59190613f62565b905060006020826117f69190613d57565b67ffffffffffffffff81111561180f5761180e61267e565b5b6040519080825280601f01601f1916602001820160405280156118415781602001600182028036833780820191505090505b509050818152600183018586518101602084015b818310156118bc576003830192508251603f8160121c1685015160f81b8252600182019150603f81600c1c1685015160f81b8252600182019150603f8160061c1685015160f81b8252600182019150603f811685015160f81b825260018201915050611855565b6003895106600181146118d657600281146118e6576118f1565b613d3d60f01b60028303526118f1565b603d60f81b60018303525b50505050508093505050505b919050565b60007f80ac58cd000000000000000000000000000000000000000000000000000000007bffffffffffffffffffffffffffffffffffffffffffffffffffffffff1916827bffffffffffffffffffffffffffffffffffffffffffffffffffffffff191614806119cd57507f5b5e139f000000000000000000000000000000000000000000000000000000007bffffffffffffffffffffffffffffffffffffffffffffffffffffffff1916827bffffffffffffffffffffffffffffffffffffffffffffffffffffffff1916145b806119dd57506119dc82611bdb565b5b9050919050565b6119ee8383611c45565b6119fb6000848484611a54565b611a3a576040517f08c379a0000000000000000000000000000000000000000000000000000000008152600401611a3190613e69565b60405180910390fd5b505050565b611a4a838383611e1e565b505050565b505050565b6000611a758473ffffffffffffffffffffffffffffffffffffffff16611f30565b15611bce578373ffffffffffffffffffffffffffffffffffffffff1663150b7a02611a9e610fec565b8786866040518563ffffffff1660e01b8152600401611ac09493929190613ff9565b6020604051808303816000875af1925050508015611afc57506040513d601f19601f82011682018060405250810190611af9919061405a565b60015b611b7e573d8060008114611b2c576040519150601f19603f3d011682016040523d82523d6000602084013e611b31565b606091505b506000815103611b76576040517f08c379a0000000000000000000000000000000000000000000000000000000008152600401611b6d90613e69565b60405180910390fd5b805181602001fd5b63150b7a0260e01b7bffffffffffffffffffffffffffffffffffffffffffffffffffffffff1916817bffffffffffffffffffffffffffffffffffffffffffffffffffffffff191614915050611bd3565b600190505b949350505050565b60007f01ffc9a7000000000000000000000000000000000000000000000000000000007bffffffffffffffffffffffffffffffffffffffffffffffffffffffff1916827bffffffffffffffffffffffffffffffffffffffffffffffffffffffff1916149050919050565b600073ffffffffffffffffffffffffffffffffffffffff168273ffffffffffffffffffffffffffffffffffffffff1603611cb4576040517f08c379a0000000000000000000000000000000000000000000000000000000008152600401611cab906140d3565b60405180910390fd5b611cbd816115b2565b15611cfd576040517f08c379a0000000000000000000000000000000000000000000000000000000008152600401611cf49061413f565b60405180910390fd5b611d0960008383611a3f565b6001600360008473ffffffffffffffffffffffffffffffffffffffff1673ffffffffffffffffffffffffffffffffffffffff1681526020019081526020016000206000828254611d599190613d57565b92505081905550816002600083815260200190815260200160002060006101000a81548173ffffffffffffffffffffffffffffffffffffffff021916908373ffffffffffffffffffffffffffffffffffffffff160217905550808273ffffffffffffffffffffffffffffffffffffffff16600073ffffffffffffffffffffffffffffffffffffffff167fddf252ad1be2c89b69c2b068fc378daa952ba7f163c4a11628f55a4df523b3ef60405160405180910390a4611e1a60008383611a4f565b5050565b611e29838383611f53565b600073ffffffffffffffffffffffffffffffffffffffff168373ffffffffffffffffffffffffffffffffffffffff1603611e6b57611e6681611f58565b611eaa565b8173ffffffffffffffffffffffffffffffffffffffff168373ffffffffffffffffffffffffffffffffffffffff1614611ea957611ea88382611fa1565b5b5b600073ffffffffffffffffffffffffffffffffffffffff168273ffffffffffffffffffffffffffffffffffffffff1603611eec57611ee78161210e565b611f2b565b8273ffffffffffffffffffffffffffffffffffffffff168273ffffffffffffffffffffffffffffffffffffffff1614611f2a57611f2982826121df565b5b5b505050565b6000808273ffffffffffffffffffffffffffffffffffffffff163b119050919050565b505050565b6008805490506009600083815260200190815260200160002081905550600881908060018154018082558091505060019003906000526020600020016000909190919091505550565b60006001611fae84610a85565b611fb89190613d23565b905060006007600084815260200190815260200160002054905081811461209d576000600660008673ffffffffffffffffffffffffffffffffffffffff1673ffffffffffffffffffffffffffffffffffffffff168152602001908152602001600020600084815260200190815260200160002054905080600660008773ffffffffffffffffffffffffffffffffffffffff1673ffffffffffffffffffffffffffffffffffffffff168152602001908152602001600020600084815260200190815260200160002081905550816007600083815260200190815260200160002081905550505b6007600084815260200190815260200160002060009055600660008573ffffffffffffffffffffffffffffffffffffffff1673ffffffffffffffffffffffffffffffffffffffff16815260200190815260200160002060008381526020019081526020016000206000905550505050565b600060016008805490506121229190613d23565b905060006009600084815260200190815260200160002054905060006008838154811061215257612151612dfb565b5b90600052602060002001549050806008838154811061217457612173612dfb565b5b9060005260206000200181905550816009600083815260200190815260200160002081905550600960008581526020019081526020016000206000905560088054806121c3576121c261415f565b5b6001900381819060005260206000200160009055905550505050565b60006121ea83610a85565b905081600660008573ffffffffffffffffffffffffffffffffffffffff1673ffffffffffffffffffffffffffffffffffffffff168152602001908152602001600020600083815260200190815260200160002081905550806007600084815260200190815260200160002081905550505050565b6000604051905090565b600080fd5b600080fd5b60007fffffffff0000000000000000000000000000000000000000000000000000000082169050919050565b6122a781612272565b81146122b257600080fd5b50565b6000813590506122c48161229e565b92915050565b6000602082840312156122e0576122df612268565b5b60006122ee848285016122b5565b91505092915050565b60008115159050919050565b61230c816122f7565b82525050565b60006020820190506123276000830184612303565b92915050565b600081519050919050565b600082825260208201905092915050565b60005b8381101561236757808201518184015260208101905061234c565b60008484015250505050565b6000601f19601f8301169050919050565b600061238f8261232d565b6123998185612338565b93506123a9818560208601612349565b6123b281612373565b840191505092915050565b600060208201905081810360008301526123d78184612384565b905092915050565b6000819050919050565b6123f2816123df565b81146123fd57600080fd5b50565b60008135905061240f816123e9565b92915050565b60006020828403121561242b5761242a612268565b5b600061243984828501612400565b91505092915050565b600073ffffffffffffffffffffffffffffffffffffffff82169050919050565b600061246d82612442565b9050919050565b61247d81612462565b82525050565b60006020820190506124986000830184612474565b92915050565b6124a781612462565b81146124b257600080fd5b50565b6000813590506124c48161249e565b92915050565b600080604083850312156124e1576124e0612268565b5b60006124ef858286016124b5565b925050602061250085828601612400565b9150509250929050565b612513816123df565b82525050565b600060208201905061252e600083018461250a565b92915050565b60008060006060848603121561254d5761254c612268565b5b600061255b868287016124b5565b935050602061256c868287016124b5565b925050604061257d86828701612400565b9150509250925092565b60006101608201905081810360008301526125a2818e612384565b905081810360208301526125b6818d612384565b90506125c5604083018c61250a565b6125d2606083018b61250a565b6125df608083018a61250a565b6125ec60a083018961250a565b6125f960c083018861250a565b61260660e083018761250a565b612614610100830186612303565b612622610120830185612303565b8181036101408301526126358184612384565b90509c9b505050505050505050505050565b60006020828403121561265d5761265c612268565b5b600061266b848285016124b5565b91505092915050565b600080fd5b600080fd5b7f4e487b7100000000000000000000000000000000000000000000000000000000600052604160045260246000fd5b6126b682612373565b810181811067ffffffffffffffff821117156126d5576126d461267e565b5b80604052505050565b60006126e861225e565b90506126f482826126ad565b919050565b600067ffffffffffffffff8211156127145761271361267e565b5b61271d82612373565b9050602081019050919050565b82818337600083830152505050565b600061274c612747846126f9565b6126de565b90508281526020810184848401111561276857612767612679565b5b61277384828561272a565b509392505050565b600082601f8301126127905761278f612674565b5b81356127a0848260208601612739565b91505092915050565b6127b2816122f7565b81146127bd57600080fd5b50565b6000813590506127cf816127a9565b92915050565b60008060008060008060008060008060006101608c8e0312156127fb576127fa612268565b5b60008c013567ffffffffffffffff8111156128195761281861226d565b5b6128258e828f0161277b565b9b505060208c013567ffffffffffffffff8111156128465761284561226d565b5b6128528e828f0161277b565b9a505060406128638e828f01612400565b99505060606128748e828f01612400565b98505060806128858e828f01612400565b97505060a06128968e828f01612400565b96505060c06128a78e828f01612400565b95505060e06128b88e828f01612400565b9450506101006128ca8e828f016127c0565b9350506101206128dc8e828f016127c0565b9250506101408c013567ffffffffffffffff8111156128fe576128fd61226d565b5b61290a8e828f0161277b565b9150509295989b509295989b9093969950565b6000806040838503121561293457612933612268565b5b6000612942858286016124b5565b9250506020612953858286016127c0565b9150509250929050565b600067ffffffffffffffff8211156129785761297761267e565b5b61298182612373565b9050602081019050919050565b60006129a161299c8461295d565b6126de565b9050828152602081018484840111156129bd576129bc612679565b5b6129c884828561272a565b509392505050565b600082601f8301126129e5576129e4612674565b5b81356129f584826020860161298e565b91505092915050565b60008060008060808587031215612a1857612a17612268565b5b6000612a26878288016124b5565b9450506020612a37878288016124b5565b9350506040612a4887828801612400565b925050606085013567ffffffffffffffff811115612a6957612a6861226d565b5b612a75878288016129d0565b91505092959194509250565b60008060408385031215612a9857612a97612268565b5b6000612aa6858286016124b5565b9250506020612ab7858286016124b5565b9150509250929050565b7f4e487b7100000000000000000000000000000000000000000000000000000000600052602260045260246000fd5b60006002820490506001821680612b0857607f821691505b602082108103612b1b57612b1a612ac1565b5b50919050565b7f4552433732313a20617070726f76616c20746f2063757272656e74206f776e6560008201527f7200000000000000000000000000000000000000000000000000000000000000602082015250565b6000612b7d602183612338565b9150612b8882612b21565b604082019050919050565b60006020820190508181036000830152612bac81612b70565b9050919050565b7f4552433732313a20617070726f76652063616c6c6572206973206e6f7420746f60008201527f6b656e206f776e6572206e6f7220617070726f76656420666f7220616c6c0000602082015250565b6000612c0f603e83612338565b9150612c1a82612bb3565b604082019050919050565b60006020820190508181036000830152612c3e81612c02565b9050919050565b7f4552433732313a2063616c6c6572206973206e6f7420746f6b656e206f776e6560008201527f72206e6f7220617070726f766564000000000000000000000000000000000000602082015250565b6000612ca1602e83612338565b9150612cac82612c45565b604082019050919050565b60006020820190508181036000830152612cd081612c94565b9050919050565b7f455243373231456e756d657261626c653a206f776e657220696e646578206f7560008201527f74206f6620626f756e6473000000000000000000000000000000000000000000602082015250565b6000612d33602b83612338565b9150612d3e82612cd7565b604082019050919050565b60006020820190508181036000830152612d6281612d26565b9050919050565b7f455243373231456e756d657261626c653a20676c6f62616c20696e646578206f60008201527f7574206f6620626f756e64730000000000000000000000000000000000000000602082015250565b6000612dc5602c83612338565b9150612dd082612d69565b604082019050919050565b60006020820190508181036000830152612df481612db8565b9050919050565b7f4e487b7100000000000000000000000000000000000000000000000000000000600052603260045260246000fd5b7f4552433732313a20696e76616c696420746f6b656e2049440000000000000000600082015250565b6000612e60601883612338565b9150612e6b82612e2a565b602082019050919050565b60006020820190508181036000830152612e8f81612e53565b9050919050565b7f4552433732313a2061646472657373207a65726f206973206e6f74206120766160008201527f6c6964206f776e65720000000000000000000000000000000000000000000000602082015250565b6000612ef2602983612338565b9150612efd82612e96565b604082019050919050565b60006020820190508181036000830152612f2181612ee5565b9050919050565b60008190508160005260206000209050919050565b60006020601f8301049050919050565b600082821b905092915050565b600060088302612f8a7fffffffffffffffffffffffffffffffffffffffffffffffffffffffffffffffff82612f4d565b612f948683612f4d565b95508019841693508086168417925050509392505050565b6000819050919050565b6000612fd1612fcc612fc7846123df565b612fac565b6123df565b9050919050565b6000819050919050565b612feb83612fb6565b612fff612ff782612fd8565b848454612f5a565b825550505050565b600090565b613014613007565b61301f818484612fe2565b505050565b5b818110156130435761303860008261300c565b600181019050613025565b5050565b601f8211156130885761305981612f28565b61306284612f3d565b81016020851015613071578190505b61308561307d85612f3d565b830182613024565b50505b505050565b600082821c905092915050565b60006130ab6000198460080261308d565b1980831691505092915050565b60006130c4838361309a565b9150826002028217905092915050565b6130dd8261232d565b67ffffffffffffffff8111156130f6576130f561267e565b5b6131008254612af0565b61310b828285613047565b600060209050601f83116001811461313e576000841561312c578287015190505b61313685826130b8565b86555061319e565b601f19841661314c86612f28565b60005b828110156131745784890151825560018201915060208501945060208101905061314f565b86831015613191578489015161318d601f89168261309a565b8355505b6001600288020188555050505b505050505050565b7f455243373231204d657461646174613a2055524920717565727920666f72206e60008201527f6f6e6578697374656e7420746f6b656e00000000000000000000000000000000602082015250565b6000613202603083612338565b915061320d826131a6565b604082019050919050565b60006020820190508181036000830152613231816131f5565b9050919050565b600081905092915050565b7f7b226e616d65223a220000000000000000000000000000000000000000000000600082015250565b6000613279600983613238565b915061328482613243565b600982019050919050565b7f5465737420566573746100000000000000000000000000000000000000000000600082015250565b60006132c5600a83613238565b91506132d08261328f565b600a82019050919050565b7f222c226465736372697074696f6e223a22000000000000000000000000000000600082015250565b6000613311601183613238565b915061331c826132db565b601182019050919050565b7f54657374207369206573746520666f726d61746f2066756e63696f6e61000000600082015250565b600061335d601d83613238565b915061336882613327565b601d82019050919050565b7f222c22696d616765223a22000000000000000000000000000000000000000000600082015250565b60006133a9600b83613238565b91506133b482613373565b600b82019050919050565b7f68747470733a2f2f676174657761792e70696e6174612e636c6f75642f69706660008201527f732f516d6465373471686772327854746178427847396153456375676266435660208201527f5a6d3264646b6a456a7977726e75575700000000000000000000000000000000604082015250565b6000613441605083613238565b915061344c826133bf565b605082019050919050565b7f222c2261747472696275746573223a5b7b2274726169745f74797065223a225460008201527f79706f6c6f6779222c2276616c7565223a220000000000000000000000000000602082015250565b60006134b3603283613238565b91506134be82613457565b603282019050919050565b600081546134d681612af0565b6134e08186613238565b945060018216600081146134fb576001811461351057613543565b60ff1983168652811515820286019350613543565b61351985612f28565b60005b8381101561353b5781548189015260018201915060208101905061351c565b838801955050505b50505092915050565b7f227d2c7b2274726169745f74797065223a202259656172206275696c74222c2260008201527f76616c7565223a22000000000000000000000000000000000000000000000000602082015250565b60006135a8602883613238565b91506135b38261354c565b602882019050919050565b60006135c98261232d565b6135d38185613238565b93506135e3818560208601612349565b80840191505092915050565b7f227d2c7b2274726169745f74797065223a2022537175617265206d657465727360008201527f222c2276616c7565223a22000000000000000000000000000000000000000000602082015250565b600061364b602b83613238565b9150613656826135ef565b602b82019050919050565b7f227d2c7b2274726169745f74797065223a2022526f6f6d73222c2276616c756560008201527f223a220000000000000000000000000000000000000000000000000000000000602082015250565b60006136bd602383613238565b91506136c882613661565b602382019050919050565b7f227d2c7b2274726169745f74797065223a202242617468726f6f6d73222c227660008201527f616c7565223a2200000000000000000000000000000000000000000000000000602082015250565b600061372f602783613238565b915061373a826136d3565b602782019050919050565b7f227d2c7b2274726169745f74797065223a20224c6576656c73222c2276616c7560008201527f65223a2200000000000000000000000000000000000000000000000000000000602082015250565b60006137a1602483613238565b91506137ac82613745565b602482019050919050565b7f227d2c7b2274726169745f74797065223a20225061726b696e6773222c22766160008201527f6c7565223a220000000000000000000000000000000000000000000000000000602082015250565b6000613813602683613238565b915061381e826137b7565b602682019050919050565b7f227d2c7b2274726169745f74797065223a202259617264222c2276616c75652260008201527f3a22000000000000000000000000000000000000000000000000000000000000602082015250565b6000613885602283613238565b915061389082613829565b602282019050919050565b60008160f81b9050919050565b60006138b38261389b565b9050919050565b60006138c5826138a8565b9050919050565b6138dd6138d8826122f7565b6138ba565b82525050565b7f227d2c7b2274726169745f74797065223a2022506f6f6c222c2276616c75652260008201527f3a22000000000000000000000000000000000000000000000000000000000000602082015250565b600061393f602283613238565b915061394a826138e3565b602282019050919050565b7f227d2c7b2274726169745f74797065223a20226c6f636174696f6e222c22766160008201527f6c7565223a220000000000000000000000000000000000000000000000000000602082015250565b60006139b1602683613238565b91506139bc82613955565b602682019050919050565b7f227d5d7d00000000000000000000000000000000000000000000000000000000600082015250565b60006139fd600483613238565b9150613a08826139c7565b600482019050919050565b6000613a1e8261326c565b9150613a29826132b8565b9150613a3482613304565b9150613a3f82613350565b9150613a4a8261339c565b9150613a5582613434565b9150613a60826134a6565b9150613a6c828d6134c9565b9150613a778261359b565b9150613a83828c6135be565b9150613a8e8261363e565b9150613a9a828b6135be565b9150613aa5826136b0565b9150613ab1828a6135be565b9150613abc82613722565b9150613ac882896135be565b9150613ad382613794565b9150613adf82886135be565b9150613aea82613806565b9150613af682876135be565b9150613b0182613878565b9150613b0d82866138cc565b600182019150613b1c82613932565b9150613b2882856138cc565b600182019150613b37826139a4565b9150613b4382846134c9565b9150613b4e826139f0565b91508190509b9a5050505050505050505050565b7f646174613a6170706c69636174696f6e2f6a736f6e3b6261736536342c000000600082015250565b6000613b98601d83613238565b9150613ba382613b62565b601d82019050919050565b6000613bb982613b8b565b9150613bc582846135be565b915081905092915050565b7f4552433732313a207472616e736665722066726f6d20696e636f72726563742060008201527f6f776e6572000000000000000000000000000000000000000000000000000000602082015250565b6000613c2c602583612338565b9150613c3782613bd0565b604082019050919050565b60006020820190508181036000830152613c5b81613c1f565b9050919050565b7f4552433732313a207472616e7366657220746f20746865207a65726f2061646460008201527f7265737300000000000000000000000000000000000000000000000000000000602082015250565b6000613cbe602483612338565b9150613cc982613c62565b604082019050919050565b60006020820190508181036000830152613ced81613cb1565b9050919050565b7f4e487b7100000000000000000000000000000000000000000000000000000000600052601160045260246000fd5b6000613d2e826123df565b9150613d39836123df565b9250828203905081811115613d5157613d50613cf4565b5b92915050565b6000613d62826123df565b9150613d6d836123df565b9250828201905080821115613d8557613d84613cf4565b5b92915050565b7f4552433732313a20617070726f766520746f2063616c6c657200000000000000600082015250565b6000613dc1601983612338565b9150613dcc82613d8b565b602082019050919050565b60006020820190508181036000830152613df081613db4565b9050919050565b7f4552433732313a207472616e7366657220746f206e6f6e20455243373231526560008201527f63656976657220696d706c656d656e7465720000000000000000000000000000602082015250565b6000613e53603283612338565b9150613e5e82613df7565b604082019050919050565b60006020820190508181036000830152613e8281613e46565b9050919050565b6000613e94826123df565b91507fffffffffffffffffffffffffffffffffffffffffffffffffffffffffffffffff8203613ec657613ec5613cf4565b5b600182019050919050565b7f4e487b7100000000000000000000000000000000000000000000000000000000600052601260045260246000fd5b6000613f0b826123df565b9150613f16836123df565b925082613f2657613f25613ed1565b5b828204905092915050565b6000613f3c826123df565b9150613f47836123df565b925082613f5757613f56613ed1565b5b828206905092915050565b6000613f6d826123df565b9150613f78836123df565b9250828202613f86816123df565b91508282048414831517613f9d57613f9c613cf4565b5b5092915050565b600081519050919050565b600082825260208201905092915050565b6000613fcb82613fa4565b613fd58185613faf565b9350613fe5818560208601612349565b613fee81612373565b840191505092915050565b600060808201905061400e6000830187612474565b61401b6020830186612474565b614028604083018561250a565b818103606083015261403a8184613fc0565b905095945050505050565b6000815190506140548161229e565b92915050565b6000602082840312156140705761406f612268565b5b600061407e84828501614045565b91505092915050565b7f4552433732313a206d696e7420746f20746865207a65726f2061646472657373600082015250565b60006140bd602083612338565b91506140c882614087565b602082019050919050565b600060208201905081810360008301526140ec816140b0565b9050919050565b7f4552433732313a20746f6b656e20616c7265616479206d696e74656400000000600082015250565b6000614129601c83612338565b9150614134826140f3565b602082019050919050565b600060208201905081810360008301526141588161411c565b9050919050565b7f4e487b7100000000000000000000000000000000000000000000000000000000600052603160045260246000fdfe4142434445464748494a4b4c4d4e4f505152535455565758595a6162636465666768696a6b6c6d6e6f707172737475767778797a303132333435363738392b2fa264697066735822122012a7cddaf551b578bfc10da0b21f2964744190375184867d77925c923f9ac0ef64736f6c63430008110033","opcodes":"PUSH1 0x80 PUSH1 0x40 MSTORE CALLVALUE DUP1 ISZERO PUSH3 0x11 JUMPI PUSH1 0x0 DUP1 REVERT JUMPDEST POP PUSH1 0x40 MLOAD DUP1 PUSH1 0x40 ADD PUSH1 0x40 MSTORE DUP1 PUSH1 0x5 DUP2 MSTORE PUSH1 0x20 ADD PUSH32 0x5665737461000000000000000000000000000000000000000000000000000000 DUP2 MSTORE POP PUSH1 0x40 MLOAD DUP1 PUSH1 0x40 ADD PUSH1 0x40 MSTORE DUP1 PUSH1 0x1 DUP2 MSTORE PUSH1 0x20 ADD PUSH32 0x5600000000000000000000000000000000000000000000000000000000000000 DUP2 MSTORE POP DUP2 PUSH1 0x0 SWAP1 DUP2 PUSH3 0x8F SWAP2 SWAP1 PUSH3 0x324 JUMP JUMPDEST POP DUP1 PUSH1 0x1 SWAP1 DUP2 PUSH3 0xA1 SWAP2 SWAP1 PUSH3 0x324 JUMP JUMPDEST POP POP POP PUSH3 0x40B JUMP JUMPDEST PUSH1 0x0 DUP2 MLOAD SWAP1 POP SWAP2 SWAP1 POP JUMP JUMPDEST PUSH32 0x4E487B7100000000000000000000000000000000000000000000000000000000 PUSH1 0x0 MSTORE PUSH1 0x41 PUSH1 0x4 MSTORE PUSH1 0x24 PUSH1 0x0 REVERT JUMPDEST PUSH32 0x4E487B7100000000000000000000000000000000000000000000000000000000 PUSH1 0x0 MSTORE PUSH1 0x22 PUSH1 0x4 MSTORE PUSH1 0x24 PUSH1 0x0 REVERT JUMPDEST PUSH1 0x0 PUSH1 0x2 DUP3 DIV SWAP1 POP PUSH1 0x1 DUP3 AND DUP1 PUSH3 0x12C JUMPI PUSH1 0x7F DUP3 AND SWAP2 POP JUMPDEST PUSH1 0x20 DUP3 LT DUP2 SUB PUSH3 0x142 JUMPI PUSH3 0x141 PUSH3 0xE4 JUMP JUMPDEST JUMPDEST POP SWAP2 SWAP1 POP JUMP JUMPDEST PUSH1 0x0 DUP2 SWAP1 POP DUP2 PUSH1 0x0 MSTORE PUSH1 0x20 PUSH1 0x0 KECCAK256 SWAP1 POP SWAP2 SWAP1 POP JUMP JUMPDEST PUSH1 0x0 PUSH1 0x20 PUSH1 0x1F DUP4 ADD DIV SWAP1 POP SWAP2 SWAP1 POP JUMP JUMPDEST PUSH1 0x0 DUP3 DUP3 SHL SWAP1 POP SWAP3 SWAP2 POP POP JUMP JUMPDEST PUSH1 0x0 PUSH1 0x8 DUP4 MUL PUSH3 0x1AC PUSH32 0xFFFFFFFFFFFFFFFFFFFFFFFFFFFFFFFFFFFFFFFFFFFFFFFFFFFFFFFFFFFFFFFF DUP3 PUSH3 0x16D JUMP JUMPDEST PUSH3 0x1B8 DUP7 DUP4 PUSH3 0x16D JUMP JUMPDEST SWAP6 POP DUP1 NOT DUP5 AND SWAP4 POP DUP1 DUP7 AND DUP5 OR SWAP3 POP POP POP SWAP4 SWAP3 POP POP POP JUMP JUMPDEST PUSH1 0x0 DUP2 SWAP1 POP SWAP2 SWAP1 POP JUMP JUMPDEST PUSH1 0x0 DUP2 SWAP1 POP SWAP2 SWAP1 POP JUMP JUMPDEST PUSH1 0x0 PUSH3 0x205 PUSH3 0x1FF PUSH3 0x1F9 DUP5 PUSH3 0x1D0 JUMP JUMPDEST PUSH3 0x1DA JUMP JUMPDEST PUSH3 0x1D0 JUMP JUMPDEST SWAP1 POP SWAP2 SWAP1 POP JUMP JUMPDEST PUSH1 0x0 DUP2 SWAP1 POP SWAP2 SWAP1 POP JUMP JUMPDEST PUSH3 0x221 DUP4 PUSH3 0x1E4 JUMP JUMPDEST PUSH3 0x239 PUSH3 0x230 DUP3 PUSH3 0x20C JUMP JUMPDEST DUP5 DUP5 SLOAD PUSH3 0x17A JUMP JUMPDEST DUP3 SSTORE POP POP POP POP JUMP JUMPDEST PUSH1 0x0 SWAP1 JUMP JUMPDEST PUSH3 0x250 PUSH3 0x241 JUMP JUMPDEST PUSH3 0x25D DUP2 DUP5 DUP5 PUSH3 0x216 JUMP JUMPDEST POP POP POP JUMP JUMPDEST JUMPDEST DUP2 DUP2 LT ISZERO PUSH3 0x285 JUMPI PUSH3 0x279 PUSH1 0x0 DUP3 PUSH3 0x246 JUMP JUMPDEST PUSH1 0x1 DUP2 ADD SWAP1 POP PUSH3 0x263 JUMP JUMPDEST POP POP JUMP JUMPDEST PUSH1 0x1F DUP3 GT ISZERO PUSH3 0x2D4 JUMPI PUSH3 0x29E DUP2 PUSH3 0x148 JUMP JUMPDEST PUSH3 0x2A9 DUP5 PUSH3 0x15D JUMP JUMPDEST DUP2 ADD PUSH1 0x20 DUP6 LT ISZERO PUSH3 0x2B9 JUMPI DUP2 SWAP1 POP JUMPDEST PUSH3 0x2D1 PUSH3 0x2C8 DUP6 PUSH3 0x15D JUMP JUMPDEST DUP4 ADD DUP3 PUSH3 0x262 JUMP JUMPDEST POP POP JUMPDEST POP POP POP JUMP JUMPDEST PUSH1 0x0 DUP3 DUP3 SHR SWAP1 POP SWAP3 SWAP2 POP POP JUMP JUMPDEST PUSH1 0x0 PUSH3 0x2F9 PUSH1 0x0 NOT DUP5 PUSH1 0x8 MUL PUSH3 0x2D9 JUMP JUMPDEST NOT DUP1 DUP4 AND SWAP2 POP POP SWAP3 SWAP2 POP POP JUMP JUMPDEST PUSH1 0x0 PUSH3 0x314 DUP4 DUP4 PUSH3 0x2E6 JUMP JUMPDEST SWAP2 POP DUP3 PUSH1 0x2 MUL DUP3 OR SWAP1 POP SWAP3 SWAP2 POP POP JUMP JUMPDEST PUSH3 0x32F DUP3 PUSH3 0xAA JUMP JUMPDEST PUSH8 0xFFFFFFFFFFFFFFFF DUP2 GT ISZERO PUSH3 0x34B JUMPI PUSH3 0x34A PUSH3 0xB5 JUMP JUMPDEST JUMPDEST PUSH3 0x357 DUP3 SLOAD PUSH3 0x113 JUMP JUMPDEST PUSH3 0x364 DUP3 DUP3 DUP6 PUSH3 0x289 JUMP JUMPDEST PUSH1 0x0 PUSH1 0x20 SWAP1 POP PUSH1 0x1F DUP4 GT PUSH1 0x1 DUP2 EQ PUSH3 0x39C JUMPI PUSH1 0x0 DUP5 ISZERO PUSH3 0x387 JUMPI DUP3 DUP8 ADD MLOAD SWAP1 POP JUMPDEST PUSH3 0x393 DUP6 DUP3 PUSH3 0x306 JUMP JUMPDEST DUP7 SSTORE POP PUSH3 0x403 JUMP JUMPDEST PUSH1 0x1F NOT DUP5 AND PUSH3 0x3AC DUP7 PUSH3 0x148 JUMP JUMPDEST PUSH1 0x0 JUMPDEST DUP3 DUP2 LT ISZERO PUSH3 0x3D6 JUMPI DUP5 DUP10 ADD MLOAD DUP3 SSTORE PUSH1 0x1 DUP3 ADD SWAP2 POP PUSH1 0x20 DUP6 ADD SWAP5 POP PUSH1 0x20 DUP2 ADD SWAP1 POP PUSH3 0x3AF JUMP JUMPDEST DUP7 DUP4 LT ISZERO PUSH3 0x3F6 JUMPI DUP5 DUP10 ADD MLOAD PUSH3 0x3F2 PUSH1 0x1F DUP10 AND DUP3 PUSH3 0x2E6 JUMP JUMPDEST DUP4 SSTORE POP JUMPDEST PUSH1 0x1 PUSH1 0x2 DUP9 MUL ADD DUP9 SSTORE POP POP POP JUMPDEST POP POP POP POP POP POP JUMP JUMPDEST PUSH2 0x4204 DUP1 PUSH3 0x41B PUSH1 0x0 CODECOPY PUSH1 0x0 RETURN INVALID PUSH1 0x80 PUSH1 0x40 MSTORE CALLVALUE DUP1 ISZERO PUSH2 0x10 JUMPI PUSH1 0x0 DUP1 REVERT JUMPDEST POP PUSH1 0x4 CALLDATASIZE LT PUSH2 0x121 JUMPI PUSH1 0x0 CALLDATALOAD PUSH1 0xE0 SHR DUP1 PUSH4 0x42842E0E GT PUSH2 0xAD JUMPI DUP1 PUSH4 0x95D89B41 GT PUSH2 0x71 JUMPI DUP1 PUSH4 0x95D89B41 EQ PUSH2 0x324 JUMPI DUP1 PUSH4 0xA22CB465 EQ PUSH2 0x342 JUMPI DUP1 PUSH4 0xB88D4FDE EQ PUSH2 0x35E JUMPI DUP1 PUSH4 0xC87B56DD EQ PUSH2 0x37A JUMPI DUP1 PUSH4 0xE985E9C5 EQ PUSH2 0x3AA JUMPI PUSH2 0x121 JUMP JUMPDEST DUP1 PUSH4 0x42842E0E EQ PUSH2 0x25C JUMPI DUP1 PUSH4 0x4F6CCCE7 EQ PUSH2 0x278 JUMPI DUP1 PUSH4 0x6352211E EQ PUSH2 0x2A8 JUMPI DUP1 PUSH4 0x70A08231 EQ PUSH2 0x2D8 JUMPI DUP1 PUSH4 0x7E06FCC7 EQ PUSH2 0x308 JUMPI PUSH2 0x121 JUMP JUMPDEST DUP1 PUSH4 0x1249C58B GT PUSH2 0xF4 JUMPI DUP1 PUSH4 0x1249C58B EQ PUSH2 0x1C0 JUMPI DUP1 PUSH4 0x18160DDD EQ PUSH2 0x1CA JUMPI DUP1 PUSH4 0x23B872DD EQ PUSH2 0x1E8 JUMPI DUP1 PUSH4 0x2F745C59 EQ PUSH2 0x204 JUMPI DUP1 PUSH4 0x3AB32F9C EQ PUSH2 0x234 JUMPI PUSH2 0x121 JUMP JUMPDEST DUP1 PUSH4 0x1FFC9A7 EQ PUSH2 0x126 JUMPI DUP1 PUSH4 0x6FDDE03 EQ PUSH2 0x156 JUMPI DUP1 PUSH4 0x81812FC EQ PUSH2 0x174 JUMPI DUP1 PUSH4 0x95EA7B3 EQ PUSH2 0x1A4 JUMPI JUMPDEST PUSH1 0x0 DUP1 REVERT JUMPDEST PUSH2 0x140 PUSH1 0x4 DUP1 CALLDATASIZE SUB DUP2 ADD SWAP1 PUSH2 0x13B SWAP2 SWAP1 PUSH2 0x22CA JUMP JUMPDEST PUSH2 0x3DA JUMP JUMPDEST PUSH1 0x40 MLOAD PUSH2 0x14D SWAP2 SWAP1 PUSH2 0x2312 JUMP JUMPDEST PUSH1 0x40 MLOAD DUP1 SWAP2 SUB SWAP1 RETURN JUMPDEST PUSH2 0x15E PUSH2 0x3EC JUMP JUMPDEST PUSH1 0x40 MLOAD PUSH2 0x16B SWAP2 SWAP1 PUSH2 0x23BD JUMP JUMPDEST PUSH1 0x40 MLOAD DUP1 SWAP2 SUB SWAP1 RETURN JUMPDEST PUSH2 0x18E PUSH1 0x4 DUP1 CALLDATASIZE SUB DUP2 ADD SWAP1 PUSH2 0x189 SWAP2 SWAP1 PUSH2 0x2415 JUMP JUMPDEST PUSH2 0x47E JUMP JUMPDEST PUSH1 0x40 MLOAD PUSH2 0x19B SWAP2 SWAP1 PUSH2 0x2483 JUMP JUMPDEST PUSH1 0x40 MLOAD DUP1 SWAP2 SUB SWAP1 RETURN JUMPDEST PUSH2 0x1BE PUSH1 0x4 DUP1 CALLDATASIZE SUB DUP2 ADD SWAP1 PUSH2 0x1B9 SWAP2 SWAP1 PUSH2 0x24CA JUMP JUMPDEST PUSH2 0x4C4 JUMP JUMPDEST STOP JUMPDEST PUSH2 0x1C8 PUSH2 0x5DB JUMP JUMPDEST STOP JUMPDEST PUSH2 0x1D2 PUSH2 0x600 JUMP JUMPDEST PUSH1 0x40 MLOAD PUSH2 0x1DF SWAP2 SWAP1 PUSH2 0x2519 JUMP JUMPDEST PUSH1 0x40 MLOAD DUP1 SWAP2 SUB SWAP1 RETURN JUMPDEST PUSH2 0x202 PUSH1 0x4 DUP1 CALLDATASIZE SUB DUP2 ADD SWAP1 PUSH2 0x1FD SWAP2 SWAP1 PUSH2 0x2534 JUMP JUMPDEST PUSH2 0x60D JUMP JUMPDEST STOP JUMPDEST PUSH2 0x21E PUSH1 0x4 DUP1 CALLDATASIZE SUB DUP2 ADD SWAP1 PUSH2 0x219 SWAP2 SWAP1 PUSH2 0x24CA JUMP JUMPDEST PUSH2 0x66D JUMP JUMPDEST PUSH1 0x40 MLOAD PUSH2 0x22B SWAP2 SWAP1 PUSH2 0x2519 JUMP JUMPDEST PUSH1 0x40 MLOAD DUP1 SWAP2 SUB SWAP1 RETURN JUMPDEST PUSH2 0x23C PUSH2 0x712 JUMP JUMPDEST PUSH1 0x40 MLOAD PUSH2 0x253 SWAP12 SWAP11 SWAP10 SWAP9 SWAP8 SWAP7 SWAP6 SWAP5 SWAP4 SWAP3 SWAP2 SWAP1 PUSH2 0x2587 JUMP JUMPDEST PUSH1 0x40 MLOAD DUP1 SWAP2 SUB SWAP1 RETURN JUMPDEST PUSH2 0x276 PUSH1 0x4 DUP1 CALLDATASIZE SUB DUP2 ADD SWAP1 PUSH2 0x271 SWAP2 SWAP1 PUSH2 0x2534 JUMP JUMPDEST PUSH2 0x943 JUMP JUMPDEST STOP JUMPDEST PUSH2 0x292 PUSH1 0x4 DUP1 CALLDATASIZE SUB DUP2 ADD SWAP1 PUSH2 0x28D SWAP2 SWAP1 PUSH2 0x2415 JUMP JUMPDEST PUSH2 0x963 JUMP JUMPDEST PUSH1 0x40 MLOAD PUSH2 0x29F SWAP2 SWAP1 PUSH2 0x2519 JUMP JUMPDEST PUSH1 0x40 MLOAD DUP1 SWAP2 SUB SWAP1 RETURN JUMPDEST PUSH2 0x2C2 PUSH1 0x4 DUP1 CALLDATASIZE SUB DUP2 ADD SWAP1 PUSH2 0x2BD SWAP2 SWAP1 PUSH2 0x2415 JUMP JUMPDEST PUSH2 0x9D4 JUMP JUMPDEST PUSH1 0x40 MLOAD PUSH2 0x2CF SWAP2 SWAP1 PUSH2 0x2483 JUMP JUMPDEST PUSH1 0x40 MLOAD DUP1 SWAP2 SUB SWAP1 RETURN JUMPDEST PUSH2 0x2F2 PUSH1 0x4 DUP1 CALLDATASIZE SUB DUP2 ADD SWAP1 PUSH2 0x2ED SWAP2 SWAP1 PUSH2 0x2647 JUMP JUMPDEST PUSH2 0xA85 JUMP JUMPDEST PUSH1 0x40 MLOAD PUSH2 0x2FF SWAP2 SWAP1 PUSH2 0x2519 JUMP JUMPDEST PUSH1 0x40 MLOAD DUP1 SWAP2 SUB SWAP1 RETURN JUMPDEST PUSH2 0x322 PUSH1 0x4 DUP1 CALLDATASIZE SUB DUP2 ADD SWAP1 PUSH2 0x31D SWAP2 SWAP1 PUSH2 0x27D5 JUMP JUMPDEST PUSH2 0xB3C JUMP JUMPDEST STOP JUMPDEST PUSH2 0x32C PUSH2 0xC5F JUMP JUMPDEST PUSH1 0x40 MLOAD PUSH2 0x339 SWAP2 SWAP1 PUSH2 0x23BD JUMP JUMPDEST PUSH1 0x40 MLOAD DUP1 SWAP2 SUB SWAP1 RETURN JUMPDEST PUSH2 0x35C PUSH1 0x4 DUP1 CALLDATASIZE SUB DUP2 ADD SWAP1 PUSH2 0x357 SWAP2 SWAP1 PUSH2 0x291D JUMP JUMPDEST PUSH2 0xCF1 JUMP JUMPDEST STOP JUMPDEST PUSH2 0x378 PUSH1 0x4 DUP1 CALLDATASIZE SUB DUP2 ADD SWAP1 PUSH2 0x373 SWAP2 SWAP1 PUSH2 0x29FE JUMP JUMPDEST PUSH2 0xD07 JUMP JUMPDEST STOP JUMPDEST PUSH2 0x394 PUSH1 0x4 DUP1 CALLDATASIZE SUB DUP2 ADD SWAP1 PUSH2 0x38F SWAP2 SWAP1 PUSH2 0x2415 JUMP JUMPDEST PUSH2 0xD69 JUMP JUMPDEST PUSH1 0x40 MLOAD PUSH2 0x3A1 SWAP2 SWAP1 PUSH2 0x23BD JUMP JUMPDEST PUSH1 0x40 MLOAD DUP1 SWAP2 SUB SWAP1 RETURN JUMPDEST PUSH2 0x3C4 PUSH1 0x4 DUP1 CALLDATASIZE SUB DUP2 ADD SWAP1 PUSH2 0x3BF SWAP2 SWAP1 PUSH2 0x2A81 JUMP JUMPDEST PUSH2 0xE93 JUMP JUMPDEST PUSH1 0x40 MLOAD PUSH2 0x3D1 SWAP2 SWAP1 PUSH2 0x2312 JUMP JUMPDEST PUSH1 0x40 MLOAD DUP1 SWAP2 SUB SWAP1 RETURN JUMPDEST PUSH1 0x0 PUSH2 0x3E5 DUP3 PUSH2 0xF27 JUMP JUMPDEST SWAP1 POP SWAP2 SWAP1 POP JUMP JUMPDEST PUSH1 0x60 PUSH1 0x0 DUP1 SLOAD PUSH2 0x3FB SWAP1 PUSH2 0x2AF0 JUMP JUMPDEST DUP1 PUSH1 0x1F ADD PUSH1 0x20 DUP1 SWAP2 DIV MUL PUSH1 0x20 ADD PUSH1 0x40 MLOAD SWAP1 DUP2 ADD PUSH1 0x40 MSTORE DUP1 SWAP3 SWAP2 SWAP1 DUP2 DUP2 MSTORE PUSH1 0x20 ADD DUP3 DUP1 SLOAD PUSH2 0x427 SWAP1 PUSH2 0x2AF0 JUMP JUMPDEST DUP1 ISZERO PUSH2 0x474 JUMPI DUP1 PUSH1 0x1F LT PUSH2 0x449 JUMPI PUSH2 0x100 DUP1 DUP4 SLOAD DIV MUL DUP4 MSTORE SWAP2 PUSH1 0x20 ADD SWAP2 PUSH2 0x474 JUMP JUMPDEST DUP3 ADD SWAP2 SWAP1 PUSH1 0x0 MSTORE PUSH1 0x20 PUSH1 0x0 KECCAK256 SWAP1 JUMPDEST DUP2 SLOAD DUP2 MSTORE SWAP1 PUSH1 0x1 ADD SWAP1 PUSH1 0x20 ADD DUP1 DUP4 GT PUSH2 0x457 JUMPI DUP3 SWAP1 SUB PUSH1 0x1F AND DUP3 ADD SWAP2 JUMPDEST POP POP POP POP POP SWAP1 POP SWAP1 JUMP JUMPDEST PUSH1 0x0 PUSH2 0x489 DUP3 PUSH2 0xFA1 JUMP JUMPDEST PUSH1 0x4 PUSH1 0x0 DUP4 DUP2 MSTORE PUSH1 0x20 ADD SWAP1 DUP2 MSTORE PUSH1 0x20 ADD PUSH1 0x0 KECCAK256 PUSH1 0x0 SWAP1 SLOAD SWAP1 PUSH2 0x100 EXP SWAP1 DIV PUSH20 0xFFFFFFFFFFFFFFFFFFFFFFFFFFFFFFFFFFFFFFFF AND SWAP1 POP SWAP2 SWAP1 POP JUMP JUMPDEST PUSH1 0x0 PUSH2 0x4CF DUP3 PUSH2 0x9D4 JUMP JUMPDEST SWAP1 POP DUP1 PUSH20 0xFFFFFFFFFFFFFFFFFFFFFFFFFFFFFFFFFFFFFFFF AND DUP4 PUSH20 0xFFFFFFFFFFFFFFFFFFFFFFFFFFFFFFFFFFFFFFFF AND SUB PUSH2 0x53F JUMPI PUSH1 0x40 MLOAD PUSH32 0x8C379A000000000000000000000000000000000000000000000000000000000 DUP2 MSTORE PUSH1 0x4 ADD PUSH2 0x536 SWAP1 PUSH2 0x2B93 JUMP JUMPDEST PUSH1 0x40 MLOAD DUP1 SWAP2 SUB SWAP1 REVERT JUMPDEST DUP1 PUSH20 0xFFFFFFFFFFFFFFFFFFFFFFFFFFFFFFFFFFFFFFFF AND PUSH2 0x55E PUSH2 0xFEC JUMP JUMPDEST PUSH20 0xFFFFFFFFFFFFFFFFFFFFFFFFFFFFFFFFFFFFFFFF AND EQ DUP1 PUSH2 0x58D JUMPI POP PUSH2 0x58C DUP2 PUSH2 0x587 PUSH2 0xFEC JUMP JUMPDEST PUSH2 0xE93 JUMP JUMPDEST JUMPDEST PUSH2 0x5CC JUMPI PUSH1 0x40 MLOAD PUSH32 0x8C379A000000000000000000000000000000000000000000000000000000000 DUP2 MSTORE PUSH1 0x4 ADD PUSH2 0x5C3 SWAP1 PUSH2 0x2C25 JUMP JUMPDEST PUSH1 0x40 MLOAD DUP1 SWAP2 SUB SWAP1 REVERT JUMPDEST PUSH2 0x5D6 DUP4 DUP4 PUSH2 0xFF4 JUMP JUMPDEST POP POP POP JUMP JUMPDEST PUSH1 0x0 PUSH2 0x5E7 PUSH1 0x14 PUSH2 0x10AD JUMP JUMPDEST SWAP1 POP PUSH2 0x5F3 PUSH1 0x14 PUSH2 0x10BB JUMP JUMPDEST PUSH2 0x5FD CALLER DUP3 PUSH2 0x10D1 JUMP JUMPDEST POP JUMP JUMPDEST PUSH1 0x0 PUSH1 0x8 DUP1 SLOAD SWAP1 POP SWAP1 POP SWAP1 JUMP JUMPDEST PUSH2 0x61E PUSH2 0x618 PUSH2 0xFEC JUMP JUMPDEST DUP3 PUSH2 0x10EF JUMP JUMPDEST PUSH2 0x65D JUMPI PUSH1 0x40 MLOAD PUSH32 0x8C379A000000000000000000000000000000000000000000000000000000000 DUP2 MSTORE PUSH1 0x4 ADD PUSH2 0x654 SWAP1 PUSH2 0x2CB7 JUMP JUMPDEST PUSH1 0x40 MLOAD DUP1 SWAP2 SUB SWAP1 REVERT JUMPDEST PUSH2 0x668 DUP4 DUP4 DUP4 PUSH2 0x1184 JUMP JUMPDEST POP POP POP JUMP JUMPDEST PUSH1 0x0 PUSH2 0x678 DUP4 PUSH2 0xA85 JUMP JUMPDEST DUP3 LT PUSH2 0x6B9 JUMPI PUSH1 0x40 MLOAD PUSH32 0x8C379A000000000000000000000000000000000000000000000000000000000 DUP2 MSTORE PUSH1 0x4 ADD PUSH2 0x6B0 SWAP1 PUSH2 0x2D49 JUMP JUMPDEST PUSH1 0x40 MLOAD DUP1 SWAP2 SUB SWAP1 REVERT JUMPDEST PUSH1 0x6 PUSH1 0x0 DUP5 PUSH20 0xFFFFFFFFFFFFFFFFFFFFFFFFFFFFFFFFFFFFFFFF AND PUSH20 0xFFFFFFFFFFFFFFFFFFFFFFFFFFFFFFFFFFFFFFFF AND DUP2 MSTORE PUSH1 0x20 ADD SWAP1 DUP2 MSTORE PUSH1 0x20 ADD PUSH1 0x0 KECCAK256 PUSH1 0x0 DUP4 DUP2 MSTORE PUSH1 0x20 ADD SWAP1 DUP2 MSTORE PUSH1 0x20 ADD PUSH1 0x0 KECCAK256 SLOAD SWAP1 POP SWAP3 SWAP2 POP POP JUMP JUMPDEST PUSH1 0x60 DUP1 PUSH1 0x0 DUP1 PUSH1 0x0 DUP1 PUSH1 0x0 DUP1 PUSH1 0x0 DUP1 PUSH1 0x60 PUSH1 0xA PUSH1 0x0 ADD PUSH1 0xA PUSH1 0x1 ADD PUSH1 0xA PUSH1 0x2 ADD SLOAD PUSH1 0xA PUSH1 0x3 ADD SLOAD PUSH1 0xA PUSH1 0x4 ADD SLOAD PUSH1 0xA PUSH1 0x5 ADD SLOAD PUSH1 0xA PUSH1 0x6 ADD SLOAD PUSH1 0xA PUSH1 0x7 ADD SLOAD PUSH1 0xA PUSH1 0x8 ADD PUSH1 0x0 SWAP1 SLOAD SWAP1 PUSH2 0x100 EXP SWAP1 DIV PUSH1 0xFF AND PUSH1 0xA PUSH1 0x8 ADD PUSH1 0x1 SWAP1 SLOAD SWAP1 PUSH2 0x100 EXP SWAP1 DIV PUSH1 0xFF AND PUSH1 0xA PUSH1 0x9 ADD DUP11 DUP1 SLOAD PUSH2 0x788 SWAP1 PUSH2 0x2AF0 JUMP JUMPDEST DUP1 PUSH1 0x1F ADD PUSH1 0x20 DUP1 SWAP2 DIV MUL PUSH1 0x20 ADD PUSH1 0x40 MLOAD SWAP1 DUP2 ADD PUSH1 0x40 MSTORE DUP1 SWAP3 SWAP2 SWAP1 DUP2 DUP2 MSTORE PUSH1 0x20 ADD DUP3 DUP1 SLOAD PUSH2 0x7B4 SWAP1 PUSH2 0x2AF0 JUMP JUMPDEST DUP1 ISZERO PUSH2 0x801 JUMPI DUP1 PUSH1 0x1F LT PUSH2 0x7D6 JUMPI PUSH2 0x100 DUP1 DUP4 SLOAD DIV MUL DUP4 MSTORE SWAP2 PUSH1 0x20 ADD SWAP2 PUSH2 0x801 JUMP JUMPDEST DUP3 ADD SWAP2 SWAP1 PUSH1 0x0 MSTORE PUSH1 0x20 PUSH1 0x0 KECCAK256 SWAP1 JUMPDEST DUP2 SLOAD DUP2 MSTORE SWAP1 PUSH1 0x1 ADD SWAP1 PUSH1 0x20 ADD DUP1 DUP4 GT PUSH2 0x7E4 JUMPI DUP3 SWAP1 SUB PUSH1 0x1F AND DUP3 ADD SWAP2 JUMPDEST POP POP POP POP POP SWAP11 POP DUP10 DUP1 SLOAD PUSH2 0x814 SWAP1 PUSH2 0x2AF0 JUMP JUMPDEST DUP1 PUSH1 0x1F ADD PUSH1 0x20 DUP1 SWAP2 DIV MUL PUSH1 0x20 ADD PUSH1 0x40 MLOAD SWAP1 DUP2 ADD PUSH1 0x40 MSTORE DUP1 SWAP3 SWAP2 SWAP1 DUP2 DUP2 MSTORE PUSH1 0x20 ADD DUP3 DUP1 SLOAD PUSH2 0x840 SWAP1 PUSH2 0x2AF0 JUMP JUMPDEST DUP1 ISZERO PUSH2 0x88D JUMPI DUP1 PUSH1 0x1F LT PUSH2 0x862 JUMPI PUSH2 0x100 DUP1 DUP4 SLOAD DIV MUL DUP4 MSTORE SWAP2 PUSH1 0x20 ADD SWAP2 PUSH2 0x88D JUMP JUMPDEST DUP3 ADD SWAP2 SWAP1 PUSH1 0x0 MSTORE PUSH1 0x20 PUSH1 0x0 KECCAK256 SWAP1 JUMPDEST DUP2 SLOAD DUP2 MSTORE SWAP1 PUSH1 0x1 ADD SWAP1 PUSH1 0x20 ADD DUP1 DUP4 GT PUSH2 0x870 JUMPI DUP3 SWAP1 SUB PUSH1 0x1F AND DUP3 ADD SWAP2 JUMPDEST POP POP POP POP POP SWAP10 POP DUP1 DUP1 SLOAD PUSH2 0x8A0 SWAP1 PUSH2 0x2AF0 JUMP JUMPDEST DUP1 PUSH1 0x1F ADD PUSH1 0x20 DUP1 SWAP2 DIV MUL PUSH1 0x20 ADD PUSH1 0x40 MLOAD SWAP1 DUP2 ADD PUSH1 0x40 MSTORE DUP1 SWAP3 SWAP2 SWAP1 DUP2 DUP2 MSTORE PUSH1 0x20 ADD DUP3 DUP1 SLOAD PUSH2 0x8CC SWAP1 PUSH2 0x2AF0 JUMP JUMPDEST DUP1 ISZERO PUSH2 0x919 JUMPI DUP1 PUSH1 0x1F LT PUSH2 0x8EE JUMPI PUSH2 0x100 DUP1 DUP4 SLOAD DIV MUL DUP4 MSTORE SWAP2 PUSH1 0x20 ADD SWAP2 PUSH2 0x919 JUMP JUMPDEST DUP3 ADD SWAP2 SWAP1 PUSH1 0x0 MSTORE PUSH1 0x20 PUSH1 0x0 KECCAK256 SWAP1 JUMPDEST DUP2 SLOAD DUP2 MSTORE SWAP1 PUSH1 0x1 ADD SWAP1 PUSH1 0x20 ADD DUP1 DUP4 GT PUSH2 0x8FC JUMPI DUP3 SWAP1 SUB PUSH1 0x1F AND DUP3 ADD SWAP2 JUMPDEST POP POP POP POP POP SWAP1 POP SWAP11 POP SWAP11 POP SWAP11 POP SWAP11 POP SWAP11 POP SWAP11 POP SWAP11 POP SWAP11 POP SWAP11 POP SWAP11 POP SWAP11 POP SWAP1 SWAP2 SWAP3 SWAP4 SWAP5 SWAP6 SWAP7 SWAP8 SWAP9 SWAP10 SWAP11 JUMP JUMPDEST PUSH2 0x95E DUP4 DUP4 DUP4 PUSH1 0x40 MLOAD DUP1 PUSH1 0x20 ADD PUSH1 0x40 MSTORE DUP1 PUSH1 0x0 DUP2 MSTORE POP PUSH2 0xD07 JUMP JUMPDEST POP POP POP JUMP JUMPDEST PUSH1 0x0 PUSH2 0x96D PUSH2 0x600 JUMP JUMPDEST DUP3 LT PUSH2 0x9AE JUMPI PUSH1 0x40 MLOAD PUSH32 0x8C379A000000000000000000000000000000000000000000000000000000000 DUP2 MSTORE PUSH1 0x4 ADD PUSH2 0x9A5 SWAP1 PUSH2 0x2DDB JUMP JUMPDEST PUSH1 0x40 MLOAD DUP1 SWAP2 SUB SWAP1 REVERT JUMPDEST PUSH1 0x8 DUP3 DUP2 SLOAD DUP2 LT PUSH2 0x9C2 JUMPI PUSH2 0x9C1 PUSH2 0x2DFB JUMP JUMPDEST JUMPDEST SWAP1 PUSH1 0x0 MSTORE PUSH1 0x20 PUSH1 0x0 KECCAK256 ADD SLOAD SWAP1 POP SWAP2 SWAP1 POP JUMP JUMPDEST PUSH1 0x0 DUP1 PUSH1 0x2 PUSH1 0x0 DUP5 DUP2 MSTORE PUSH1 0x20 ADD SWAP1 DUP2 MSTORE PUSH1 0x20 ADD PUSH1 0x0 KECCAK256 PUSH1 0x0 SWAP1 SLOAD SWAP1 PUSH2 0x100 EXP SWAP1 DIV PUSH20 0xFFFFFFFFFFFFFFFFFFFFFFFFFFFFFFFFFFFFFFFF AND SWAP1 POP PUSH1 0x0 PUSH20 0xFFFFFFFFFFFFFFFFFFFFFFFFFFFFFFFFFFFFFFFF AND DUP2 PUSH20 0xFFFFFFFFFFFFFFFFFFFFFFFFFFFFFFFFFFFFFFFF AND SUB PUSH2 0xA7C JUMPI PUSH1 0x40 MLOAD PUSH32 0x8C379A000000000000000000000000000000000000000000000000000000000 DUP2 MSTORE PUSH1 0x4 ADD PUSH2 0xA73 SWAP1 PUSH2 0x2E76 JUMP JUMPDEST PUSH1 0x40 MLOAD DUP1 SWAP2 SUB SWAP1 REVERT JUMPDEST DUP1 SWAP2 POP POP SWAP2 SWAP1 POP JUMP JUMPDEST PUSH1 0x0 DUP1 PUSH20 0xFFFFFFFFFFFFFFFFFFFFFFFFFFFFFFFFFFFFFFFF AND DUP3 PUSH20 0xFFFFFFFFFFFFFFFFFFFFFFFFFFFFFFFFFFFFFFFF AND SUB PUSH2 0xAF5 JUMPI PUSH1 0x40 MLOAD PUSH32 0x8C379A000000000000000000000000000000000000000000000000000000000 DUP2 MSTORE PUSH1 0x4 ADD PUSH2 0xAEC SWAP1 PUSH2 0x2F08 JUMP JUMPDEST PUSH1 0x40 MLOAD DUP1 SWAP2 SUB SWAP1 REVERT JUMPDEST PUSH1 0x3 PUSH1 0x0 DUP4 PUSH20 0xFFFFFFFFFFFFFFFFFFFFFFFFFFFFFFFFFFFFFFFF AND PUSH20 0xFFFFFFFFFFFFFFFFFFFFFFFFFFFFFFFFFFFFFFFF AND DUP2 MSTORE PUSH1 0x20 ADD SWAP1 DUP2 MSTORE PUSH1 0x20 ADD PUSH1 0x0 KECCAK256 SLOAD SWAP1 POP SWAP2 SWAP1 POP JUMP JUMPDEST PUSH1 0x40 MLOAD DUP1 PUSH2 0x160 ADD PUSH1 0x40 MSTORE DUP1 DUP13 DUP2 MSTORE PUSH1 0x20 ADD DUP12 DUP2 MSTORE PUSH1 0x20 ADD DUP11 DUP2 MSTORE PUSH1 0x20 ADD DUP10 DUP2 MSTORE PUSH1 0x20 ADD DUP9 DUP2 MSTORE PUSH1 0x20 ADD DUP8 DUP2 MSTORE PUSH1 0x20 ADD DUP7 DUP2 MSTORE PUSH1 0x20 ADD DUP6 DUP2 MSTORE PUSH1 0x20 ADD DUP5 ISZERO ISZERO DUP2 MSTORE PUSH1 0x20 ADD DUP4 ISZERO ISZERO DUP2 MSTORE PUSH1 0x20 ADD DUP3 DUP2 MSTORE POP PUSH1 0xA PUSH1 0x0 DUP3 ADD MLOAD DUP2 PUSH1 0x0 ADD SWAP1 DUP2 PUSH2 0xBA3 SWAP2 SWAP1 PUSH2 0x30D4 JUMP JUMPDEST POP PUSH1 0x20 DUP3 ADD MLOAD DUP2 PUSH1 0x1 ADD SWAP1 DUP2 PUSH2 0xBB9 SWAP2 SWAP1 PUSH2 0x30D4 JUMP JUMPDEST POP PUSH1 0x40 DUP3 ADD MLOAD DUP2 PUSH1 0x2 ADD SSTORE PUSH1 0x60 DUP3 ADD MLOAD DUP2 PUSH1 0x3 ADD SSTORE PUSH1 0x80 DUP3 ADD MLOAD DUP2 PUSH1 0x4 ADD SSTORE PUSH1 0xA0 DUP3 ADD MLOAD DUP2 PUSH1 0x5 ADD SSTORE PUSH1 0xC0 DUP3 ADD MLOAD DUP2 PUSH1 0x6 ADD SSTORE PUSH1 0xE0 DUP3 ADD MLOAD DUP2 PUSH1 0x7 ADD SSTORE PUSH2 0x100 DUP3 ADD MLOAD DUP2 PUSH1 0x8 ADD PUSH1 0x0 PUSH2 0x100 EXP DUP2 SLOAD DUP2 PUSH1 0xFF MUL NOT AND SWAP1 DUP4 ISZERO ISZERO MUL OR SWAP1 SSTORE POP PUSH2 0x120 DUP3 ADD MLOAD DUP2 PUSH1 0x8 ADD PUSH1 0x1 PUSH2 0x100 EXP DUP2 SLOAD DUP2 PUSH1 0xFF MUL NOT AND SWAP1 DUP4 ISZERO ISZERO MUL OR SWAP1 SSTORE POP PUSH2 0x140 DUP3 ADD MLOAD DUP2 PUSH1 0x9 ADD SWAP1 DUP2 PUSH2 0xC4E SWAP2 SWAP1 PUSH2 0x30D4 JUMP JUMPDEST POP SWAP1 POP POP POP POP POP POP POP POP POP POP POP POP POP JUMP JUMPDEST PUSH1 0x60 PUSH1 0x1 DUP1 SLOAD PUSH2 0xC6E SWAP1 PUSH2 0x2AF0 JUMP JUMPDEST DUP1 PUSH1 0x1F ADD PUSH1 0x20 DUP1 SWAP2 DIV MUL PUSH1 0x20 ADD PUSH1 0x40 MLOAD SWAP1 DUP2 ADD PUSH1 0x40 MSTORE DUP1 SWAP3 SWAP2 SWAP1 DUP2 DUP2 MSTORE PUSH1 0x20 ADD DUP3 DUP1 SLOAD PUSH2 0xC9A SWAP1 PUSH2 0x2AF0 JUMP JUMPDEST DUP1 ISZERO PUSH2 0xCE7 JUMPI DUP1 PUSH1 0x1F LT PUSH2 0xCBC JUMPI PUSH2 0x100 DUP1 DUP4 SLOAD DIV MUL DUP4 MSTORE SWAP2 PUSH1 0x20 ADD SWAP2 PUSH2 0xCE7 JUMP JUMPDEST DUP3 ADD SWAP2 SWAP1 PUSH1 0x0 MSTORE PUSH1 0x20 PUSH1 0x0 KECCAK256 SWAP1 JUMPDEST DUP2 SLOAD DUP2 MSTORE SWAP1 PUSH1 0x1 ADD SWAP1 PUSH1 0x20 ADD DUP1 DUP4 GT PUSH2 0xCCA JUMPI DUP3 SWAP1 SUB PUSH1 0x1F AND DUP3 ADD SWAP2 JUMPDEST POP POP POP POP POP SWAP1 POP SWAP1 JUMP JUMPDEST PUSH2 0xD03 PUSH2 0xCFC PUSH2 0xFEC JUMP JUMPDEST DUP4 DUP4 PUSH2 0x13EA JUMP JUMPDEST POP POP JUMP JUMPDEST PUSH2 0xD18 PUSH2 0xD12 PUSH2 0xFEC JUMP JUMPDEST DUP4 PUSH2 0x10EF JUMP JUMPDEST PUSH2 0xD57 JUMPI PUSH1 0x40 MLOAD PUSH32 0x8C379A000000000000000000000000000000000000000000000000000000000 DUP2 MSTORE PUSH1 0x4 ADD PUSH2 0xD4E SWAP1 PUSH2 0x2CB7 JUMP JUMPDEST PUSH1 0x40 MLOAD DUP1 SWAP2 SUB SWAP1 REVERT JUMPDEST PUSH2 0xD63 DUP5 DUP5 DUP5 DUP5 PUSH2 0x1556 JUMP JUMPDEST POP POP POP POP JUMP JUMPDEST PUSH1 0x60 PUSH2 0xD74 DUP3 PUSH2 0x15B2 JUMP JUMPDEST PUSH2 0xDB3 JUMPI PUSH1 0x40 MLOAD PUSH32 0x8C379A000000000000000000000000000000000000000000000000000000000 DUP2 MSTORE PUSH1 0x4 ADD PUSH2 0xDAA SWAP1 PUSH2 0x3218 JUMP JUMPDEST PUSH1 0x40 MLOAD DUP1 SWAP2 SUB SWAP1 REVERT JUMPDEST PUSH1 0x0 PUSH2 0xE69 PUSH1 0xA PUSH1 0x1 ADD PUSH2 0xDCB PUSH1 0xA PUSH1 0x2 ADD SLOAD PUSH2 0x161E JUMP JUMPDEST PUSH2 0xDD9 PUSH1 0xA PUSH1 0x3 ADD SLOAD PUSH2 0x161E JUMP JUMPDEST PUSH2 0xDE7 PUSH1 0xA PUSH1 0x4 ADD SLOAD PUSH2 0x161E JUMP JUMPDEST PUSH2 0xDF5 PUSH1 0xA PUSH1 0x5 ADD SLOAD PUSH2 0x161E JUMP JUMPDEST PUSH2 0xE03 PUSH1 0xA PUSH1 0x6 ADD SLOAD PUSH2 0x161E JUMP JUMPDEST PUSH2 0xE11 PUSH1 0xA PUSH1 0x7 ADD SLOAD PUSH2 0x161E JUMP JUMPDEST PUSH1 0xA PUSH1 0x8 ADD PUSH1 0x0 SWAP1 SLOAD SWAP1 PUSH2 0x100 EXP SWAP1 DIV PUSH1 0xFF AND PUSH1 0xA PUSH1 0x8 ADD PUSH1 0x1 SWAP1 SLOAD SWAP1 PUSH2 0x100 EXP SWAP1 DIV PUSH1 0xFF AND PUSH1 0xA PUSH1 0x9 ADD PUSH1 0x40 MLOAD PUSH1 0x20 ADD PUSH2 0xE55 SWAP11 SWAP10 SWAP9 SWAP8 SWAP7 SWAP6 SWAP5 SWAP4 SWAP3 SWAP2 SWAP1 PUSH2 0x3A13 JUMP JUMPDEST PUSH1 0x40 MLOAD PUSH1 0x20 DUP2 DUP4 SUB SUB DUP2 MSTORE SWAP1 PUSH1 0x40 MSTORE PUSH2 0x177E JUMP JUMPDEST SWAP1 POP DUP1 PUSH1 0x40 MLOAD PUSH1 0x20 ADD PUSH2 0xE7C SWAP2 SWAP1 PUSH2 0x3BAE JUMP JUMPDEST PUSH1 0x40 MLOAD PUSH1 0x20 DUP2 DUP4 SUB SUB DUP2 MSTORE SWAP1 PUSH1 0x40 MSTORE SWAP2 POP POP SWAP2 SWAP1 POP JUMP JUMPDEST PUSH1 0x0 PUSH1 0x5 PUSH1 0x0 DUP5 PUSH20 0xFFFFFFFFFFFFFFFFFFFFFFFFFFFFFFFFFFFFFFFF AND PUSH20 0xFFFFFFFFFFFFFFFFFFFFFFFFFFFFFFFFFFFFFFFF AND DUP2 MSTORE PUSH1 0x20 ADD SWAP1 DUP2 MSTORE PUSH1 0x20 ADD PUSH1 0x0 KECCAK256 PUSH1 0x0 DUP4 PUSH20 0xFFFFFFFFFFFFFFFFFFFFFFFFFFFFFFFFFFFFFFFF AND PUSH20 0xFFFFFFFFFFFFFFFFFFFFFFFFFFFFFFFFFFFFFFFF AND DUP2 MSTORE PUSH1 0x20 ADD SWAP1 DUP2 MSTORE PUSH1 0x20 ADD PUSH1 0x0 KECCAK256 PUSH1 0x0 SWAP1 SLOAD SWAP1 PUSH2 0x100 EXP SWAP1 DIV PUSH1 0xFF AND SWAP1 POP SWAP3 SWAP2 POP POP JUMP JUMPDEST PUSH1 0x0 PUSH32 0x780E9D6300000000000000000000000000000000000000000000000000000000 PUSH28 0xFFFFFFFFFFFFFFFFFFFFFFFFFFFFFFFFFFFFFFFFFFFFFFFFFFFFFFFF NOT AND DUP3 PUSH28 0xFFFFFFFFFFFFFFFFFFFFFFFFFFFFFFFFFFFFFFFFFFFFFFFFFFFFFFFF NOT AND EQ DUP1 PUSH2 0xF9A JUMPI POP PUSH2 0xF99 DUP3 PUSH2 0x1902 JUMP JUMPDEST JUMPDEST SWAP1 POP SWAP2 SWAP1 POP JUMP JUMPDEST PUSH2 0xFAA DUP2 PUSH2 0x15B2 JUMP JUMPDEST PUSH2 0xFE9 JUMPI PUSH1 0x40 MLOAD PUSH32 0x8C379A000000000000000000000000000000000000000000000000000000000 DUP2 MSTORE PUSH1 0x4 ADD PUSH2 0xFE0 SWAP1 PUSH2 0x2E76 JUMP JUMPDEST PUSH1 0x40 MLOAD DUP1 SWAP2 SUB SWAP1 REVERT JUMPDEST POP JUMP JUMPDEST PUSH1 0x0 CALLER SWAP1 POP SWAP1 JUMP JUMPDEST DUP2 PUSH1 0x4 PUSH1 0x0 DUP4 DUP2 MSTORE PUSH1 0x20 ADD SWAP1 DUP2 MSTORE PUSH1 0x20 ADD PUSH1 0x0 KECCAK256 PUSH1 0x0 PUSH2 0x100 EXP DUP2 SLOAD DUP2 PUSH20 0xFFFFFFFFFFFFFFFFFFFFFFFFFFFFFFFFFFFFFFFF MUL NOT AND SWAP1 DUP4 PUSH20 0xFFFFFFFFFFFFFFFFFFFFFFFFFFFFFFFFFFFFFFFF AND MUL OR SWAP1 SSTORE POP DUP1 DUP3 PUSH20 0xFFFFFFFFFFFFFFFFFFFFFFFFFFFFFFFFFFFFFFFF AND PUSH2 0x1067 DUP4 PUSH2 0x9D4 JUMP JUMPDEST PUSH20 0xFFFFFFFFFFFFFFFFFFFFFFFFFFFFFFFFFFFFFFFF AND PUSH32 0x8C5BE1E5EBEC7D5BD14F71427D1E84F3DD0314C0F7B2291E5B200AC8C7C3B925 PUSH1 0x40 MLOAD PUSH1 0x40 MLOAD DUP1 SWAP2 SUB SWAP1 LOG4 POP POP JUMP JUMPDEST PUSH1 0x0 DUP2 PUSH1 0x0 ADD SLOAD SWAP1 POP SWAP2 SWAP1 POP JUMP JUMPDEST PUSH1 0x1 DUP2 PUSH1 0x0 ADD PUSH1 0x0 DUP3 DUP3 SLOAD ADD SWAP3 POP POP DUP2 SWAP1 SSTORE POP POP JUMP JUMPDEST PUSH2 0x10EB DUP3 DUP3 PUSH1 0x40 MLOAD DUP1 PUSH1 0x20 ADD PUSH1 0x40 MSTORE DUP1 PUSH1 0x0 DUP2 MSTORE POP PUSH2 0x19E4 JUMP JUMPDEST POP POP JUMP JUMPDEST PUSH1 0x0 DUP1 PUSH2 0x10FB DUP4 PUSH2 0x9D4 JUMP JUMPDEST SWAP1 POP DUP1 PUSH20 0xFFFFFFFFFFFFFFFFFFFFFFFFFFFFFFFFFFFFFFFF AND DUP5 PUSH20 0xFFFFFFFFFFFFFFFFFFFFFFFFFFFFFFFFFFFFFFFF AND EQ DUP1 PUSH2 0x113D JUMPI POP PUSH2 0x113C DUP2 DUP6 PUSH2 0xE93 JUMP JUMPDEST JUMPDEST DUP1 PUSH2 0x117B JUMPI POP DUP4 PUSH20 0xFFFFFFFFFFFFFFFFFFFFFFFFFFFFFFFFFFFFFFFF AND PUSH2 0x1163 DUP5 PUSH2 0x47E JUMP JUMPDEST PUSH20 0xFFFFFFFFFFFFFFFFFFFFFFFFFFFFFFFFFFFFFFFF AND EQ JUMPDEST SWAP2 POP POP SWAP3 SWAP2 POP POP JUMP JUMPDEST DUP3 PUSH20 0xFFFFFFFFFFFFFFFFFFFFFFFFFFFFFFFFFFFFFFFF AND PUSH2 0x11A4 DUP3 PUSH2 0x9D4 JUMP JUMPDEST PUSH20 0xFFFFFFFFFFFFFFFFFFFFFFFFFFFFFFFFFFFFFFFF AND EQ PUSH2 0x11FA JUMPI PUSH1 0x40 MLOAD PUSH32 0x8C379A000000000000000000000000000000000000000000000000000000000 DUP2 MSTORE PUSH1 0x4 ADD PUSH2 0x11F1 SWAP1 PUSH2 0x3C42 JUMP JUMPDEST PUSH1 0x40 MLOAD DUP1 SWAP2 SUB SWAP1 REVERT JUMPDEST PUSH1 0x0 PUSH20 0xFFFFFFFFFFFFFFFFFFFFFFFFFFFFFFFFFFFFFFFF AND DUP3 PUSH20 0xFFFFFFFFFFFFFFFFFFFFFFFFFFFFFFFFFFFFFFFF AND SUB PUSH2 0x1269 JUMPI PUSH1 0x40 MLOAD PUSH32 0x8C379A000000000000000000000000000000000000000000000000000000000 DUP2 MSTORE PUSH1 0x4 ADD PUSH2 0x1260 SWAP1 PUSH2 0x3CD4 JUMP JUMPDEST PUSH1 0x40 MLOAD DUP1 SWAP2 SUB SWAP1 REVERT JUMPDEST PUSH2 0x1274 DUP4 DUP4 DUP4 PUSH2 0x1A3F JUMP JUMPDEST PUSH2 0x127F PUSH1 0x0 DUP3 PUSH2 0xFF4 JUMP JUMPDEST PUSH1 0x1 PUSH1 0x3 PUSH1 0x0 DUP6 PUSH20 0xFFFFFFFFFFFFFFFFFFFFFFFFFFFFFFFFFFFFFFFF AND PUSH20 0xFFFFFFFFFFFFFFFFFFFFFFFFFFFFFFFFFFFFFFFF AND DUP2 MSTORE PUSH1 0x20 ADD SWAP1 DUP2 MSTORE PUSH1 0x20 ADD PUSH1 0x0 KECCAK256 PUSH1 0x0 DUP3 DUP3 SLOAD PUSH2 0x12CF SWAP2 SWAP1 PUSH2 0x3D23 JUMP JUMPDEST SWAP3 POP POP DUP2 SWAP1 SSTORE POP PUSH1 0x1 PUSH1 0x3 PUSH1 0x0 DUP5 PUSH20 0xFFFFFFFFFFFFFFFFFFFFFFFFFFFFFFFFFFFFFFFF AND PUSH20 0xFFFFFFFFFFFFFFFFFFFFFFFFFFFFFFFFFFFFFFFF AND DUP2 MSTORE PUSH1 0x20 ADD SWAP1 DUP2 MSTORE PUSH1 0x20 ADD PUSH1 0x0 KECCAK256 PUSH1 0x0 DUP3 DUP3 SLOAD PUSH2 0x1326 SWAP2 SWAP1 PUSH2 0x3D57 JUMP JUMPDEST SWAP3 POP POP DUP2 SWAP1 SSTORE POP DUP2 PUSH1 0x2 PUSH1 0x0 DUP4 DUP2 MSTORE PUSH1 0x20 ADD SWAP1 DUP2 MSTORE PUSH1 0x20 ADD PUSH1 0x0 KECCAK256 PUSH1 0x0 PUSH2 0x100 EXP DUP2 SLOAD DUP2 PUSH20 0xFFFFFFFFFFFFFFFFFFFFFFFFFFFFFFFFFFFFFFFF MUL NOT AND SWAP1 DUP4 PUSH20 0xFFFFFFFFFFFFFFFFFFFFFFFFFFFFFFFFFFFFFFFF AND MUL OR SWAP1 SSTORE POP DUP1 DUP3 PUSH20 0xFFFFFFFFFFFFFFFFFFFFFFFFFFFFFFFFFFFFFFFF AND DUP5 PUSH20 0xFFFFFFFFFFFFFFFFFFFFFFFFFFFFFFFFFFFFFFFF AND PUSH32 0xDDF252AD1BE2C89B69C2B068FC378DAA952BA7F163C4A11628F55A4DF523B3EF PUSH1 0x40 MLOAD PUSH1 0x40 MLOAD DUP1 SWAP2 SUB SWAP1 LOG4 PUSH2 0x13E5 DUP4 DUP4 DUP4 PUSH2 0x1A4F JUMP JUMPDEST POP POP POP JUMP JUMPDEST DUP2 PUSH20 0xFFFFFFFFFFFFFFFFFFFFFFFFFFFFFFFFFFFFFFFF AND DUP4 PUSH20 0xFFFFFFFFFFFFFFFFFFFFFFFFFFFFFFFFFFFFFFFF AND SUB PUSH2 0x1458 JUMPI PUSH1 0x40 MLOAD PUSH32 0x8C379A000000000000000000000000000000000000000000000000000000000 DUP2 MSTORE PUSH1 0x4 ADD PUSH2 0x144F SWAP1 PUSH2 0x3DD7 JUMP JUMPDEST PUSH1 0x40 MLOAD DUP1 SWAP2 SUB SWAP1 REVERT JUMPDEST DUP1 PUSH1 0x5 PUSH1 0x0 DUP6 PUSH20 0xFFFFFFFFFFFFFFFFFFFFFFFFFFFFFFFFFFFFFFFF AND PUSH20 0xFFFFFFFFFFFFFFFFFFFFFFFFFFFFFFFFFFFFFFFF AND DUP2 MSTORE PUSH1 0x20 ADD SWAP1 DUP2 MSTORE PUSH1 0x20 ADD PUSH1 0x0 KECCAK256 PUSH1 0x0 DUP5 PUSH20 0xFFFFFFFFFFFFFFFFFFFFFFFFFFFFFFFFFFFFFFFF AND PUSH20 0xFFFFFFFFFFFFFFFFFFFFFFFFFFFFFFFFFFFFFFFF AND DUP2 MSTORE PUSH1 0x20 ADD SWAP1 DUP2 MSTORE PUSH1 0x20 ADD PUSH1 0x0 KECCAK256 PUSH1 0x0 PUSH2 0x100 EXP DUP2 SLOAD DUP2 PUSH1 0xFF MUL NOT AND SWAP1 DUP4 ISZERO ISZERO MUL OR SWAP1 SSTORE POP DUP2 PUSH20 0xFFFFFFFFFFFFFFFFFFFFFFFFFFFFFFFFFFFFFFFF AND DUP4 PUSH20 0xFFFFFFFFFFFFFFFFFFFFFFFFFFFFFFFFFFFFFFFF AND PUSH32 0x17307EAB39AB6107E8899845AD3D59BD9653F200F220920489CA2B5937696C31 DUP4 PUSH1 0x40 MLOAD PUSH2 0x1549 SWAP2 SWAP1 PUSH2 0x2312 JUMP JUMPDEST PUSH1 0x40 MLOAD DUP1 SWAP2 SUB SWAP1 LOG3 POP POP POP JUMP JUMPDEST PUSH2 0x1561 DUP5 DUP5 DUP5 PUSH2 0x1184 JUMP JUMPDEST PUSH2 0x156D DUP5 DUP5 DUP5 DUP5 PUSH2 0x1A54 JUMP JUMPDEST PUSH2 0x15AC JUMPI PUSH1 0x40 MLOAD PUSH32 0x8C379A000000000000000000000000000000000000000000000000000000000 DUP2 MSTORE PUSH1 0x4 ADD PUSH2 0x15A3 SWAP1 PUSH2 0x3E69 JUMP JUMPDEST PUSH1 0x40 MLOAD DUP1 SWAP2 SUB SWAP1 REVERT JUMPDEST POP POP POP POP JUMP JUMPDEST PUSH1 0x0 DUP1 PUSH20 0xFFFFFFFFFFFFFFFFFFFFFFFFFFFFFFFFFFFFFFFF AND PUSH1 0x2 PUSH1 0x0 DUP5 DUP2 MSTORE PUSH1 0x20 ADD SWAP1 DUP2 MSTORE PUSH1 0x20 ADD PUSH1 0x0 KECCAK256 PUSH1 0x0 SWAP1 SLOAD SWAP1 PUSH2 0x100 EXP SWAP1 DIV PUSH20 0xFFFFFFFFFFFFFFFFFFFFFFFFFFFFFFFFFFFFFFFF AND PUSH20 0xFFFFFFFFFFFFFFFFFFFFFFFFFFFFFFFFFFFFFFFF AND EQ ISZERO SWAP1 POP SWAP2 SWAP1 POP JUMP JUMPDEST PUSH1 0x60 PUSH1 0x0 DUP3 SUB PUSH2 0x1665 JUMPI PUSH1 0x40 MLOAD DUP1 PUSH1 0x40 ADD PUSH1 0x40 MSTORE DUP1 PUSH1 0x1 DUP2 MSTORE PUSH1 0x20 ADD PUSH32 0x3000000000000000000000000000000000000000000000000000000000000000 DUP2 MSTORE POP SWAP1 POP PUSH2 0x1779 JUMP JUMPDEST PUSH1 0x0 DUP3 SWAP1 POP PUSH1 0x0 JUMPDEST PUSH1 0x0 DUP3 EQ PUSH2 0x1697 JUMPI DUP1 DUP1 PUSH2 0x1680 SWAP1 PUSH2 0x3E89 JUMP JUMPDEST SWAP2 POP POP PUSH1 0xA DUP3 PUSH2 0x1690 SWAP2 SWAP1 PUSH2 0x3F00 JUMP JUMPDEST SWAP2 POP PUSH2 0x166D JUMP JUMPDEST PUSH1 0x0 DUP2 PUSH8 0xFFFFFFFFFFFFFFFF DUP2 GT ISZERO PUSH2 0x16B3 JUMPI PUSH2 0x16B2 PUSH2 0x267E JUMP JUMPDEST JUMPDEST PUSH1 0x40 MLOAD SWAP1 DUP1 DUP3 MSTORE DUP1 PUSH1 0x1F ADD PUSH1 0x1F NOT AND PUSH1 0x20 ADD DUP3 ADD PUSH1 0x40 MSTORE DUP1 ISZERO PUSH2 0x16E5 JUMPI DUP2 PUSH1 0x20 ADD PUSH1 0x1 DUP3 MUL DUP1 CALLDATASIZE DUP4 CALLDATACOPY DUP1 DUP3 ADD SWAP2 POP POP SWAP1 POP JUMPDEST POP SWAP1 POP JUMPDEST PUSH1 0x0 DUP6 EQ PUSH2 0x1772 JUMPI PUSH1 0x1 DUP3 PUSH2 0x16FE SWAP2 SWAP1 PUSH2 0x3D23 JUMP JUMPDEST SWAP2 POP PUSH1 0xA DUP6 PUSH2 0x170D SWAP2 SWAP1 PUSH2 0x3F31 JUMP JUMPDEST PUSH1 0x30 PUSH2 0x1719 SWAP2 SWAP1 PUSH2 0x3D57 JUMP JUMPDEST PUSH1 0xF8 SHL DUP2 DUP4 DUP2 MLOAD DUP2 LT PUSH2 0x172F JUMPI PUSH2 0x172E PUSH2 0x2DFB JUMP JUMPDEST JUMPDEST PUSH1 0x20 ADD ADD SWAP1 PUSH31 0xFFFFFFFFFFFFFFFFFFFFFFFFFFFFFFFFFFFFFFFFFFFFFFFFFFFFFFFFFFFFFF NOT AND SWAP1 DUP2 PUSH1 0x0 BYTE SWAP1 MSTORE8 POP PUSH1 0xA DUP6 PUSH2 0x176B SWAP2 SWAP1 PUSH2 0x3F00 JUMP JUMPDEST SWAP5 POP PUSH2 0x16E9 JUMP JUMPDEST DUP1 SWAP4 POP POP POP POP JUMPDEST SWAP2 SWAP1 POP JUMP JUMPDEST PUSH1 0x60 PUSH1 0x0 DUP3 MLOAD SUB PUSH2 0x17A0 JUMPI PUSH1 0x40 MLOAD DUP1 PUSH1 0x20 ADD PUSH1 0x40 MSTORE DUP1 PUSH1 0x0 DUP2 MSTORE POP SWAP1 POP PUSH2 0x18FD JUMP JUMPDEST PUSH1 0x0 PUSH1 0x40 MLOAD DUP1 PUSH1 0x60 ADD PUSH1 0x40 MSTORE DUP1 PUSH1 0x40 DUP2 MSTORE PUSH1 0x20 ADD PUSH2 0x418F PUSH1 0x40 SWAP2 CODECOPY SWAP1 POP PUSH1 0x0 PUSH1 0x3 PUSH1 0x2 DUP6 MLOAD PUSH2 0x17CF SWAP2 SWAP1 PUSH2 0x3D57 JUMP JUMPDEST PUSH2 0x17D9 SWAP2 SWAP1 PUSH2 0x3F00 JUMP JUMPDEST PUSH1 0x4 PUSH2 0x17E5 SWAP2 SWAP1 PUSH2 0x3F62 JUMP JUMPDEST SWAP1 POP PUSH1 0x0 PUSH1 0x20 DUP3 PUSH2 0x17F6 SWAP2 SWAP1 PUSH2 0x3D57 JUMP JUMPDEST PUSH8 0xFFFFFFFFFFFFFFFF DUP2 GT ISZERO PUSH2 0x180F JUMPI PUSH2 0x180E PUSH2 0x267E JUMP JUMPDEST JUMPDEST PUSH1 0x40 MLOAD SWAP1 DUP1 DUP3 MSTORE DUP1 PUSH1 0x1F ADD PUSH1 0x1F NOT AND PUSH1 0x20 ADD DUP3 ADD PUSH1 0x40 MSTORE DUP1 ISZERO PUSH2 0x1841 JUMPI DUP2 PUSH1 0x20 ADD PUSH1 0x1 DUP3 MUL DUP1 CALLDATASIZE DUP4 CALLDATACOPY DUP1 DUP3 ADD SWAP2 POP POP SWAP1 POP JUMPDEST POP SWAP1 POP DUP2 DUP2 MSTORE PUSH1 0x1 DUP4 ADD DUP6 DUP7 MLOAD DUP2 ADD PUSH1 0x20 DUP5 ADD JUMPDEST DUP2 DUP4 LT ISZERO PUSH2 0x18BC JUMPI PUSH1 0x3 DUP4 ADD SWAP3 POP DUP3 MLOAD PUSH1 0x3F DUP2 PUSH1 0x12 SHR AND DUP6 ADD MLOAD PUSH1 0xF8 SHL DUP3 MSTORE PUSH1 0x1 DUP3 ADD SWAP2 POP PUSH1 0x3F DUP2 PUSH1 0xC SHR AND DUP6 ADD MLOAD PUSH1 0xF8 SHL DUP3 MSTORE PUSH1 0x1 DUP3 ADD SWAP2 POP PUSH1 0x3F DUP2 PUSH1 0x6 SHR AND DUP6 ADD MLOAD PUSH1 0xF8 SHL DUP3 MSTORE PUSH1 0x1 DUP3 ADD SWAP2 POP PUSH1 0x3F DUP2 AND DUP6 ADD MLOAD PUSH1 0xF8 SHL DUP3 MSTORE PUSH1 0x1 DUP3 ADD SWAP2 POP POP PUSH2 0x1855 JUMP JUMPDEST PUSH1 0x3 DUP10 MLOAD MOD PUSH1 0x1 DUP2 EQ PUSH2 0x18D6 JUMPI PUSH1 0x2 DUP2 EQ PUSH2 0x18E6 JUMPI PUSH2 0x18F1 JUMP JUMPDEST PUSH2 0x3D3D PUSH1 0xF0 SHL PUSH1 0x2 DUP4 SUB MSTORE PUSH2 0x18F1 JUMP JUMPDEST PUSH1 0x3D PUSH1 0xF8 SHL PUSH1 0x1 DUP4 SUB MSTORE JUMPDEST POP POP POP POP POP DUP1 SWAP4 POP POP POP POP JUMPDEST SWAP2 SWAP1 POP JUMP JUMPDEST PUSH1 0x0 PUSH32 0x80AC58CD00000000000000000000000000000000000000000000000000000000 PUSH28 0xFFFFFFFFFFFFFFFFFFFFFFFFFFFFFFFFFFFFFFFFFFFFFFFFFFFFFFFF NOT AND DUP3 PUSH28 0xFFFFFFFFFFFFFFFFFFFFFFFFFFFFFFFFFFFFFFFFFFFFFFFFFFFFFFFF NOT AND EQ DUP1 PUSH2 0x19CD JUMPI POP PUSH32 0x5B5E139F00000000000000000000000000000000000000000000000000000000 PUSH28 0xFFFFFFFFFFFFFFFFFFFFFFFFFFFFFFFFFFFFFFFFFFFFFFFFFFFFFFFF NOT AND DUP3 PUSH28 0xFFFFFFFFFFFFFFFFFFFFFFFFFFFFFFFFFFFFFFFFFFFFFFFFFFFFFFFF NOT AND EQ JUMPDEST DUP1 PUSH2 0x19DD JUMPI POP PUSH2 0x19DC DUP3 PUSH2 0x1BDB JUMP JUMPDEST JUMPDEST SWAP1 POP SWAP2 SWAP1 POP JUMP JUMPDEST PUSH2 0x19EE DUP4 DUP4 PUSH2 0x1C45 JUMP JUMPDEST PUSH2 0x19FB PUSH1 0x0 DUP5 DUP5 DUP5 PUSH2 0x1A54 JUMP JUMPDEST PUSH2 0x1A3A JUMPI PUSH1 0x40 MLOAD PUSH32 0x8C379A000000000000000000000000000000000000000000000000000000000 DUP2 MSTORE PUSH1 0x4 ADD PUSH2 0x1A31 SWAP1 PUSH2 0x3E69 JUMP JUMPDEST PUSH1 0x40 MLOAD DUP1 SWAP2 SUB SWAP1 REVERT JUMPDEST POP POP POP JUMP JUMPDEST PUSH2 0x1A4A DUP4 DUP4 DUP4 PUSH2 0x1E1E JUMP JUMPDEST POP POP POP JUMP JUMPDEST POP POP POP JUMP JUMPDEST PUSH1 0x0 PUSH2 0x1A75 DUP5 PUSH20 0xFFFFFFFFFFFFFFFFFFFFFFFFFFFFFFFFFFFFFFFF AND PUSH2 0x1F30 JUMP JUMPDEST ISZERO PUSH2 0x1BCE JUMPI DUP4 PUSH20 0xFFFFFFFFFFFFFFFFFFFFFFFFFFFFFFFFFFFFFFFF AND PUSH4 0x150B7A02 PUSH2 0x1A9E PUSH2 0xFEC JUMP JUMPDEST DUP8 DUP7 DUP7 PUSH1 0x40 MLOAD DUP6 PUSH4 0xFFFFFFFF AND PUSH1 0xE0 SHL DUP2 MSTORE PUSH1 0x4 ADD PUSH2 0x1AC0 SWAP5 SWAP4 SWAP3 SWAP2 SWAP1 PUSH2 0x3FF9 JUMP JUMPDEST PUSH1 0x20 PUSH1 0x40 MLOAD DUP1 DUP4 SUB DUP2 PUSH1 0x0 DUP8 GAS CALL SWAP3 POP POP POP DUP1 ISZERO PUSH2 0x1AFC JUMPI POP PUSH1 0x40 MLOAD RETURNDATASIZE PUSH1 0x1F NOT PUSH1 0x1F DUP3 ADD AND DUP3 ADD DUP1 PUSH1 0x40 MSTORE POP DUP2 ADD SWAP1 PUSH2 0x1AF9 SWAP2 SWAP1 PUSH2 0x405A JUMP JUMPDEST PUSH1 0x1 JUMPDEST PUSH2 0x1B7E JUMPI RETURNDATASIZE DUP1 PUSH1 0x0 DUP2 EQ PUSH2 0x1B2C JUMPI PUSH1 0x40 MLOAD SWAP2 POP PUSH1 0x1F NOT PUSH1 0x3F RETURNDATASIZE ADD AND DUP3 ADD PUSH1 0x40 MSTORE RETURNDATASIZE DUP3 MSTORE RETURNDATASIZE PUSH1 0x0 PUSH1 0x20 DUP5 ADD RETURNDATACOPY PUSH2 0x1B31 JUMP JUMPDEST PUSH1 0x60 SWAP2 POP JUMPDEST POP PUSH1 0x0 DUP2 MLOAD SUB PUSH2 0x1B76 JUMPI PUSH1 0x40 MLOAD PUSH32 0x8C379A000000000000000000000000000000000000000000000000000000000 DUP2 MSTORE PUSH1 0x4 ADD PUSH2 0x1B6D SWAP1 PUSH2 0x3E69 JUMP JUMPDEST PUSH1 0x40 MLOAD DUP1 SWAP2 SUB SWAP1 REVERT JUMPDEST DUP1 MLOAD DUP2 PUSH1 0x20 ADD REVERT JUMPDEST PUSH4 0x150B7A02 PUSH1 0xE0 SHL PUSH28 0xFFFFFFFFFFFFFFFFFFFFFFFFFFFFFFFFFFFFFFFFFFFFFFFFFFFFFFFF NOT AND DUP2 PUSH28 0xFFFFFFFFFFFFFFFFFFFFFFFFFFFFFFFFFFFFFFFFFFFFFFFFFFFFFFFF NOT AND EQ SWAP2 POP POP PUSH2 0x1BD3 JUMP JUMPDEST PUSH1 0x1 SWAP1 POP JUMPDEST SWAP5 SWAP4 POP POP POP POP JUMP JUMPDEST PUSH1 0x0 PUSH32 0x1FFC9A700000000000000000000000000000000000000000000000000000000 PUSH28 0xFFFFFFFFFFFFFFFFFFFFFFFFFFFFFFFFFFFFFFFFFFFFFFFFFFFFFFFF NOT AND DUP3 PUSH28 0xFFFFFFFFFFFFFFFFFFFFFFFFFFFFFFFFFFFFFFFFFFFFFFFFFFFFFFFF NOT AND EQ SWAP1 POP SWAP2 SWAP1 POP JUMP JUMPDEST PUSH1 0x0 PUSH20 0xFFFFFFFFFFFFFFFFFFFFFFFFFFFFFFFFFFFFFFFF AND DUP3 PUSH20 0xFFFFFFFFFFFFFFFFFFFFFFFFFFFFFFFFFFFFFFFF AND SUB PUSH2 0x1CB4 JUMPI PUSH1 0x40 MLOAD PUSH32 0x8C379A000000000000000000000000000000000000000000000000000000000 DUP2 MSTORE PUSH1 0x4 ADD PUSH2 0x1CAB SWAP1 PUSH2 0x40D3 JUMP JUMPDEST PUSH1 0x40 MLOAD DUP1 SWAP2 SUB SWAP1 REVERT JUMPDEST PUSH2 0x1CBD DUP2 PUSH2 0x15B2 JUMP JUMPDEST ISZERO PUSH2 0x1CFD JUMPI PUSH1 0x40 MLOAD PUSH32 0x8C379A000000000000000000000000000000000000000000000000000000000 DUP2 MSTORE PUSH1 0x4 ADD PUSH2 0x1CF4 SWAP1 PUSH2 0x413F JUMP JUMPDEST PUSH1 0x40 MLOAD DUP1 SWAP2 SUB SWAP1 REVERT JUMPDEST PUSH2 0x1D09 PUSH1 0x0 DUP4 DUP4 PUSH2 0x1A3F JUMP JUMPDEST PUSH1 0x1 PUSH1 0x3 PUSH1 0x0 DUP5 PUSH20 0xFFFFFFFFFFFFFFFFFFFFFFFFFFFFFFFFFFFFFFFF AND PUSH20 0xFFFFFFFFFFFFFFFFFFFFFFFFFFFFFFFFFFFFFFFF AND DUP2 MSTORE PUSH1 0x20 ADD SWAP1 DUP2 MSTORE PUSH1 0x20 ADD PUSH1 0x0 KECCAK256 PUSH1 0x0 DUP3 DUP3 SLOAD PUSH2 0x1D59 SWAP2 SWAP1 PUSH2 0x3D57 JUMP JUMPDEST SWAP3 POP POP DUP2 SWAP1 SSTORE POP DUP2 PUSH1 0x2 PUSH1 0x0 DUP4 DUP2 MSTORE PUSH1 0x20 ADD SWAP1 DUP2 MSTORE PUSH1 0x20 ADD PUSH1 0x0 KECCAK256 PUSH1 0x0 PUSH2 0x100 EXP DUP2 SLOAD DUP2 PUSH20 0xFFFFFFFFFFFFFFFFFFFFFFFFFFFFFFFFFFFFFFFF MUL NOT AND SWAP1 DUP4 PUSH20 0xFFFFFFFFFFFFFFFFFFFFFFFFFFFFFFFFFFFFFFFF AND MUL OR SWAP1 SSTORE POP DUP1 DUP3 PUSH20 0xFFFFFFFFFFFFFFFFFFFFFFFFFFFFFFFFFFFFFFFF AND PUSH1 0x0 PUSH20 0xFFFFFFFFFFFFFFFFFFFFFFFFFFFFFFFFFFFFFFFF AND PUSH32 0xDDF252AD1BE2C89B69C2B068FC378DAA952BA7F163C4A11628F55A4DF523B3EF PUSH1 0x40 MLOAD PUSH1 0x40 MLOAD DUP1 SWAP2 SUB SWAP1 LOG4 PUSH2 0x1E1A PUSH1 0x0 DUP4 DUP4 PUSH2 0x1A4F JUMP JUMPDEST POP POP JUMP JUMPDEST PUSH2 0x1E29 DUP4 DUP4 DUP4 PUSH2 0x1F53 JUMP JUMPDEST PUSH1 0x0 PUSH20 0xFFFFFFFFFFFFFFFFFFFFFFFFFFFFFFFFFFFFFFFF AND DUP4 PUSH20 0xFFFFFFFFFFFFFFFFFFFFFFFFFFFFFFFFFFFFFFFF AND SUB PUSH2 0x1E6B JUMPI PUSH2 0x1E66 DUP2 PUSH2 0x1F58 JUMP JUMPDEST PUSH2 0x1EAA JUMP JUMPDEST DUP2 PUSH20 0xFFFFFFFFFFFFFFFFFFFFFFFFFFFFFFFFFFFFFFFF AND DUP4 PUSH20 0xFFFFFFFFFFFFFFFFFFFFFFFFFFFFFFFFFFFFFFFF AND EQ PUSH2 0x1EA9 JUMPI PUSH2 0x1EA8 DUP4 DUP3 PUSH2 0x1FA1 JUMP JUMPDEST JUMPDEST JUMPDEST PUSH1 0x0 PUSH20 0xFFFFFFFFFFFFFFFFFFFFFFFFFFFFFFFFFFFFFFFF AND DUP3 PUSH20 0xFFFFFFFFFFFFFFFFFFFFFFFFFFFFFFFFFFFFFFFF AND SUB PUSH2 0x1EEC JUMPI PUSH2 0x1EE7 DUP2 PUSH2 0x210E JUMP JUMPDEST PUSH2 0x1F2B JUMP JUMPDEST DUP3 PUSH20 0xFFFFFFFFFFFFFFFFFFFFFFFFFFFFFFFFFFFFFFFF AND DUP3 PUSH20 0xFFFFFFFFFFFFFFFFFFFFFFFFFFFFFFFFFFFFFFFF AND EQ PUSH2 0x1F2A JUMPI PUSH2 0x1F29 DUP3 DUP3 PUSH2 0x21DF JUMP JUMPDEST JUMPDEST JUMPDEST POP POP POP JUMP JUMPDEST PUSH1 0x0 DUP1 DUP3 PUSH20 0xFFFFFFFFFFFFFFFFFFFFFFFFFFFFFFFFFFFFFFFF AND EXTCODESIZE GT SWAP1 POP SWAP2 SWAP1 POP JUMP JUMPDEST POP POP POP JUMP JUMPDEST PUSH1 0x8 DUP1 SLOAD SWAP1 POP PUSH1 0x9 PUSH1 0x0 DUP4 DUP2 MSTORE PUSH1 0x20 ADD SWAP1 DUP2 MSTORE PUSH1 0x20 ADD PUSH1 0x0 KECCAK256 DUP2 SWAP1 SSTORE POP PUSH1 0x8 DUP2 SWAP1 DUP1 PUSH1 0x1 DUP2 SLOAD ADD DUP1 DUP3 SSTORE DUP1 SWAP2 POP POP PUSH1 0x1 SWAP1 SUB SWAP1 PUSH1 0x0 MSTORE PUSH1 0x20 PUSH1 0x0 KECCAK256 ADD PUSH1 0x0 SWAP1 SWAP2 SWAP1 SWAP2 SWAP1 SWAP2 POP SSTORE POP JUMP JUMPDEST PUSH1 0x0 PUSH1 0x1 PUSH2 0x1FAE DUP5 PUSH2 0xA85 JUMP JUMPDEST PUSH2 0x1FB8 SWAP2 SWAP1 PUSH2 0x3D23 JUMP JUMPDEST SWAP1 POP PUSH1 0x0 PUSH1 0x7 PUSH1 0x0 DUP5 DUP2 MSTORE PUSH1 0x20 ADD SWAP1 DUP2 MSTORE PUSH1 0x20 ADD PUSH1 0x0 KECCAK256 SLOAD SWAP1 POP DUP2 DUP2 EQ PUSH2 0x209D JUMPI PUSH1 0x0 PUSH1 0x6 PUSH1 0x0 DUP7 PUSH20 0xFFFFFFFFFFFFFFFFFFFFFFFFFFFFFFFFFFFFFFFF AND PUSH20 0xFFFFFFFFFFFFFFFFFFFFFFFFFFFFFFFFFFFFFFFF AND DUP2 MSTORE PUSH1 0x20 ADD SWAP1 DUP2 MSTORE PUSH1 0x20 ADD PUSH1 0x0 KECCAK256 PUSH1 0x0 DUP5 DUP2 MSTORE PUSH1 0x20 ADD SWAP1 DUP2 MSTORE PUSH1 0x20 ADD PUSH1 0x0 KECCAK256 SLOAD SWAP1 POP DUP1 PUSH1 0x6 PUSH1 0x0 DUP8 PUSH20 0xFFFFFFFFFFFFFFFFFFFFFFFFFFFFFFFFFFFFFFFF AND PUSH20 0xFFFFFFFFFFFFFFFFFFFFFFFFFFFFFFFFFFFFFFFF AND DUP2 MSTORE PUSH1 0x20 ADD SWAP1 DUP2 MSTORE PUSH1 0x20 ADD PUSH1 0x0 KECCAK256 PUSH1 0x0 DUP5 DUP2 MSTORE PUSH1 0x20 ADD SWAP1 DUP2 MSTORE PUSH1 0x20 ADD PUSH1 0x0 KECCAK256 DUP2 SWAP1 SSTORE POP DUP2 PUSH1 0x7 PUSH1 0x0 DUP4 DUP2 MSTORE PUSH1 0x20 ADD SWAP1 DUP2 MSTORE PUSH1 0x20 ADD PUSH1 0x0 KECCAK256 DUP2 SWAP1 SSTORE POP POP JUMPDEST PUSH1 0x7 PUSH1 0x0 DUP5 DUP2 MSTORE PUSH1 0x20 ADD SWAP1 DUP2 MSTORE PUSH1 0x20 ADD PUSH1 0x0 KECCAK256 PUSH1 0x0 SWAP1 SSTORE PUSH1 0x6 PUSH1 0x0 DUP6 PUSH20 0xFFFFFFFFFFFFFFFFFFFFFFFFFFFFFFFFFFFFFFFF AND PUSH20 0xFFFFFFFFFFFFFFFFFFFFFFFFFFFFFFFFFFFFFFFF AND DUP2 MSTORE PUSH1 0x20 ADD SWAP1 DUP2 MSTORE PUSH1 0x20 ADD PUSH1 0x0 KECCAK256 PUSH1 0x0 DUP4 DUP2 MSTORE PUSH1 0x20 ADD SWAP1 DUP2 MSTORE PUSH1 0x20 ADD PUSH1 0x0 KECCAK256 PUSH1 0x0 SWAP1 SSTORE POP POP POP POP JUMP JUMPDEST PUSH1 0x0 PUSH1 0x1 PUSH1 0x8 DUP1 SLOAD SWAP1 POP PUSH2 0x2122 SWAP2 SWAP1 PUSH2 0x3D23 JUMP JUMPDEST SWAP1 POP PUSH1 0x0 PUSH1 0x9 PUSH1 0x0 DUP5 DUP2 MSTORE PUSH1 0x20 ADD SWAP1 DUP2 MSTORE PUSH1 0x20 ADD PUSH1 0x0 KECCAK256 SLOAD SWAP1 POP PUSH1 0x0 PUSH1 0x8 DUP4 DUP2 SLOAD DUP2 LT PUSH2 0x2152 JUMPI PUSH2 0x2151 PUSH2 0x2DFB JUMP JUMPDEST JUMPDEST SWAP1 PUSH1 0x0 MSTORE PUSH1 0x20 PUSH1 0x0 KECCAK256 ADD SLOAD SWAP1 POP DUP1 PUSH1 0x8 DUP4 DUP2 SLOAD DUP2 LT PUSH2 0x2174 JUMPI PUSH2 0x2173 PUSH2 0x2DFB JUMP JUMPDEST JUMPDEST SWAP1 PUSH1 0x0 MSTORE PUSH1 0x20 PUSH1 0x0 KECCAK256 ADD DUP2 SWAP1 SSTORE POP DUP2 PUSH1 0x9 PUSH1 0x0 DUP4 DUP2 MSTORE PUSH1 0x20 ADD SWAP1 DUP2 MSTORE PUSH1 0x20 ADD PUSH1 0x0 KECCAK256 DUP2 SWAP1 SSTORE POP PUSH1 0x9 PUSH1 0x0 DUP6 DUP2 MSTORE PUSH1 0x20 ADD SWAP1 DUP2 MSTORE PUSH1 0x20 ADD PUSH1 0x0 KECCAK256 PUSH1 0x0 SWAP1 SSTORE PUSH1 0x8 DUP1 SLOAD DUP1 PUSH2 0x21C3 JUMPI PUSH2 0x21C2 PUSH2 0x415F JUMP JUMPDEST JUMPDEST PUSH1 0x1 SWAP1 SUB DUP2 DUP2 SWAP1 PUSH1 0x0 MSTORE PUSH1 0x20 PUSH1 0x0 KECCAK256 ADD PUSH1 0x0 SWAP1 SSTORE SWAP1 SSTORE POP POP POP POP JUMP JUMPDEST PUSH1 0x0 PUSH2 0x21EA DUP4 PUSH2 0xA85 JUMP JUMPDEST SWAP1 POP DUP2 PUSH1 0x6 PUSH1 0x0 DUP6 PUSH20 0xFFFFFFFFFFFFFFFFFFFFFFFFFFFFFFFFFFFFFFFF AND PUSH20 0xFFFFFFFFFFFFFFFFFFFFFFFFFFFFFFFFFFFFFFFF AND DUP2 MSTORE PUSH1 0x20 ADD SWAP1 DUP2 MSTORE PUSH1 0x20 ADD PUSH1 0x0 KECCAK256 PUSH1 0x0 DUP4 DUP2 MSTORE PUSH1 0x20 ADD SWAP1 DUP2 MSTORE PUSH1 0x20 ADD PUSH1 0x0 KECCAK256 DUP2 SWAP1 SSTORE POP DUP1 PUSH1 0x7 PUSH1 0x0 DUP5 DUP2 MSTORE PUSH1 0x20 ADD SWAP1 DUP2 MSTORE PUSH1 0x20 ADD PUSH1 0x0 KECCAK256 DUP2 SWAP1 SSTORE POP POP POP POP JUMP JUMPDEST PUSH1 0x0 PUSH1 0x40 MLOAD SWAP1 POP SWAP1 JUMP JUMPDEST PUSH1 0x0 DUP1 REVERT JUMPDEST PUSH1 0x0 DUP1 REVERT JUMPDEST PUSH1 0x0 PUSH32 0xFFFFFFFF00000000000000000000000000000000000000000000000000000000 DUP3 AND SWAP1 POP SWAP2 SWAP1 POP JUMP JUMPDEST PUSH2 0x22A7 DUP2 PUSH2 0x2272 JUMP JUMPDEST DUP2 EQ PUSH2 0x22B2 JUMPI PUSH1 0x0 DUP1 REVERT JUMPDEST POP JUMP JUMPDEST PUSH1 0x0 DUP2 CALLDATALOAD SWAP1 POP PUSH2 0x22C4 DUP2 PUSH2 0x229E JUMP JUMPDEST SWAP3 SWAP2 POP POP JUMP JUMPDEST PUSH1 0x0 PUSH1 0x20 DUP3 DUP5 SUB SLT ISZERO PUSH2 0x22E0 JUMPI PUSH2 0x22DF PUSH2 0x2268 JUMP JUMPDEST JUMPDEST PUSH1 0x0 PUSH2 0x22EE DUP5 DUP3 DUP6 ADD PUSH2 0x22B5 JUMP JUMPDEST SWAP2 POP POP SWAP3 SWAP2 POP POP JUMP JUMPDEST PUSH1 0x0 DUP2 ISZERO ISZERO SWAP1 POP SWAP2 SWAP1 POP JUMP JUMPDEST PUSH2 0x230C DUP2 PUSH2 0x22F7 JUMP JUMPDEST DUP3 MSTORE POP POP JUMP JUMPDEST PUSH1 0x0 PUSH1 0x20 DUP3 ADD SWAP1 POP PUSH2 0x2327 PUSH1 0x0 DUP4 ADD DUP5 PUSH2 0x2303 JUMP JUMPDEST SWAP3 SWAP2 POP POP JUMP JUMPDEST PUSH1 0x0 DUP2 MLOAD SWAP1 POP SWAP2 SWAP1 POP JUMP JUMPDEST PUSH1 0x0 DUP3 DUP3 MSTORE PUSH1 0x20 DUP3 ADD SWAP1 POP SWAP3 SWAP2 POP POP JUMP JUMPDEST PUSH1 0x0 JUMPDEST DUP4 DUP2 LT ISZERO PUSH2 0x2367 JUMPI DUP1 DUP3 ADD MLOAD DUP2 DUP5 ADD MSTORE PUSH1 0x20 DUP2 ADD SWAP1 POP PUSH2 0x234C JUMP JUMPDEST PUSH1 0x0 DUP5 DUP5 ADD MSTORE POP POP POP POP JUMP JUMPDEST PUSH1 0x0 PUSH1 0x1F NOT PUSH1 0x1F DUP4 ADD AND SWAP1 POP SWAP2 SWAP1 POP JUMP JUMPDEST PUSH1 0x0 PUSH2 0x238F DUP3 PUSH2 0x232D JUMP JUMPDEST PUSH2 0x2399 DUP2 DUP6 PUSH2 0x2338 JUMP JUMPDEST SWAP4 POP PUSH2 0x23A9 DUP2 DUP6 PUSH1 0x20 DUP7 ADD PUSH2 0x2349 JUMP JUMPDEST PUSH2 0x23B2 DUP2 PUSH2 0x2373 JUMP JUMPDEST DUP5 ADD SWAP2 POP POP SWAP3 SWAP2 POP POP JUMP JUMPDEST PUSH1 0x0 PUSH1 0x20 DUP3 ADD SWAP1 POP DUP2 DUP2 SUB PUSH1 0x0 DUP4 ADD MSTORE PUSH2 0x23D7 DUP2 DUP5 PUSH2 0x2384 JUMP JUMPDEST SWAP1 POP SWAP3 SWAP2 POP POP JUMP JUMPDEST PUSH1 0x0 DUP2 SWAP1 POP SWAP2 SWAP1 POP JUMP JUMPDEST PUSH2 0x23F2 DUP2 PUSH2 0x23DF JUMP JUMPDEST DUP2 EQ PUSH2 0x23FD JUMPI PUSH1 0x0 DUP1 REVERT JUMPDEST POP JUMP JUMPDEST PUSH1 0x0 DUP2 CALLDATALOAD SWAP1 POP PUSH2 0x240F DUP2 PUSH2 0x23E9 JUMP JUMPDEST SWAP3 SWAP2 POP POP JUMP JUMPDEST PUSH1 0x0 PUSH1 0x20 DUP3 DUP5 SUB SLT ISZERO PUSH2 0x242B JUMPI PUSH2 0x242A PUSH2 0x2268 JUMP JUMPDEST JUMPDEST PUSH1 0x0 PUSH2 0x2439 DUP5 DUP3 DUP6 ADD PUSH2 0x2400 JUMP JUMPDEST SWAP2 POP POP SWAP3 SWAP2 POP POP JUMP JUMPDEST PUSH1 0x0 PUSH20 0xFFFFFFFFFFFFFFFFFFFFFFFFFFFFFFFFFFFFFFFF DUP3 AND SWAP1 POP SWAP2 SWAP1 POP JUMP JUMPDEST PUSH1 0x0 PUSH2 0x246D DUP3 PUSH2 0x2442 JUMP JUMPDEST SWAP1 POP SWAP2 SWAP1 POP JUMP JUMPDEST PUSH2 0x247D DUP2 PUSH2 0x2462 JUMP JUMPDEST DUP3 MSTORE POP POP JUMP JUMPDEST PUSH1 0x0 PUSH1 0x20 DUP3 ADD SWAP1 POP PUSH2 0x2498 PUSH1 0x0 DUP4 ADD DUP5 PUSH2 0x2474 JUMP JUMPDEST SWAP3 SWAP2 POP POP JUMP JUMPDEST PUSH2 0x24A7 DUP2 PUSH2 0x2462 JUMP JUMPDEST DUP2 EQ PUSH2 0x24B2 JUMPI PUSH1 0x0 DUP1 REVERT JUMPDEST POP JUMP JUMPDEST PUSH1 0x0 DUP2 CALLDATALOAD SWAP1 POP PUSH2 0x24C4 DUP2 PUSH2 0x249E JUMP JUMPDEST SWAP3 SWAP2 POP POP JUMP JUMPDEST PUSH1 0x0 DUP1 PUSH1 0x40 DUP4 DUP6 SUB SLT ISZERO PUSH2 0x24E1 JUMPI PUSH2 0x24E0 PUSH2 0x2268 JUMP JUMPDEST JUMPDEST PUSH1 0x0 PUSH2 0x24EF DUP6 DUP3 DUP7 ADD PUSH2 0x24B5 JUMP JUMPDEST SWAP3 POP POP PUSH1 0x20 PUSH2 0x2500 DUP6 DUP3 DUP7 ADD PUSH2 0x2400 JUMP JUMPDEST SWAP2 POP POP SWAP3 POP SWAP3 SWAP1 POP JUMP JUMPDEST PUSH2 0x2513 DUP2 PUSH2 0x23DF JUMP JUMPDEST DUP3 MSTORE POP POP JUMP JUMPDEST PUSH1 0x0 PUSH1 0x20 DUP3 ADD SWAP1 POP PUSH2 0x252E PUSH1 0x0 DUP4 ADD DUP5 PUSH2 0x250A JUMP JUMPDEST SWAP3 SWAP2 POP POP JUMP JUMPDEST PUSH1 0x0 DUP1 PUSH1 0x0 PUSH1 0x60 DUP5 DUP7 SUB SLT ISZERO PUSH2 0x254D JUMPI PUSH2 0x254C PUSH2 0x2268 JUMP JUMPDEST JUMPDEST PUSH1 0x0 PUSH2 0x255B DUP7 DUP3 DUP8 ADD PUSH2 0x24B5 JUMP JUMPDEST SWAP4 POP POP PUSH1 0x20 PUSH2 0x256C DUP7 DUP3 DUP8 ADD PUSH2 0x24B5 JUMP JUMPDEST SWAP3 POP POP PUSH1 0x40 PUSH2 0x257D DUP7 DUP3 DUP8 ADD PUSH2 0x2400 JUMP JUMPDEST SWAP2 POP POP SWAP3 POP SWAP3 POP SWAP3 JUMP JUMPDEST PUSH1 0x0 PUSH2 0x160 DUP3 ADD SWAP1 POP DUP2 DUP2 SUB PUSH1 0x0 DUP4 ADD MSTORE PUSH2 0x25A2 DUP2 DUP15 PUSH2 0x2384 JUMP JUMPDEST SWAP1 POP DUP2 DUP2 SUB PUSH1 0x20 DUP4 ADD MSTORE PUSH2 0x25B6 DUP2 DUP14 PUSH2 0x2384 JUMP JUMPDEST SWAP1 POP PUSH2 0x25C5 PUSH1 0x40 DUP4 ADD DUP13 PUSH2 0x250A JUMP JUMPDEST PUSH2 0x25D2 PUSH1 0x60 DUP4 ADD DUP12 PUSH2 0x250A JUMP JUMPDEST PUSH2 0x25DF PUSH1 0x80 DUP4 ADD DUP11 PUSH2 0x250A JUMP JUMPDEST PUSH2 0x25EC PUSH1 0xA0 DUP4 ADD DUP10 PUSH2 0x250A JUMP JUMPDEST PUSH2 0x25F9 PUSH1 0xC0 DUP4 ADD DUP9 PUSH2 0x250A JUMP JUMPDEST PUSH2 0x2606 PUSH1 0xE0 DUP4 ADD DUP8 PUSH2 0x250A JUMP JUMPDEST PUSH2 0x2614 PUSH2 0x100 DUP4 ADD DUP7 PUSH2 0x2303 JUMP JUMPDEST PUSH2 0x2622 PUSH2 0x120 DUP4 ADD DUP6 PUSH2 0x2303 JUMP JUMPDEST DUP2 DUP2 SUB PUSH2 0x140 DUP4 ADD MSTORE PUSH2 0x2635 DUP2 DUP5 PUSH2 0x2384 JUMP JUMPDEST SWAP1 POP SWAP13 SWAP12 POP POP POP POP POP POP POP POP POP POP POP POP JUMP JUMPDEST PUSH1 0x0 PUSH1 0x20 DUP3 DUP5 SUB SLT ISZERO PUSH2 0x265D JUMPI PUSH2 0x265C PUSH2 0x2268 JUMP JUMPDEST JUMPDEST PUSH1 0x0 PUSH2 0x266B DUP5 DUP3 DUP6 ADD PUSH2 0x24B5 JUMP JUMPDEST SWAP2 POP POP SWAP3 SWAP2 POP POP JUMP JUMPDEST PUSH1 0x0 DUP1 REVERT JUMPDEST PUSH1 0x0 DUP1 REVERT JUMPDEST PUSH32 0x4E487B7100000000000000000000000000000000000000000000000000000000 PUSH1 0x0 MSTORE PUSH1 0x41 PUSH1 0x4 MSTORE PUSH1 0x24 PUSH1 0x0 REVERT JUMPDEST PUSH2 0x26B6 DUP3 PUSH2 0x2373 JUMP JUMPDEST DUP2 ADD DUP2 DUP2 LT PUSH8 0xFFFFFFFFFFFFFFFF DUP3 GT OR ISZERO PUSH2 0x26D5 JUMPI PUSH2 0x26D4 PUSH2 0x267E JUMP JUMPDEST JUMPDEST DUP1 PUSH1 0x40 MSTORE POP POP POP JUMP JUMPDEST PUSH1 0x0 PUSH2 0x26E8 PUSH2 0x225E JUMP JUMPDEST SWAP1 POP PUSH2 0x26F4 DUP3 DUP3 PUSH2 0x26AD JUMP JUMPDEST SWAP2 SWAP1 POP JUMP JUMPDEST PUSH1 0x0 PUSH8 0xFFFFFFFFFFFFFFFF DUP3 GT ISZERO PUSH2 0x2714 JUMPI PUSH2 0x2713 PUSH2 0x267E JUMP JUMPDEST JUMPDEST PUSH2 0x271D DUP3 PUSH2 0x2373 JUMP JUMPDEST SWAP1 POP PUSH1 0x20 DUP2 ADD SWAP1 POP SWAP2 SWAP1 POP JUMP JUMPDEST DUP3 DUP2 DUP4 CALLDATACOPY PUSH1 0x0 DUP4 DUP4 ADD MSTORE POP POP POP JUMP JUMPDEST PUSH1 0x0 PUSH2 0x274C PUSH2 0x2747 DUP5 PUSH2 0x26F9 JUMP JUMPDEST PUSH2 0x26DE JUMP JUMPDEST SWAP1 POP DUP3 DUP2 MSTORE PUSH1 0x20 DUP2 ADD DUP5 DUP5 DUP5 ADD GT ISZERO PUSH2 0x2768 JUMPI PUSH2 0x2767 PUSH2 0x2679 JUMP JUMPDEST JUMPDEST PUSH2 0x2773 DUP5 DUP3 DUP6 PUSH2 0x272A JUMP JUMPDEST POP SWAP4 SWAP3 POP POP POP JUMP JUMPDEST PUSH1 0x0 DUP3 PUSH1 0x1F DUP4 ADD SLT PUSH2 0x2790 JUMPI PUSH2 0x278F PUSH2 0x2674 JUMP JUMPDEST JUMPDEST DUP2 CALLDATALOAD PUSH2 0x27A0 DUP5 DUP3 PUSH1 0x20 DUP7 ADD PUSH2 0x2739 JUMP JUMPDEST SWAP2 POP POP SWAP3 SWAP2 POP POP JUMP JUMPDEST PUSH2 0x27B2 DUP2 PUSH2 0x22F7 JUMP JUMPDEST DUP2 EQ PUSH2 0x27BD JUMPI PUSH1 0x0 DUP1 REVERT JUMPDEST POP JUMP JUMPDEST PUSH1 0x0 DUP2 CALLDATALOAD SWAP1 POP PUSH2 0x27CF DUP2 PUSH2 0x27A9 JUMP JUMPDEST SWAP3 SWAP2 POP POP JUMP JUMPDEST PUSH1 0x0 DUP1 PUSH1 0x0 DUP1 PUSH1 0x0 DUP1 PUSH1 0x0 DUP1 PUSH1 0x0 DUP1 PUSH1 0x0 PUSH2 0x160 DUP13 DUP15 SUB SLT ISZERO PUSH2 0x27FB JUMPI PUSH2 0x27FA PUSH2 0x2268 JUMP JUMPDEST JUMPDEST PUSH1 0x0 DUP13 ADD CALLDATALOAD PUSH8 0xFFFFFFFFFFFFFFFF DUP2 GT ISZERO PUSH2 0x2819 JUMPI PUSH2 0x2818 PUSH2 0x226D JUMP JUMPDEST JUMPDEST PUSH2 0x2825 DUP15 DUP3 DUP16 ADD PUSH2 0x277B JUMP JUMPDEST SWAP12 POP POP PUSH1 0x20 DUP13 ADD CALLDATALOAD PUSH8 0xFFFFFFFFFFFFFFFF DUP2 GT ISZERO PUSH2 0x2846 JUMPI PUSH2 0x2845 PUSH2 0x226D JUMP JUMPDEST JUMPDEST PUSH2 0x2852 DUP15 DUP3 DUP16 ADD PUSH2 0x277B JUMP JUMPDEST SWAP11 POP POP PUSH1 0x40 PUSH2 0x2863 DUP15 DUP3 DUP16 ADD PUSH2 0x2400 JUMP JUMPDEST SWAP10 POP POP PUSH1 0x60 PUSH2 0x2874 DUP15 DUP3 DUP16 ADD PUSH2 0x2400 JUMP JUMPDEST SWAP9 POP POP PUSH1 0x80 PUSH2 0x2885 DUP15 DUP3 DUP16 ADD PUSH2 0x2400 JUMP JUMPDEST SWAP8 POP POP PUSH1 0xA0 PUSH2 0x2896 DUP15 DUP3 DUP16 ADD PUSH2 0x2400 JUMP JUMPDEST SWAP7 POP POP PUSH1 0xC0 PUSH2 0x28A7 DUP15 DUP3 DUP16 ADD PUSH2 0x2400 JUMP JUMPDEST SWAP6 POP POP PUSH1 0xE0 PUSH2 0x28B8 DUP15 DUP3 DUP16 ADD PUSH2 0x2400 JUMP JUMPDEST SWAP5 POP POP PUSH2 0x100 PUSH2 0x28CA DUP15 DUP3 DUP16 ADD PUSH2 0x27C0 JUMP JUMPDEST SWAP4 POP POP PUSH2 0x120 PUSH2 0x28DC DUP15 DUP3 DUP16 ADD PUSH2 0x27C0 JUMP JUMPDEST SWAP3 POP POP PUSH2 0x140 DUP13 ADD CALLDATALOAD PUSH8 0xFFFFFFFFFFFFFFFF DUP2 GT ISZERO PUSH2 0x28FE JUMPI PUSH2 0x28FD PUSH2 0x226D JUMP JUMPDEST JUMPDEST PUSH2 0x290A DUP15 DUP3 DUP16 ADD PUSH2 0x277B JUMP JUMPDEST SWAP2 POP POP SWAP3 SWAP6 SWAP9 SWAP12 POP SWAP3 SWAP6 SWAP9 SWAP12 SWAP1 SWAP4 SWAP7 SWAP10 POP JUMP JUMPDEST PUSH1 0x0 DUP1 PUSH1 0x40 DUP4 DUP6 SUB SLT ISZERO PUSH2 0x2934 JUMPI PUSH2 0x2933 PUSH2 0x2268 JUMP JUMPDEST JUMPDEST PUSH1 0x0 PUSH2 0x2942 DUP6 DUP3 DUP7 ADD PUSH2 0x24B5 JUMP JUMPDEST SWAP3 POP POP PUSH1 0x20 PUSH2 0x2953 DUP6 DUP3 DUP7 ADD PUSH2 0x27C0 JUMP JUMPDEST SWAP2 POP POP SWAP3 POP SWAP3 SWAP1 POP JUMP JUMPDEST PUSH1 0x0 PUSH8 0xFFFFFFFFFFFFFFFF DUP3 GT ISZERO PUSH2 0x2978 JUMPI PUSH2 0x2977 PUSH2 0x267E JUMP JUMPDEST JUMPDEST PUSH2 0x2981 DUP3 PUSH2 0x2373 JUMP JUMPDEST SWAP1 POP PUSH1 0x20 DUP2 ADD SWAP1 POP SWAP2 SWAP1 POP JUMP JUMPDEST PUSH1 0x0 PUSH2 0x29A1 PUSH2 0x299C DUP5 PUSH2 0x295D JUMP JUMPDEST PUSH2 0x26DE JUMP JUMPDEST SWAP1 POP DUP3 DUP2 MSTORE PUSH1 0x20 DUP2 ADD DUP5 DUP5 DUP5 ADD GT ISZERO PUSH2 0x29BD JUMPI PUSH2 0x29BC PUSH2 0x2679 JUMP JUMPDEST JUMPDEST PUSH2 0x29C8 DUP5 DUP3 DUP6 PUSH2 0x272A JUMP JUMPDEST POP SWAP4 SWAP3 POP POP POP JUMP JUMPDEST PUSH1 0x0 DUP3 PUSH1 0x1F DUP4 ADD SLT PUSH2 0x29E5 JUMPI PUSH2 0x29E4 PUSH2 0x2674 JUMP JUMPDEST JUMPDEST DUP2 CALLDATALOAD PUSH2 0x29F5 DUP5 DUP3 PUSH1 0x20 DUP7 ADD PUSH2 0x298E JUMP JUMPDEST SWAP2 POP POP SWAP3 SWAP2 POP POP JUMP JUMPDEST PUSH1 0x0 DUP1 PUSH1 0x0 DUP1 PUSH1 0x80 DUP6 DUP8 SUB SLT ISZERO PUSH2 0x2A18 JUMPI PUSH2 0x2A17 PUSH2 0x2268 JUMP JUMPDEST JUMPDEST PUSH1 0x0 PUSH2 0x2A26 DUP8 DUP3 DUP9 ADD PUSH2 0x24B5 JUMP JUMPDEST SWAP5 POP POP PUSH1 0x20 PUSH2 0x2A37 DUP8 DUP3 DUP9 ADD PUSH2 0x24B5 JUMP JUMPDEST SWAP4 POP POP PUSH1 0x40 PUSH2 0x2A48 DUP8 DUP3 DUP9 ADD PUSH2 0x2400 JUMP JUMPDEST SWAP3 POP POP PUSH1 0x60 DUP6 ADD CALLDATALOAD PUSH8 0xFFFFFFFFFFFFFFFF DUP2 GT ISZERO PUSH2 0x2A69 JUMPI PUSH2 0x2A68 PUSH2 0x226D JUMP JUMPDEST JUMPDEST PUSH2 0x2A75 DUP8 DUP3 DUP9 ADD PUSH2 0x29D0 JUMP JUMPDEST SWAP2 POP POP SWAP3 SWAP6 SWAP2 SWAP5 POP SWAP3 POP JUMP JUMPDEST PUSH1 0x0 DUP1 PUSH1 0x40 DUP4 DUP6 SUB SLT ISZERO PUSH2 0x2A98 JUMPI PUSH2 0x2A97 PUSH2 0x2268 JUMP JUMPDEST JUMPDEST PUSH1 0x0 PUSH2 0x2AA6 DUP6 DUP3 DUP7 ADD PUSH2 0x24B5 JUMP JUMPDEST SWAP3 POP POP PUSH1 0x20 PUSH2 0x2AB7 DUP6 DUP3 DUP7 ADD PUSH2 0x24B5 JUMP JUMPDEST SWAP2 POP POP SWAP3 POP SWAP3 SWAP1 POP JUMP JUMPDEST PUSH32 0x4E487B7100000000000000000000000000000000000000000000000000000000 PUSH1 0x0 MSTORE PUSH1 0x22 PUSH1 0x4 MSTORE PUSH1 0x24 PUSH1 0x0 REVERT JUMPDEST PUSH1 0x0 PUSH1 0x2 DUP3 DIV SWAP1 POP PUSH1 0x1 DUP3 AND DUP1 PUSH2 0x2B08 JUMPI PUSH1 0x7F DUP3 AND SWAP2 POP JUMPDEST PUSH1 0x20 DUP3 LT DUP2 SUB PUSH2 0x2B1B JUMPI PUSH2 0x2B1A PUSH2 0x2AC1 JUMP JUMPDEST JUMPDEST POP SWAP2 SWAP1 POP JUMP JUMPDEST PUSH32 0x4552433732313A20617070726F76616C20746F2063757272656E74206F776E65 PUSH1 0x0 DUP3 ADD MSTORE PUSH32 0x7200000000000000000000000000000000000000000000000000000000000000 PUSH1 0x20 DUP3 ADD MSTORE POP JUMP JUMPDEST PUSH1 0x0 PUSH2 0x2B7D PUSH1 0x21 DUP4 PUSH2 0x2338 JUMP JUMPDEST SWAP2 POP PUSH2 0x2B88 DUP3 PUSH2 0x2B21 JUMP JUMPDEST PUSH1 0x40 DUP3 ADD SWAP1 POP SWAP2 SWAP1 POP JUMP JUMPDEST PUSH1 0x0 PUSH1 0x20 DUP3 ADD SWAP1 POP DUP2 DUP2 SUB PUSH1 0x0 DUP4 ADD MSTORE PUSH2 0x2BAC DUP2 PUSH2 0x2B70 JUMP JUMPDEST SWAP1 POP SWAP2 SWAP1 POP JUMP JUMPDEST PUSH32 0x4552433732313A20617070726F76652063616C6C6572206973206E6F7420746F PUSH1 0x0 DUP3 ADD MSTORE PUSH32 0x6B656E206F776E6572206E6F7220617070726F76656420666F7220616C6C0000 PUSH1 0x20 DUP3 ADD MSTORE POP JUMP JUMPDEST PUSH1 0x0 PUSH2 0x2C0F PUSH1 0x3E DUP4 PUSH2 0x2338 JUMP JUMPDEST SWAP2 POP PUSH2 0x2C1A DUP3 PUSH2 0x2BB3 JUMP JUMPDEST PUSH1 0x40 DUP3 ADD SWAP1 POP SWAP2 SWAP1 POP JUMP JUMPDEST PUSH1 0x0 PUSH1 0x20 DUP3 ADD SWAP1 POP DUP2 DUP2 SUB PUSH1 0x0 DUP4 ADD MSTORE PUSH2 0x2C3E DUP2 PUSH2 0x2C02 JUMP JUMPDEST SWAP1 POP SWAP2 SWAP1 POP JUMP JUMPDEST PUSH32 0x4552433732313A2063616C6C6572206973206E6F7420746F6B656E206F776E65 PUSH1 0x0 DUP3 ADD MSTORE PUSH32 0x72206E6F7220617070726F766564000000000000000000000000000000000000 PUSH1 0x20 DUP3 ADD MSTORE POP JUMP JUMPDEST PUSH1 0x0 PUSH2 0x2CA1 PUSH1 0x2E DUP4 PUSH2 0x2338 JUMP JUMPDEST SWAP2 POP PUSH2 0x2CAC DUP3 PUSH2 0x2C45 JUMP JUMPDEST PUSH1 0x40 DUP3 ADD SWAP1 POP SWAP2 SWAP1 POP JUMP JUMPDEST PUSH1 0x0 PUSH1 0x20 DUP3 ADD SWAP1 POP DUP2 DUP2 SUB PUSH1 0x0 DUP4 ADD MSTORE PUSH2 0x2CD0 DUP2 PUSH2 0x2C94 JUMP JUMPDEST SWAP1 POP SWAP2 SWAP1 POP JUMP JUMPDEST PUSH32 0x455243373231456E756D657261626C653A206F776E657220696E646578206F75 PUSH1 0x0 DUP3 ADD MSTORE PUSH32 0x74206F6620626F756E6473000000000000000000000000000000000000000000 PUSH1 0x20 DUP3 ADD MSTORE POP JUMP JUMPDEST PUSH1 0x0 PUSH2 0x2D33 PUSH1 0x2B DUP4 PUSH2 0x2338 JUMP JUMPDEST SWAP2 POP PUSH2 0x2D3E DUP3 PUSH2 0x2CD7 JUMP JUMPDEST PUSH1 0x40 DUP3 ADD SWAP1 POP SWAP2 SWAP1 POP JUMP JUMPDEST PUSH1 0x0 PUSH1 0x20 DUP3 ADD SWAP1 POP DUP2 DUP2 SUB PUSH1 0x0 DUP4 ADD MSTORE PUSH2 0x2D62 DUP2 PUSH2 0x2D26 JUMP JUMPDEST SWAP1 POP SWAP2 SWAP1 POP JUMP JUMPDEST PUSH32 0x455243373231456E756D657261626C653A20676C6F62616C20696E646578206F PUSH1 0x0 DUP3 ADD MSTORE PUSH32 0x7574206F6620626F756E64730000000000000000000000000000000000000000 PUSH1 0x20 DUP3 ADD MSTORE POP JUMP JUMPDEST PUSH1 0x0 PUSH2 0x2DC5 PUSH1 0x2C DUP4 PUSH2 0x2338 JUMP JUMPDEST SWAP2 POP PUSH2 0x2DD0 DUP3 PUSH2 0x2D69 JUMP JUMPDEST PUSH1 0x40 DUP3 ADD SWAP1 POP SWAP2 SWAP1 POP JUMP JUMPDEST PUSH1 0x0 PUSH1 0x20 DUP3 ADD SWAP1 POP DUP2 DUP2 SUB PUSH1 0x0 DUP4 ADD MSTORE PUSH2 0x2DF4 DUP2 PUSH2 0x2DB8 JUMP JUMPDEST SWAP1 POP SWAP2 SWAP1 POP JUMP JUMPDEST PUSH32 0x4E487B7100000000000000000000000000000000000000000000000000000000 PUSH1 0x0 MSTORE PUSH1 0x32 PUSH1 0x4 MSTORE PUSH1 0x24 PUSH1 0x0 REVERT JUMPDEST PUSH32 0x4552433732313A20696E76616C696420746F6B656E2049440000000000000000 PUSH1 0x0 DUP3 ADD MSTORE POP JUMP JUMPDEST PUSH1 0x0 PUSH2 0x2E60 PUSH1 0x18 DUP4 PUSH2 0x2338 JUMP JUMPDEST SWAP2 POP PUSH2 0x2E6B DUP3 PUSH2 0x2E2A JUMP JUMPDEST PUSH1 0x20 DUP3 ADD SWAP1 POP SWAP2 SWAP1 POP JUMP JUMPDEST PUSH1 0x0 PUSH1 0x20 DUP3 ADD SWAP1 POP DUP2 DUP2 SUB PUSH1 0x0 DUP4 ADD MSTORE PUSH2 0x2E8F DUP2 PUSH2 0x2E53 JUMP JUMPDEST SWAP1 POP SWAP2 SWAP1 POP JUMP JUMPDEST PUSH32 0x4552433732313A2061646472657373207A65726F206973206E6F742061207661 PUSH1 0x0 DUP3 ADD MSTORE PUSH32 0x6C6964206F776E65720000000000000000000000000000000000000000000000 PUSH1 0x20 DUP3 ADD MSTORE POP JUMP JUMPDEST PUSH1 0x0 PUSH2 0x2EF2 PUSH1 0x29 DUP4 PUSH2 0x2338 JUMP JUMPDEST SWAP2 POP PUSH2 0x2EFD DUP3 PUSH2 0x2E96 JUMP JUMPDEST PUSH1 0x40 DUP3 ADD SWAP1 POP SWAP2 SWAP1 POP JUMP JUMPDEST PUSH1 0x0 PUSH1 0x20 DUP3 ADD SWAP1 POP DUP2 DUP2 SUB PUSH1 0x0 DUP4 ADD MSTORE PUSH2 0x2F21 DUP2 PUSH2 0x2EE5 JUMP JUMPDEST SWAP1 POP SWAP2 SWAP1 POP JUMP JUMPDEST PUSH1 0x0 DUP2 SWAP1 POP DUP2 PUSH1 0x0 MSTORE PUSH1 0x20 PUSH1 0x0 KECCAK256 SWAP1 POP SWAP2 SWAP1 POP JUMP JUMPDEST PUSH1 0x0 PUSH1 0x20 PUSH1 0x1F DUP4 ADD DIV SWAP1 POP SWAP2 SWAP1 POP JUMP JUMPDEST PUSH1 0x0 DUP3 DUP3 SHL SWAP1 POP SWAP3 SWAP2 POP POP JUMP JUMPDEST PUSH1 0x0 PUSH1 0x8 DUP4 MUL PUSH2 0x2F8A PUSH32 0xFFFFFFFFFFFFFFFFFFFFFFFFFFFFFFFFFFFFFFFFFFFFFFFFFFFFFFFFFFFFFFFF DUP3 PUSH2 0x2F4D JUMP JUMPDEST PUSH2 0x2F94 DUP7 DUP4 PUSH2 0x2F4D JUMP JUMPDEST SWAP6 POP DUP1 NOT DUP5 AND SWAP4 POP DUP1 DUP7 AND DUP5 OR SWAP3 POP POP POP SWAP4 SWAP3 POP POP POP JUMP JUMPDEST PUSH1 0x0 DUP2 SWAP1 POP SWAP2 SWAP1 POP JUMP JUMPDEST PUSH1 0x0 PUSH2 0x2FD1 PUSH2 0x2FCC PUSH2 0x2FC7 DUP5 PUSH2 0x23DF JUMP JUMPDEST PUSH2 0x2FAC JUMP JUMPDEST PUSH2 0x23DF JUMP JUMPDEST SWAP1 POP SWAP2 SWAP1 POP JUMP JUMPDEST PUSH1 0x0 DUP2 SWAP1 POP SWAP2 SWAP1 POP JUMP JUMPDEST PUSH2 0x2FEB DUP4 PUSH2 0x2FB6 JUMP JUMPDEST PUSH2 0x2FFF PUSH2 0x2FF7 DUP3 PUSH2 0x2FD8 JUMP JUMPDEST DUP5 DUP5 SLOAD PUSH2 0x2F5A JUMP JUMPDEST DUP3 SSTORE POP POP POP POP JUMP JUMPDEST PUSH1 0x0 SWAP1 JUMP JUMPDEST PUSH2 0x3014 PUSH2 0x3007 JUMP JUMPDEST PUSH2 0x301F DUP2 DUP5 DUP5 PUSH2 0x2FE2 JUMP JUMPDEST POP POP POP JUMP JUMPDEST JUMPDEST DUP2 DUP2 LT ISZERO PUSH2 0x3043 JUMPI PUSH2 0x3038 PUSH1 0x0 DUP3 PUSH2 0x300C JUMP JUMPDEST PUSH1 0x1 DUP2 ADD SWAP1 POP PUSH2 0x3025 JUMP JUMPDEST POP POP JUMP JUMPDEST PUSH1 0x1F DUP3 GT ISZERO PUSH2 0x3088 JUMPI PUSH2 0x3059 DUP2 PUSH2 0x2F28 JUMP JUMPDEST PUSH2 0x3062 DUP5 PUSH2 0x2F3D JUMP JUMPDEST DUP2 ADD PUSH1 0x20 DUP6 LT ISZERO PUSH2 0x3071 JUMPI DUP2 SWAP1 POP JUMPDEST PUSH2 0x3085 PUSH2 0x307D DUP6 PUSH2 0x2F3D JUMP JUMPDEST DUP4 ADD DUP3 PUSH2 0x3024 JUMP JUMPDEST POP POP JUMPDEST POP POP POP JUMP JUMPDEST PUSH1 0x0 DUP3 DUP3 SHR SWAP1 POP SWAP3 SWAP2 POP POP JUMP JUMPDEST PUSH1 0x0 PUSH2 0x30AB PUSH1 0x0 NOT DUP5 PUSH1 0x8 MUL PUSH2 0x308D JUMP JUMPDEST NOT DUP1 DUP4 AND SWAP2 POP POP SWAP3 SWAP2 POP POP JUMP JUMPDEST PUSH1 0x0 PUSH2 0x30C4 DUP4 DUP4 PUSH2 0x309A JUMP JUMPDEST SWAP2 POP DUP3 PUSH1 0x2 MUL DUP3 OR SWAP1 POP SWAP3 SWAP2 POP POP JUMP JUMPDEST PUSH2 0x30DD DUP3 PUSH2 0x232D JUMP JUMPDEST PUSH8 0xFFFFFFFFFFFFFFFF DUP2 GT ISZERO PUSH2 0x30F6 JUMPI PUSH2 0x30F5 PUSH2 0x267E JUMP JUMPDEST JUMPDEST PUSH2 0x3100 DUP3 SLOAD PUSH2 0x2AF0 JUMP JUMPDEST PUSH2 0x310B DUP3 DUP3 DUP6 PUSH2 0x3047 JUMP JUMPDEST PUSH1 0x0 PUSH1 0x20 SWAP1 POP PUSH1 0x1F DUP4 GT PUSH1 0x1 DUP2 EQ PUSH2 0x313E JUMPI PUSH1 0x0 DUP5 ISZERO PUSH2 0x312C JUMPI DUP3 DUP8 ADD MLOAD SWAP1 POP JUMPDEST PUSH2 0x3136 DUP6 DUP3 PUSH2 0x30B8 JUMP JUMPDEST DUP7 SSTORE POP PUSH2 0x319E JUMP JUMPDEST PUSH1 0x1F NOT DUP5 AND PUSH2 0x314C DUP7 PUSH2 0x2F28 JUMP JUMPDEST PUSH1 0x0 JUMPDEST DUP3 DUP2 LT ISZERO PUSH2 0x3174 JUMPI DUP5 DUP10 ADD MLOAD DUP3 SSTORE PUSH1 0x1 DUP3 ADD SWAP2 POP PUSH1 0x20 DUP6 ADD SWAP5 POP PUSH1 0x20 DUP2 ADD SWAP1 POP PUSH2 0x314F JUMP JUMPDEST DUP7 DUP4 LT ISZERO PUSH2 0x3191 JUMPI DUP5 DUP10 ADD MLOAD PUSH2 0x318D PUSH1 0x1F DUP10 AND DUP3 PUSH2 0x309A JUMP JUMPDEST DUP4 SSTORE POP JUMPDEST PUSH1 0x1 PUSH1 0x2 DUP9 MUL ADD DUP9 SSTORE POP POP POP JUMPDEST POP POP POP POP POP POP JUMP JUMPDEST PUSH32 0x455243373231204D657461646174613A2055524920717565727920666F72206E PUSH1 0x0 DUP3 ADD MSTORE PUSH32 0x6F6E6578697374656E7420746F6B656E00000000000000000000000000000000 PUSH1 0x20 DUP3 ADD MSTORE POP JUMP JUMPDEST PUSH1 0x0 PUSH2 0x3202 PUSH1 0x30 DUP4 PUSH2 0x2338 JUMP JUMPDEST SWAP2 POP PUSH2 0x320D DUP3 PUSH2 0x31A6 JUMP JUMPDEST PUSH1 0x40 DUP3 ADD SWAP1 POP SWAP2 SWAP1 POP JUMP JUMPDEST PUSH1 0x0 PUSH1 0x20 DUP3 ADD SWAP1 POP DUP2 DUP2 SUB PUSH1 0x0 DUP4 ADD MSTORE PUSH2 0x3231 DUP2 PUSH2 0x31F5 JUMP JUMPDEST SWAP1 POP SWAP2 SWAP1 POP JUMP JUMPDEST PUSH1 0x0 DUP2 SWAP1 POP SWAP3 SWAP2 POP POP JUMP JUMPDEST PUSH32 0x7B226E616D65223A220000000000000000000000000000000000000000000000 PUSH1 0x0 DUP3 ADD MSTORE POP JUMP JUMPDEST PUSH1 0x0 PUSH2 0x3279 PUSH1 0x9 DUP4 PUSH2 0x3238 JUMP JUMPDEST SWAP2 POP PUSH2 0x3284 DUP3 PUSH2 0x3243 JUMP JUMPDEST PUSH1 0x9 DUP3 ADD SWAP1 POP SWAP2 SWAP1 POP JUMP JUMPDEST PUSH32 0x5465737420566573746100000000000000000000000000000000000000000000 PUSH1 0x0 DUP3 ADD MSTORE POP JUMP JUMPDEST PUSH1 0x0 PUSH2 0x32C5 PUSH1 0xA DUP4 PUSH2 0x3238 JUMP JUMPDEST SWAP2 POP PUSH2 0x32D0 DUP3 PUSH2 0x328F JUMP JUMPDEST PUSH1 0xA DUP3 ADD SWAP1 POP SWAP2 SWAP1 POP JUMP JUMPDEST PUSH32 0x222C226465736372697074696F6E223A22000000000000000000000000000000 PUSH1 0x0 DUP3 ADD MSTORE POP JUMP JUMPDEST PUSH1 0x0 PUSH2 0x3311 PUSH1 0x11 DUP4 PUSH2 0x3238 JUMP JUMPDEST SWAP2 POP PUSH2 0x331C DUP3 PUSH2 0x32DB JUMP JUMPDEST PUSH1 0x11 DUP3 ADD SWAP1 POP SWAP2 SWAP1 POP JUMP JUMPDEST PUSH32 0x54657374207369206573746520666F726D61746F2066756E63696F6E61000000 PUSH1 0x0 DUP3 ADD MSTORE POP JUMP JUMPDEST PUSH1 0x0 PUSH2 0x335D PUSH1 0x1D DUP4 PUSH2 0x3238 JUMP JUMPDEST SWAP2 POP PUSH2 0x3368 DUP3 PUSH2 0x3327 JUMP JUMPDEST PUSH1 0x1D DUP3 ADD SWAP1 POP SWAP2 SWAP1 POP JUMP JUMPDEST PUSH32 0x222C22696D616765223A22000000000000000000000000000000000000000000 PUSH1 0x0 DUP3 ADD MSTORE POP JUMP JUMPDEST PUSH1 0x0 PUSH2 0x33A9 PUSH1 0xB DUP4 PUSH2 0x3238 JUMP JUMPDEST SWAP2 POP PUSH2 0x33B4 DUP3 PUSH2 0x3373 JUMP JUMPDEST PUSH1 0xB DUP3 ADD SWAP1 POP SWAP2 SWAP1 POP JUMP JUMPDEST PUSH32 0x68747470733A2F2F676174657761792E70696E6174612E636C6F75642F697066 PUSH1 0x0 DUP3 ADD MSTORE PUSH32 0x732F516D64653734716867723278547461784278473961534563756762664356 PUSH1 0x20 DUP3 ADD MSTORE PUSH32 0x5A6D3264646B6A456A7977726E75575700000000000000000000000000000000 PUSH1 0x40 DUP3 ADD MSTORE POP JUMP JUMPDEST PUSH1 0x0 PUSH2 0x3441 PUSH1 0x50 DUP4 PUSH2 0x3238 JUMP JUMPDEST SWAP2 POP PUSH2 0x344C DUP3 PUSH2 0x33BF JUMP JUMPDEST PUSH1 0x50 DUP3 ADD SWAP1 POP SWAP2 SWAP1 POP JUMP JUMPDEST PUSH32 0x222C2261747472696275746573223A5B7B2274726169745F74797065223A2254 PUSH1 0x0 DUP3 ADD MSTORE PUSH32 0x79706F6C6F6779222C2276616C7565223A220000000000000000000000000000 PUSH1 0x20 DUP3 ADD MSTORE POP JUMP JUMPDEST PUSH1 0x0 PUSH2 0x34B3 PUSH1 0x32 DUP4 PUSH2 0x3238 JUMP JUMPDEST SWAP2 POP PUSH2 0x34BE DUP3 PUSH2 0x3457 JUMP JUMPDEST PUSH1 0x32 DUP3 ADD SWAP1 POP SWAP2 SWAP1 POP JUMP JUMPDEST PUSH1 0x0 DUP2 SLOAD PUSH2 0x34D6 DUP2 PUSH2 0x2AF0 JUMP JUMPDEST PUSH2 0x34E0 DUP2 DUP7 PUSH2 0x3238 JUMP JUMPDEST SWAP5 POP PUSH1 0x1 DUP3 AND PUSH1 0x0 DUP2 EQ PUSH2 0x34FB JUMPI PUSH1 0x1 DUP2 EQ PUSH2 0x3510 JUMPI PUSH2 0x3543 JUMP JUMPDEST PUSH1 0xFF NOT DUP4 AND DUP7 MSTORE DUP2 ISZERO ISZERO DUP3 MUL DUP7 ADD SWAP4 POP PUSH2 0x3543 JUMP JUMPDEST PUSH2 0x3519 DUP6 PUSH2 0x2F28 JUMP JUMPDEST PUSH1 0x0 JUMPDEST DUP4 DUP2 LT ISZERO PUSH2 0x353B JUMPI DUP2 SLOAD DUP2 DUP10 ADD MSTORE PUSH1 0x1 DUP3 ADD SWAP2 POP PUSH1 0x20 DUP2 ADD SWAP1 POP PUSH2 0x351C JUMP JUMPDEST DUP4 DUP9 ADD SWAP6 POP POP POP JUMPDEST POP POP POP SWAP3 SWAP2 POP POP JUMP JUMPDEST PUSH32 0x227D2C7B2274726169745F74797065223A202259656172206275696C74222C22 PUSH1 0x0 DUP3 ADD MSTORE PUSH32 0x76616C7565223A22000000000000000000000000000000000000000000000000 PUSH1 0x20 DUP3 ADD MSTORE POP JUMP JUMPDEST PUSH1 0x0 PUSH2 0x35A8 PUSH1 0x28 DUP4 PUSH2 0x3238 JUMP JUMPDEST SWAP2 POP PUSH2 0x35B3 DUP3 PUSH2 0x354C JUMP JUMPDEST PUSH1 0x28 DUP3 ADD SWAP1 POP SWAP2 SWAP1 POP JUMP JUMPDEST PUSH1 0x0 PUSH2 0x35C9 DUP3 PUSH2 0x232D JUMP JUMPDEST PUSH2 0x35D3 DUP2 DUP6 PUSH2 0x3238 JUMP JUMPDEST SWAP4 POP PUSH2 0x35E3 DUP2 DUP6 PUSH1 0x20 DUP7 ADD PUSH2 0x2349 JUMP JUMPDEST DUP1 DUP5 ADD SWAP2 POP POP SWAP3 SWAP2 POP POP JUMP JUMPDEST PUSH32 0x227D2C7B2274726169745F74797065223A2022537175617265206D6574657273 PUSH1 0x0 DUP3 ADD MSTORE PUSH32 0x222C2276616C7565223A22000000000000000000000000000000000000000000 PUSH1 0x20 DUP3 ADD MSTORE POP JUMP JUMPDEST PUSH1 0x0 PUSH2 0x364B PUSH1 0x2B DUP4 PUSH2 0x3238 JUMP JUMPDEST SWAP2 POP PUSH2 0x3656 DUP3 PUSH2 0x35EF JUMP JUMPDEST PUSH1 0x2B DUP3 ADD SWAP1 POP SWAP2 SWAP1 POP JUMP JUMPDEST PUSH32 0x227D2C7B2274726169745F74797065223A2022526F6F6D73222C2276616C7565 PUSH1 0x0 DUP3 ADD MSTORE PUSH32 0x223A220000000000000000000000000000000000000000000000000000000000 PUSH1 0x20 DUP3 ADD MSTORE POP JUMP JUMPDEST PUSH1 0x0 PUSH2 0x36BD PUSH1 0x23 DUP4 PUSH2 0x3238 JUMP JUMPDEST SWAP2 POP PUSH2 0x36C8 DUP3 PUSH2 0x3661 JUMP JUMPDEST PUSH1 0x23 DUP3 ADD SWAP1 POP SWAP2 SWAP1 POP JUMP JUMPDEST PUSH32 0x227D2C7B2274726169745F74797065223A202242617468726F6F6D73222C2276 PUSH1 0x0 DUP3 ADD MSTORE PUSH32 0x616C7565223A2200000000000000000000000000000000000000000000000000 PUSH1 0x20 DUP3 ADD MSTORE POP JUMP JUMPDEST PUSH1 0x0 PUSH2 0x372F PUSH1 0x27 DUP4 PUSH2 0x3238 JUMP JUMPDEST SWAP2 POP PUSH2 0x373A DUP3 PUSH2 0x36D3 JUMP JUMPDEST PUSH1 0x27 DUP3 ADD SWAP1 POP SWAP2 SWAP1 POP JUMP JUMPDEST PUSH32 0x227D2C7B2274726169745F74797065223A20224C6576656C73222C2276616C75 PUSH1 0x0 DUP3 ADD MSTORE PUSH32 0x65223A2200000000000000000000000000000000000000000000000000000000 PUSH1 0x20 DUP3 ADD MSTORE POP JUMP JUMPDEST PUSH1 0x0 PUSH2 0x37A1 PUSH1 0x24 DUP4 PUSH2 0x3238 JUMP JUMPDEST SWAP2 POP PUSH2 0x37AC DUP3 PUSH2 0x3745 JUMP JUMPDEST PUSH1 0x24 DUP3 ADD SWAP1 POP SWAP2 SWAP1 POP JUMP JUMPDEST PUSH32 0x227D2C7B2274726169745F74797065223A20225061726B696E6773222C227661 PUSH1 0x0 DUP3 ADD MSTORE PUSH32 0x6C7565223A220000000000000000000000000000000000000000000000000000 PUSH1 0x20 DUP3 ADD MSTORE POP JUMP JUMPDEST PUSH1 0x0 PUSH2 0x3813 PUSH1 0x26 DUP4 PUSH2 0x3238 JUMP JUMPDEST SWAP2 POP PUSH2 0x381E DUP3 PUSH2 0x37B7 JUMP JUMPDEST PUSH1 0x26 DUP3 ADD SWAP1 POP SWAP2 SWAP1 POP JUMP JUMPDEST PUSH32 0x227D2C7B2274726169745F74797065223A202259617264222C2276616C756522 PUSH1 0x0 DUP3 ADD MSTORE PUSH32 0x3A22000000000000000000000000000000000000000000000000000000000000 PUSH1 0x20 DUP3 ADD MSTORE POP JUMP JUMPDEST PUSH1 0x0 PUSH2 0x3885 PUSH1 0x22 DUP4 PUSH2 0x3238 JUMP JUMPDEST SWAP2 POP PUSH2 0x3890 DUP3 PUSH2 0x3829 JUMP JUMPDEST PUSH1 0x22 DUP3 ADD SWAP1 POP SWAP2 SWAP1 POP JUMP JUMPDEST PUSH1 0x0 DUP2 PUSH1 0xF8 SHL SWAP1 POP SWAP2 SWAP1 POP JUMP JUMPDEST PUSH1 0x0 PUSH2 0x38B3 DUP3 PUSH2 0x389B JUMP JUMPDEST SWAP1 POP SWAP2 SWAP1 POP JUMP JUMPDEST PUSH1 0x0 PUSH2 0x38C5 DUP3 PUSH2 0x38A8 JUMP JUMPDEST SWAP1 POP SWAP2 SWAP1 POP JUMP JUMPDEST PUSH2 0x38DD PUSH2 0x38D8 DUP3 PUSH2 0x22F7 JUMP JUMPDEST PUSH2 0x38BA JUMP JUMPDEST DUP3 MSTORE POP POP JUMP JUMPDEST PUSH32 0x227D2C7B2274726169745F74797065223A2022506F6F6C222C2276616C756522 PUSH1 0x0 DUP3 ADD MSTORE PUSH32 0x3A22000000000000000000000000000000000000000000000000000000000000 PUSH1 0x20 DUP3 ADD MSTORE POP JUMP JUMPDEST PUSH1 0x0 PUSH2 0x393F PUSH1 0x22 DUP4 PUSH2 0x3238 JUMP JUMPDEST SWAP2 POP PUSH2 0x394A DUP3 PUSH2 0x38E3 JUMP JUMPDEST PUSH1 0x22 DUP3 ADD SWAP1 POP SWAP2 SWAP1 POP JUMP JUMPDEST PUSH32 0x227D2C7B2274726169745F74797065223A20226C6F636174696F6E222C227661 PUSH1 0x0 DUP3 ADD MSTORE PUSH32 0x6C7565223A220000000000000000000000000000000000000000000000000000 PUSH1 0x20 DUP3 ADD MSTORE POP JUMP JUMPDEST PUSH1 0x0 PUSH2 0x39B1 PUSH1 0x26 DUP4 PUSH2 0x3238 JUMP JUMPDEST SWAP2 POP PUSH2 0x39BC DUP3 PUSH2 0x3955 JUMP JUMPDEST PUSH1 0x26 DUP3 ADD SWAP1 POP SWAP2 SWAP1 POP JUMP JUMPDEST PUSH32 0x227D5D7D00000000000000000000000000000000000000000000000000000000 PUSH1 0x0 DUP3 ADD MSTORE POP JUMP JUMPDEST PUSH1 0x0 PUSH2 0x39FD PUSH1 0x4 DUP4 PUSH2 0x3238 JUMP JUMPDEST SWAP2 POP PUSH2 0x3A08 DUP3 PUSH2 0x39C7 JUMP JUMPDEST PUSH1 0x4 DUP3 ADD SWAP1 POP SWAP2 SWAP1 POP JUMP JUMPDEST PUSH1 0x0 PUSH2 0x3A1E DUP3 PUSH2 0x326C JUMP JUMPDEST SWAP2 POP PUSH2 0x3A29 DUP3 PUSH2 0x32B8 JUMP JUMPDEST SWAP2 POP PUSH2 0x3A34 DUP3 PUSH2 0x3304 JUMP JUMPDEST SWAP2 POP PUSH2 0x3A3F DUP3 PUSH2 0x3350 JUMP JUMPDEST SWAP2 POP PUSH2 0x3A4A DUP3 PUSH2 0x339C JUMP JUMPDEST SWAP2 POP PUSH2 0x3A55 DUP3 PUSH2 0x3434 JUMP JUMPDEST SWAP2 POP PUSH2 0x3A60 DUP3 PUSH2 0x34A6 JUMP JUMPDEST SWAP2 POP PUSH2 0x3A6C DUP3 DUP14 PUSH2 0x34C9 JUMP JUMPDEST SWAP2 POP PUSH2 0x3A77 DUP3 PUSH2 0x359B JUMP JUMPDEST SWAP2 POP PUSH2 0x3A83 DUP3 DUP13 PUSH2 0x35BE JUMP JUMPDEST SWAP2 POP PUSH2 0x3A8E DUP3 PUSH2 0x363E JUMP JUMPDEST SWAP2 POP PUSH2 0x3A9A DUP3 DUP12 PUSH2 0x35BE JUMP JUMPDEST SWAP2 POP PUSH2 0x3AA5 DUP3 PUSH2 0x36B0 JUMP JUMPDEST SWAP2 POP PUSH2 0x3AB1 DUP3 DUP11 PUSH2 0x35BE JUMP JUMPDEST SWAP2 POP PUSH2 0x3ABC DUP3 PUSH2 0x3722 JUMP JUMPDEST SWAP2 POP PUSH2 0x3AC8 DUP3 DUP10 PUSH2 0x35BE JUMP JUMPDEST SWAP2 POP PUSH2 0x3AD3 DUP3 PUSH2 0x3794 JUMP JUMPDEST SWAP2 POP PUSH2 0x3ADF DUP3 DUP9 PUSH2 0x35BE JUMP JUMPDEST SWAP2 POP PUSH2 0x3AEA DUP3 PUSH2 0x3806 JUMP JUMPDEST SWAP2 POP PUSH2 0x3AF6 DUP3 DUP8 PUSH2 0x35BE JUMP JUMPDEST SWAP2 POP PUSH2 0x3B01 DUP3 PUSH2 0x3878 JUMP JUMPDEST SWAP2 POP PUSH2 0x3B0D DUP3 DUP7 PUSH2 0x38CC JUMP JUMPDEST PUSH1 0x1 DUP3 ADD SWAP2 POP PUSH2 0x3B1C DUP3 PUSH2 0x3932 JUMP JUMPDEST SWAP2 POP PUSH2 0x3B28 DUP3 DUP6 PUSH2 0x38CC JUMP JUMPDEST PUSH1 0x1 DUP3 ADD SWAP2 POP PUSH2 0x3B37 DUP3 PUSH2 0x39A4 JUMP JUMPDEST SWAP2 POP PUSH2 0x3B43 DUP3 DUP5 PUSH2 0x34C9 JUMP JUMPDEST SWAP2 POP PUSH2 0x3B4E DUP3 PUSH2 0x39F0 JUMP JUMPDEST SWAP2 POP DUP2 SWAP1 POP SWAP12 SWAP11 POP POP POP POP POP POP POP POP POP POP POP JUMP JUMPDEST PUSH32 0x646174613A6170706C69636174696F6E2F6A736F6E3B6261736536342C000000 PUSH1 0x0 DUP3 ADD MSTORE POP JUMP JUMPDEST PUSH1 0x0 PUSH2 0x3B98 PUSH1 0x1D DUP4 PUSH2 0x3238 JUMP JUMPDEST SWAP2 POP PUSH2 0x3BA3 DUP3 PUSH2 0x3B62 JUMP JUMPDEST PUSH1 0x1D DUP3 ADD SWAP1 POP SWAP2 SWAP1 POP JUMP JUMPDEST PUSH1 0x0 PUSH2 0x3BB9 DUP3 PUSH2 0x3B8B JUMP JUMPDEST SWAP2 POP PUSH2 0x3BC5 DUP3 DUP5 PUSH2 0x35BE JUMP JUMPDEST SWAP2 POP DUP2 SWAP1 POP SWAP3 SWAP2 POP POP JUMP JUMPDEST PUSH32 0x4552433732313A207472616E736665722066726F6D20696E636F727265637420 PUSH1 0x0 DUP3 ADD MSTORE PUSH32 0x6F776E6572000000000000000000000000000000000000000000000000000000 PUSH1 0x20 DUP3 ADD MSTORE POP JUMP JUMPDEST PUSH1 0x0 PUSH2 0x3C2C PUSH1 0x25 DUP4 PUSH2 0x2338 JUMP JUMPDEST SWAP2 POP PUSH2 0x3C37 DUP3 PUSH2 0x3BD0 JUMP JUMPDEST PUSH1 0x40 DUP3 ADD SWAP1 POP SWAP2 SWAP1 POP JUMP JUMPDEST PUSH1 0x0 PUSH1 0x20 DUP3 ADD SWAP1 POP DUP2 DUP2 SUB PUSH1 0x0 DUP4 ADD MSTORE PUSH2 0x3C5B DUP2 PUSH2 0x3C1F JUMP JUMPDEST SWAP1 POP SWAP2 SWAP1 POP JUMP JUMPDEST PUSH32 0x4552433732313A207472616E7366657220746F20746865207A65726F20616464 PUSH1 0x0 DUP3 ADD MSTORE PUSH32 0x7265737300000000000000000000000000000000000000000000000000000000 PUSH1 0x20 DUP3 ADD MSTORE POP JUMP JUMPDEST PUSH1 0x0 PUSH2 0x3CBE PUSH1 0x24 DUP4 PUSH2 0x2338 JUMP JUMPDEST SWAP2 POP PUSH2 0x3CC9 DUP3 PUSH2 0x3C62 JUMP JUMPDEST PUSH1 0x40 DUP3 ADD SWAP1 POP SWAP2 SWAP1 POP JUMP JUMPDEST PUSH1 0x0 PUSH1 0x20 DUP3 ADD SWAP1 POP DUP2 DUP2 SUB PUSH1 0x0 DUP4 ADD MSTORE PUSH2 0x3CED DUP2 PUSH2 0x3CB1 JUMP JUMPDEST SWAP1 POP SWAP2 SWAP1 POP JUMP JUMPDEST PUSH32 0x4E487B7100000000000000000000000000000000000000000000000000000000 PUSH1 0x0 MSTORE PUSH1 0x11 PUSH1 0x4 MSTORE PUSH1 0x24 PUSH1 0x0 REVERT JUMPDEST PUSH1 0x0 PUSH2 0x3D2E DUP3 PUSH2 0x23DF JUMP JUMPDEST SWAP2 POP PUSH2 0x3D39 DUP4 PUSH2 0x23DF JUMP JUMPDEST SWAP3 POP DUP3 DUP3 SUB SWAP1 POP DUP2 DUP2 GT ISZERO PUSH2 0x3D51 JUMPI PUSH2 0x3D50 PUSH2 0x3CF4 JUMP JUMPDEST JUMPDEST SWAP3 SWAP2 POP POP JUMP JUMPDEST PUSH1 0x0 PUSH2 0x3D62 DUP3 PUSH2 0x23DF JUMP JUMPDEST SWAP2 POP PUSH2 0x3D6D DUP4 PUSH2 0x23DF JUMP JUMPDEST SWAP3 POP DUP3 DUP3 ADD SWAP1 POP DUP1 DUP3 GT ISZERO PUSH2 0x3D85 JUMPI PUSH2 0x3D84 PUSH2 0x3CF4 JUMP JUMPDEST JUMPDEST SWAP3 SWAP2 POP POP JUMP JUMPDEST PUSH32 0x4552433732313A20617070726F766520746F2063616C6C657200000000000000 PUSH1 0x0 DUP3 ADD MSTORE POP JUMP JUMPDEST PUSH1 0x0 PUSH2 0x3DC1 PUSH1 0x19 DUP4 PUSH2 0x2338 JUMP JUMPDEST SWAP2 POP PUSH2 0x3DCC DUP3 PUSH2 0x3D8B JUMP JUMPDEST PUSH1 0x20 DUP3 ADD SWAP1 POP SWAP2 SWAP1 POP JUMP JUMPDEST PUSH1 0x0 PUSH1 0x20 DUP3 ADD SWAP1 POP DUP2 DUP2 SUB PUSH1 0x0 DUP4 ADD MSTORE PUSH2 0x3DF0 DUP2 PUSH2 0x3DB4 JUMP JUMPDEST SWAP1 POP SWAP2 SWAP1 POP JUMP JUMPDEST PUSH32 0x4552433732313A207472616E7366657220746F206E6F6E204552433732315265 PUSH1 0x0 DUP3 ADD MSTORE PUSH32 0x63656976657220696D706C656D656E7465720000000000000000000000000000 PUSH1 0x20 DUP3 ADD MSTORE POP JUMP JUMPDEST PUSH1 0x0 PUSH2 0x3E53 PUSH1 0x32 DUP4 PUSH2 0x2338 JUMP JUMPDEST SWAP2 POP PUSH2 0x3E5E DUP3 PUSH2 0x3DF7 JUMP JUMPDEST PUSH1 0x40 DUP3 ADD SWAP1 POP SWAP2 SWAP1 POP JUMP JUMPDEST PUSH1 0x0 PUSH1 0x20 DUP3 ADD SWAP1 POP DUP2 DUP2 SUB PUSH1 0x0 DUP4 ADD MSTORE PUSH2 0x3E82 DUP2 PUSH2 0x3E46 JUMP JUMPDEST SWAP1 POP SWAP2 SWAP1 POP JUMP JUMPDEST PUSH1 0x0 PUSH2 0x3E94 DUP3 PUSH2 0x23DF JUMP JUMPDEST SWAP2 POP PUSH32 0xFFFFFFFFFFFFFFFFFFFFFFFFFFFFFFFFFFFFFFFFFFFFFFFFFFFFFFFFFFFFFFFF DUP3 SUB PUSH2 0x3EC6 JUMPI PUSH2 0x3EC5 PUSH2 0x3CF4 JUMP JUMPDEST JUMPDEST PUSH1 0x1 DUP3 ADD SWAP1 POP SWAP2 SWAP1 POP JUMP JUMPDEST PUSH32 0x4E487B7100000000000000000000000000000000000000000000000000000000 PUSH1 0x0 MSTORE PUSH1 0x12 PUSH1 0x4 MSTORE PUSH1 0x24 PUSH1 0x0 REVERT JUMPDEST PUSH1 0x0 PUSH2 0x3F0B DUP3 PUSH2 0x23DF JUMP JUMPDEST SWAP2 POP PUSH2 0x3F16 DUP4 PUSH2 0x23DF JUMP JUMPDEST SWAP3 POP DUP3 PUSH2 0x3F26 JUMPI PUSH2 0x3F25 PUSH2 0x3ED1 JUMP JUMPDEST JUMPDEST DUP3 DUP3 DIV SWAP1 POP SWAP3 SWAP2 POP POP JUMP JUMPDEST PUSH1 0x0 PUSH2 0x3F3C DUP3 PUSH2 0x23DF JUMP JUMPDEST SWAP2 POP PUSH2 0x3F47 DUP4 PUSH2 0x23DF JUMP JUMPDEST SWAP3 POP DUP3 PUSH2 0x3F57 JUMPI PUSH2 0x3F56 PUSH2 0x3ED1 JUMP JUMPDEST JUMPDEST DUP3 DUP3 MOD SWAP1 POP SWAP3 SWAP2 POP POP JUMP JUMPDEST PUSH1 0x0 PUSH2 0x3F6D DUP3 PUSH2 0x23DF JUMP JUMPDEST SWAP2 POP PUSH2 0x3F78 DUP4 PUSH2 0x23DF JUMP JUMPDEST SWAP3 POP DUP3 DUP3 MUL PUSH2 0x3F86 DUP2 PUSH2 0x23DF JUMP JUMPDEST SWAP2 POP DUP3 DUP3 DIV DUP5 EQ DUP4 ISZERO OR PUSH2 0x3F9D JUMPI PUSH2 0x3F9C PUSH2 0x3CF4 JUMP JUMPDEST JUMPDEST POP SWAP3 SWAP2 POP POP JUMP JUMPDEST PUSH1 0x0 DUP2 MLOAD SWAP1 POP SWAP2 SWAP1 POP JUMP JUMPDEST PUSH1 0x0 DUP3 DUP3 MSTORE PUSH1 0x20 DUP3 ADD SWAP1 POP SWAP3 SWAP2 POP POP JUMP JUMPDEST PUSH1 0x0 PUSH2 0x3FCB DUP3 PUSH2 0x3FA4 JUMP JUMPDEST PUSH2 0x3FD5 DUP2 DUP6 PUSH2 0x3FAF JUMP JUMPDEST SWAP4 POP PUSH2 0x3FE5 DUP2 DUP6 PUSH1 0x20 DUP7 ADD PUSH2 0x2349 JUMP JUMPDEST PUSH2 0x3FEE DUP2 PUSH2 0x2373 JUMP JUMPDEST DUP5 ADD SWAP2 POP POP SWAP3 SWAP2 POP POP JUMP JUMPDEST PUSH1 0x0 PUSH1 0x80 DUP3 ADD SWAP1 POP PUSH2 0x400E PUSH1 0x0 DUP4 ADD DUP8 PUSH2 0x2474 JUMP JUMPDEST PUSH2 0x401B PUSH1 0x20 DUP4 ADD DUP7 PUSH2 0x2474 JUMP JUMPDEST PUSH2 0x4028 PUSH1 0x40 DUP4 ADD DUP6 PUSH2 0x250A JUMP JUMPDEST DUP2 DUP2 SUB PUSH1 0x60 DUP4 ADD MSTORE PUSH2 0x403A DUP2 DUP5 PUSH2 0x3FC0 JUMP JUMPDEST SWAP1 POP SWAP6 SWAP5 POP POP POP POP POP JUMP JUMPDEST PUSH1 0x0 DUP2 MLOAD SWAP1 POP PUSH2 0x4054 DUP2 PUSH2 0x229E JUMP JUMPDEST SWAP3 SWAP2 POP POP JUMP JUMPDEST PUSH1 0x0 PUSH1 0x20 DUP3 DUP5 SUB SLT ISZERO PUSH2 0x4070 JUMPI PUSH2 0x406F PUSH2 0x2268 JUMP JUMPDEST JUMPDEST PUSH1 0x0 PUSH2 0x407E DUP5 DUP3 DUP6 ADD PUSH2 0x4045 JUMP JUMPDEST SWAP2 POP POP SWAP3 SWAP2 POP POP JUMP JUMPDEST PUSH32 0x4552433732313A206D696E7420746F20746865207A65726F2061646472657373 PUSH1 0x0 DUP3 ADD MSTORE POP JUMP JUMPDEST PUSH1 0x0 PUSH2 0x40BD PUSH1 0x20 DUP4 PUSH2 0x2338 JUMP JUMPDEST SWAP2 POP PUSH2 0x40C8 DUP3 PUSH2 0x4087 JUMP JUMPDEST PUSH1 0x20 DUP3 ADD SWAP1 POP SWAP2 SWAP1 POP JUMP JUMPDEST PUSH1 0x0 PUSH1 0x20 DUP3 ADD SWAP1 POP DUP2 DUP2 SUB PUSH1 0x0 DUP4 ADD MSTORE PUSH2 0x40EC DUP2 PUSH2 0x40B0 JUMP JUMPDEST SWAP1 POP SWAP2 SWAP1 POP JUMP JUMPDEST PUSH32 0x4552433732313A20746F6B656E20616C7265616479206D696E74656400000000 PUSH1 0x0 DUP3 ADD MSTORE POP JUMP JUMPDEST PUSH1 0x0 PUSH2 0x4129 PUSH1 0x1C DUP4 PUSH2 0x2338 JUMP JUMPDEST SWAP2 POP PUSH2 0x4134 DUP3 PUSH2 0x40F3 JUMP JUMPDEST PUSH1 0x20 DUP3 ADD SWAP1 POP SWAP2 SWAP1 POP JUMP JUMPDEST PUSH1 0x0 PUSH1 0x20 DUP3 ADD SWAP1 POP DUP2 DUP2 SUB PUSH1 0x0 DUP4 ADD MSTORE PUSH2 0x4158 DUP2 PUSH2 0x411C JUMP JUMPDEST SWAP1 POP SWAP2 SWAP1 POP JUMP JUMPDEST PUSH32 0x4E487B7100000000000000000000000000000000000000000000000000000000 PUSH1 0x0 MSTORE PUSH1 0x31 PUSH1 0x4 MSTORE PUSH1 0x24 PUSH1 0x0 REVERT INVALID COINBASE TIMESTAMP NUMBER DIFFICULTY GASLIMIT CHAINID SELFBALANCE BASEFEE 0x49 0x4A 0x4B 0x4C 0x4D 0x4E 0x4F POP MLOAD MSTORE MSTORE8 SLOAD SSTORE JUMP JUMPI PC MSIZE GAS PUSH2 0x6263 PUSH5 0x6566676869 PUSH11 0x6B6C6D6E6F707172737475 PUSH23 0x7778797A303132333435363738392B2FA2646970667358 0x22 SLT KECCAK256 SLT 0xA7 0xCD 0xDA CREATE2 MLOAD 0xB5 PUSH25 0xBFC10DA0B21F2964744190375184867D77925C923F9AC0EF64 PUSH20 0x6F6C634300081100330000000000000000000000 "},"methodIdentifiers":{"approve(address,uint256)":"095ea7b3","balanceOf(address)":"70a08231","getApproved(uint256)":"081812fc","get_house_info()":"3ab32f9c","isApprovedForAll(address,address)":"e985e9c5","mint()":"1249c58b","name()":"06fdde03","ownerOf(uint256)":"6352211e","safeTransferFrom(address,address,uint256)":"42842e0e","safeTransferFrom(address,address,uint256,bytes)":"b88d4fde","setApprovalForAll(address,bool)":"a22cb465","set_house_detail(string,string,uint256,uint256,uint256,uint256,uint256,uint256,bool,bool,string)":"7e06fcc7","supportsInterface(bytes4)":"01ffc9a7","symbol()":"95d89b41","tokenByIndex(uint256)":"4f6ccce7","tokenOfOwnerByIndex(address,uint256)":"2f745c59","tokenURI(uint256)":"c87b56dd","totalSupply()":"18160ddd","transferFrom(address,address,uint256)":"23b872dd"}}}}}