{
  "_format": "hh-sol-artifact-1",
  "contractName": "VestaDNA",
  "sourceName": "contracts/VestaDNA.sol",
  "abi": [
    {
      "inputs": [],
      "name": "get_house_info",
      "outputs": [
        {
          "internalType": "string",
          "name": "",
          "type": "string"
        },
        {
          "internalType": "string",
          "name": "",
          "type": "string"
        },
        {
          "internalType": "uint256",
          "name": "",
          "type": "uint256"
        },
        {
          "internalType": "uint256",
          "name": "",
          "type": "uint256"
        },
        {
          "internalType": "uint256",
          "name": "",
          "type": "uint256"
        },
        {
          "internalType": "uint256",
          "name": "",
          "type": "uint256"
        },
        {
          "internalType": "uint256",
          "name": "",
          "type": "uint256"
        },
        {
          "internalType": "uint256",
          "name": "",
          "type": "uint256"
        },
        {
          "internalType": "bool",
          "name": "",
          "type": "bool"
        },
        {
          "internalType": "bool",
          "name": "",
          "type": "bool"
        },
        {
          "internalType": "string",
          "name": "",
          "type": "string"
        }
      ],
      "stateMutability": "view",
      "type": "function"
    },
    {
      "inputs": [
        {
          "internalType": "string",
          "name": "image",
          "type": "string"
        },
        {
          "internalType": "string",
          "name": "typology",
          "type": "string"
        },
        {
          "internalType": "uint256",
          "name": "yearBuilt",
          "type": "uint256"
        },
        {
          "internalType": "uint256",
          "name": "sqm",
          "type": "uint256"
        },
        {
          "internalType": "uint256",
          "name": "rooms",
          "type": "uint256"
        },
        {
          "internalType": "uint256",
          "name": "bathrooms",
          "type": "uint256"
        },
        {
          "internalType": "uint256",
          "name": "levels",
          "type": "uint256"
        },
        {
          "internalType": "uint256",
          "name": "parkings",
          "type": "uint256"
        },
        {
          "internalType": "bool",
          "name": "yard",
          "type": "bool"
        },
        {
          "internalType": "bool",
          "name": "pool",
          "type": "bool"
        },
        {
          "internalType": "string",
          "name": "location",
          "type": "string"
        }
      ],
      "name": "set_house_detail",
      "outputs": [],
      "stateMutability": "nonpayable",
      "type": "function"
    }
  ],
  "bytecode": "0x608060405234801561001057600080fd5b50610b52806100206000396000f3fe608060405234801561001057600080fd5b50600436106100365760003560e01c80633ab32f9c1461003b5780637e06fcc714610063575b600080fd5b61004361007f565b60405161005a9b9a99989796959493929190610495565b60405180910390f35b61007d600480360381019061007891906106f6565b6102af565b005b6060806000806000806000806000806060600080016000600101600060020154600060030154600060040154600060050154600060060154600060070154600060080160009054906101000a900460ff16600060080160019054906101000a900460ff1660006009018a80546100f49061086d565b80601f01602080910402602001604051908101604052809291908181526020018280546101209061086d565b801561016d5780601f106101425761010080835404028352916020019161016d565b820191906000526020600020905b81548152906001019060200180831161015057829003601f168201915b50505050509a508980546101809061086d565b80601f01602080910402602001604051908101604052809291908181526020018280546101ac9061086d565b80156101f95780601f106101ce576101008083540402835291602001916101f9565b820191906000526020600020905b8154815290600101906020018083116101dc57829003601f168201915b5050505050995080805461020c9061086d565b80601f01602080910402602001604051908101604052809291908181526020018280546102389061086d565b80156102855780601f1061025a57610100808354040283529160200191610285565b820191906000526020600020905b81548152906001019060200180831161026857829003601f168201915b505050505090509a509a509a509a509a509a509a509a509a509a509a50909192939495969798999a565b6040518061016001604052808c81526020018b81526020018a815260200189815260200188815260200187815260200186815260200185815260200184151581526020018315158152602001828152506000808201518160000190816103159190610a4a565b50602082015181600101908161032b9190610a4a565b5060408201518160020155606082015181600301556080820151816004015560a0820151816005015560c0820151816006015560e082015181600701556101008201518160080160006101000a81548160ff0219169083151502179055506101208201518160080160016101000a81548160ff0219169083151502179055506101408201518160090190816103c09190610a4a565b509050505050505050505050505050565b600081519050919050565b600082825260208201905092915050565b60005b8381101561040b5780820151818401526020810190506103f0565b60008484015250505050565b6000601f19601f8301169050919050565b6000610433826103d1565b61043d81856103dc565b935061044d8185602086016103ed565b61045681610417565b840191505092915050565b6000819050919050565b61047481610461565b82525050565b60008115159050919050565b61048f8161047a565b82525050565b60006101608201905081810360008301526104b0818e610428565b905081810360208301526104c4818d610428565b90506104d3604083018c61046b565b6104e0606083018b61046b565b6104ed608083018a61046b565b6104fa60a083018961046b565b61050760c083018861046b565b61051460e083018761046b565b610522610100830186610486565b610530610120830185610486565b8181036101408301526105438184610428565b90509c9b505050505050505050505050565b6000604051905090565b600080fd5b600080fd5b600080fd5b600080fd5b7f4e487b7100000000000000000000000000000000000000000000000000000000600052604160045260246000fd5b6105ab82610417565b810181811067ffffffffffffffff821117156105ca576105c9610573565b5b80604052505050565b60006105dd610555565b90506105e982826105a2565b919050565b600067ffffffffffffffff82111561060957610608610573565b5b61061282610417565b9050602081019050919050565b82818337600083830152505050565b600061064161063c846105ee565b6105d3565b90508281526020810184848401111561065d5761065c61056e565b5b61066884828561061f565b509392505050565b600082601f83011261068557610684610569565b5b813561069584826020860161062e565b91505092915050565b6106a781610461565b81146106b257600080fd5b50565b6000813590506106c48161069e565b92915050565b6106d38161047a565b81146106de57600080fd5b50565b6000813590506106f0816106ca565b92915050565b60008060008060008060008060008060006101608c8e03121561071c5761071b61055f565b5b60008c013567ffffffffffffffff81111561073a57610739610564565b5b6107468e828f01610670565b9b505060208c013567ffffffffffffffff81111561076757610766610564565b5b6107738e828f01610670565b9a505060406107848e828f016106b5565b99505060606107958e828f016106b5565b98505060806107a68e828f016106b5565b97505060a06107b78e828f016106b5565b96505060c06107c88e828f016106b5565b95505060e06107d98e828f016106b5565b9450506101006107eb8e828f016106e1565b9350506101206107fd8e828f016106e1565b9250506101408c013567ffffffffffffffff81111561081f5761081e610564565b5b61082b8e828f01610670565b9150509295989b509295989b9093969950565b7f4e487b7100000000000000000000000000000000000000000000000000000000600052602260045260246000fd5b6000600282049050600182168061088557607f821691505b6020821081036108985761089761083e565b5b50919050565b60008190508160005260206000209050919050565b60006020601f8301049050919050565b600082821b905092915050565b6000600883026109007fffffffffffffffffffffffffffffffffffffffffffffffffffffffffffffffff826108c3565b61090a86836108c3565b95508019841693508086168417925050509392505050565b6000819050919050565b600061094761094261093d84610461565b610922565b610461565b9050919050565b6000819050919050565b6109618361092c565b61097561096d8261094e565b8484546108d0565b825550505050565b600090565b61098a61097d565b610995818484610958565b505050565b5b818110156109b9576109ae600082610982565b60018101905061099b565b5050565b601f8211156109fe576109cf8161089e565b6109d8846108b3565b810160208510156109e7578190505b6109fb6109f3856108b3565b83018261099a565b50505b505050565b600082821c905092915050565b6000610a2160001984600802610a03565b1980831691505092915050565b6000610a3a8383610a10565b9150826002028217905092915050565b610a53826103d1565b67ffffffffffffffff811115610a6c57610a6b610573565b5b610a76825461086d565b610a818282856109bd565b600060209050601f831160018114610ab45760008415610aa2578287015190505b610aac8582610a2e565b865550610b14565b601f198416610ac28661089e565b60005b82811015610aea57848901518255600182019150602085019450602081019050610ac5565b86831015610b075784890151610b03601f891682610a10565b8355505b6001600288020188555050505b50505050505056fea264697066735822122079c617590a85cc09093250c4e4cbe6ea970ae36161473a20af13e2c6cc3b436564736f6c63430008110033",
  "linkReferences": {},
  "deployedLinkReferences": {}
}