{
  "_format": "hh-sol-artifact-1",
  "contractName": "VestaDNA",
  "sourceName": "contracts/VestaDNA.sol",
  "abi": [
    {
      "inputs": [
        {
          "internalType": "uint256",
          "name": "i",
          "type": "uint256"
        }
      ],
      "name": "get_house",
      "outputs": [
        {
          "internalType": "string",
          "name": "",
          "type": "string"
        },
        {
          "internalType": "string",
          "name": "",
          "type": "string"
        },
        {
          "internalType": "uint256",
          "name": "",
          "type": "uint256"
        },
        {
          "internalType": "uint256",
          "name": "",
          "type": "uint256"
        },
        {
          "internalType": "uint256",
          "name": "",
          "type": "uint256"
        },
        {
          "internalType": "uint256",
          "name": "",
          "type": "uint256"
        },
        {
          "internalType": "uint256",
          "name": "",
          "type": "uint256"
        },
        {
          "internalType": "uint256",
          "name": "",
          "type": "uint256"
        },
        {
          "internalType": "bool",
          "name": "",
          "type": "bool"
        },
        {
          "internalType": "bool",
          "name": "",
          "type": "bool"
        },
        {
          "internalType": "string",
          "name": "",
          "type": "string"
        }
      ],
      "stateMutability": "view",
      "type": "function"
    },
    {
      "inputs": [
        {
          "internalType": "uint256",
          "name": "",
          "type": "uint256"
        }
      ],
      "name": "registered_house",
      "outputs": [
        {
          "internalType": "string",
          "name": "image",
          "type": "string"
        },
        {
          "internalType": "string",
          "name": "typology",
          "type": "string"
        },
        {
          "internalType": "uint256",
          "name": "yearBuilt",
          "type": "uint256"
        },
        {
          "internalType": "uint256",
          "name": "sqm",
          "type": "uint256"
        },
        {
          "internalType": "uint256",
          "name": "rooms",
          "type": "uint256"
        },
        {
          "internalType": "uint256",
          "name": "bathrooms",
          "type": "uint256"
        },
        {
          "internalType": "uint256",
          "name": "levels",
          "type": "uint256"
        },
        {
          "internalType": "uint256",
          "name": "parkings",
          "type": "uint256"
        },
        {
          "internalType": "bool",
          "name": "yard",
          "type": "bool"
        },
        {
          "internalType": "bool",
          "name": "pool",
          "type": "bool"
        },
        {
          "internalType": "string",
          "name": "location",
          "type": "string"
        }
      ],
      "stateMutability": "view",
      "type": "function"
    },
    {
      "inputs": [
        {
          "internalType": "string",
          "name": "image",
          "type": "string"
        },
        {
          "internalType": "string",
          "name": "typology",
          "type": "string"
        },
        {
          "internalType": "uint256",
          "name": "yearBuilt",
          "type": "uint256"
        },
        {
          "internalType": "uint256",
          "name": "sqm",
          "type": "uint256"
        },
        {
          "internalType": "uint256",
          "name": "rooms",
          "type": "uint256"
        },
        {
          "internalType": "uint256",
          "name": "bathrooms",
          "type": "uint256"
        },
        {
          "internalType": "uint256",
          "name": "levels",
          "type": "uint256"
        },
        {
          "internalType": "uint256",
          "name": "parkings",
          "type": "uint256"
        },
        {
          "internalType": "bool",
          "name": "yard",
          "type": "bool"
        },
        {
          "internalType": "bool",
          "name": "pool",
          "type": "bool"
        },
        {
          "internalType": "string",
          "name": "location",
          "type": "string"
        }
      ],
      "name": "set_house_detail",
      "outputs": [],
      "stateMutability": "nonpayable",
      "type": "function"
    }
  ],
  "bytecode": "0x608060405234801561001057600080fd5b50610e68806100206000396000f3fe608060405234801561001057600080fd5b50600436106100415760003560e01c80633b8593e1146100465780637e06fcc7146100805780638962e6f21461009c575b600080fd5b610060600480360381019061005b91906106d5565b6100d6565b6040516100779b9a999897969594939291906107bc565b60405180910390f35b61009a600480360381019061009591906109dd565b610324565b005b6100b660048036038101906100b191906106d5565b61046f565b6040516100cd9b9a999897969594939291906107bc565b60405180910390f35b60608060008060008060008060008060606000808d815481106100fc576100fb610b25565b5b90600052602060002090600a0201905080600001816001018260020154836003015484600401548560050154866006015487600701548860080160009054906101000a900460ff168960080160019054906101000a900460ff168a6009018a805461016690610b83565b80601f016020809104026020016040519081016040528092919081815260200182805461019290610b83565b80156101df5780601f106101b4576101008083540402835291602001916101df565b820191906000526020600020905b8154815290600101906020018083116101c257829003601f168201915b50505050509a508980546101f290610b83565b80601f016020809104026020016040519081016040528092919081815260200182805461021e90610b83565b801561026b5780601f106102405761010080835404028352916020019161026b565b820191906000526020600020905b81548152906001019060200180831161024e57829003601f168201915b5050505050995080805461027e90610b83565b80601f01602080910402602001604051908101604052809291908181526020018280546102aa90610b83565b80156102f75780601f106102cc576101008083540402835291602001916102f7565b820191906000526020600020905b8154815290600101906020018083116102da57829003601f168201915b505050505090509b509b509b509b509b509b509b509b509b509b509b505091939597999b90929496989a50565b60006040518061016001604052808d81526020018c81526020018b81526020018a8152602001898152602001888152602001878152602001868152602001851515815260200184151581526020018381525090806001815401808255809150506001900390600052602060002090600a020160009091909190915060008201518160000190816103b49190610d60565b5060208201518160010190816103ca9190610d60565b5060408201518160020155606082015181600301556080820151816004015560a0820151816005015560c0820151816006015560e082015181600701556101008201518160080160006101000a81548160ff0219169083151502179055506101208201518160080160016101000a81548160ff02191690831515021790555061014082015181600901908161045f9190610d60565b5050505050505050505050505050565b6000818154811061047f57600080fd5b90600052602060002090600a02016000915090508060000180546104a290610b83565b80601f01602080910402602001604051908101604052809291908181526020018280546104ce90610b83565b801561051b5780601f106104f05761010080835404028352916020019161051b565b820191906000526020600020905b8154815290600101906020018083116104fe57829003601f168201915b50505050509080600101805461053090610b83565b80601f016020809104026020016040519081016040528092919081815260200182805461055c90610b83565b80156105a95780601f1061057e576101008083540402835291602001916105a9565b820191906000526020600020905b81548152906001019060200180831161058c57829003601f168201915b5050505050908060020154908060030154908060040154908060050154908060060154908060070154908060080160009054906101000a900460ff16908060080160019054906101000a900460ff169080600901805461060890610b83565b80601f016020809104026020016040519081016040528092919081815260200182805461063490610b83565b80156106815780601f1061065657610100808354040283529160200191610681565b820191906000526020600020905b81548152906001019060200180831161066457829003601f168201915b505050505090508b565b6000604051905090565b600080fd5b600080fd5b6000819050919050565b6106b28161069f565b81146106bd57600080fd5b50565b6000813590506106cf816106a9565b92915050565b6000602082840312156106eb576106ea610695565b5b60006106f9848285016106c0565b91505092915050565b600081519050919050565b600082825260208201905092915050565b60005b8381101561073c578082015181840152602081019050610721565b60008484015250505050565b6000601f19601f8301169050919050565b600061076482610702565b61076e818561070d565b935061077e81856020860161071e565b61078781610748565b840191505092915050565b61079b8161069f565b82525050565b60008115159050919050565b6107b6816107a1565b82525050565b60006101608201905081810360008301526107d7818e610759565b905081810360208301526107eb818d610759565b90506107fa604083018c610792565b610807606083018b610792565b610814608083018a610792565b61082160a0830189610792565b61082e60c0830188610792565b61083b60e0830187610792565b6108496101008301866107ad565b6108576101208301856107ad565b81810361014083015261086a8184610759565b90509c9b505050505050505050505050565b600080fd5b600080fd5b7f4e487b7100000000000000000000000000000000000000000000000000000000600052604160045260246000fd5b6108be82610748565b810181811067ffffffffffffffff821117156108dd576108dc610886565b5b80604052505050565b60006108f061068b565b90506108fc82826108b5565b919050565b600067ffffffffffffffff82111561091c5761091b610886565b5b61092582610748565b9050602081019050919050565b82818337600083830152505050565b600061095461094f84610901565b6108e6565b9050828152602081018484840111156109705761096f610881565b5b61097b848285610932565b509392505050565b600082601f8301126109985761099761087c565b5b81356109a8848260208601610941565b91505092915050565b6109ba816107a1565b81146109c557600080fd5b50565b6000813590506109d7816109b1565b92915050565b60008060008060008060008060008060006101608c8e031215610a0357610a02610695565b5b60008c013567ffffffffffffffff811115610a2157610a2061069a565b5b610a2d8e828f01610983565b9b505060208c013567ffffffffffffffff811115610a4e57610a4d61069a565b5b610a5a8e828f01610983565b9a50506040610a6b8e828f016106c0565b9950506060610a7c8e828f016106c0565b9850506080610a8d8e828f016106c0565b97505060a0610a9e8e828f016106c0565b96505060c0610aaf8e828f016106c0565b95505060e0610ac08e828f016106c0565b945050610100610ad28e828f016109c8565b935050610120610ae48e828f016109c8565b9250506101408c013567ffffffffffffffff811115610b0657610b0561069a565b5b610b128e828f01610983565b9150509295989b509295989b9093969950565b7f4e487b7100000000000000000000000000000000000000000000000000000000600052603260045260246000fd5b7f4e487b7100000000000000000000000000000000000000000000000000000000600052602260045260246000fd5b60006002820490506001821680610b9b57607f821691505b602082108103610bae57610bad610b54565b5b50919050565b60008190508160005260206000209050919050565b60006020601f8301049050919050565b600082821b905092915050565b600060088302610c167fffffffffffffffffffffffffffffffffffffffffffffffffffffffffffffffff82610bd9565b610c208683610bd9565b95508019841693508086168417925050509392505050565b6000819050919050565b6000610c5d610c58610c538461069f565b610c38565b61069f565b9050919050565b6000819050919050565b610c7783610c42565b610c8b610c8382610c64565b848454610be6565b825550505050565b600090565b610ca0610c93565b610cab818484610c6e565b505050565b5b81811015610ccf57610cc4600082610c98565b600181019050610cb1565b5050565b601f821115610d1457610ce581610bb4565b610cee84610bc9565b81016020851015610cfd578190505b610d11610d0985610bc9565b830182610cb0565b50505b505050565b600082821c905092915050565b6000610d3760001984600802610d19565b1980831691505092915050565b6000610d508383610d26565b9150826002028217905092915050565b610d6982610702565b67ffffffffffffffff811115610d8257610d81610886565b5b610d8c8254610b83565b610d97828285610cd3565b600060209050601f831160018114610dca5760008415610db8578287015190505b610dc28582610d44565b865550610e2a565b601f198416610dd886610bb4565b60005b82811015610e0057848901518255600182019150602085019450602081019050610ddb565b86831015610e1d5784890151610e19601f891682610d26565b8355505b6001600288020188555050505b50505050505056fea26469706673582212204655ddcaffd777b7daba87630ac2a6573c2030560c5cfb710840a5c5601118e564736f6c63430008110033",
  "linkReferences": {},
  "deployedLinkReferences": {}
}